{
  "hex": "010000000186ef064c5f594cf1d7e38945a90ad2a8f8b591d68c7be489b3f4a498710cd8e8000000006a47304402207fb3b248528e525574f5144a3ae555f02178cc2636867eed336f93befc8ca1f202201267600dd0141217bd3d09821ec0b13f5a50139944813449fcd6f3ef330e6737012103f5eb09ef185377397cfe73eaea491602b84b5cb55ea4469a930d09f20d13e1deffffffff02804a5d05000000001976a914081522820f2ccef873e47ee62b31cb9e9267e72588ac706f9800000000001976a9148130f96080e598cc4e210067eb54403074aa1a8d88ac00000000",
  "txid": "08f36e44ac44b301dae9db829def3f5c28c0010881e51f1989c2d8e6c8d17564",
  "hash": "08f36e44ac44b301dae9db829def3f5c28c0010881e51f1989c2d8e6c8d17564",
  "size": 225,
  "vsize": 225,
  "version": 1,
  "locktime": 0,
  "vin": [
    {
      "txid": "e8d80c7198a4f4b389e47b8cd691b5f8a8d20aa94589e3d7f14c595f4c06ef86",
      "vout": 0,
      "scriptSig": {
        "asm": "304402207fb3b248528e525574f5144a3ae555f02178cc2636867eed336f93befc8ca1f202201267600dd0141217bd3d09821ec0b13f5a50139944813449fcd6f3ef330e6737[ALL] 03f5eb09ef185377397cfe73eaea491602b84b5cb55ea4469a930d09f20d13e1de",
        "hex": "47304402207fb3b248528e525574f5144a3ae555f02178cc2636867eed336f93befc8ca1f202201267600dd0141217bd3d09821ec0b13f5a50139944813449fcd6f3ef330e6737012103f5eb09ef185377397cfe73eaea491602b84b5cb55ea4469a930d09f20d13e1de"
      },
      "sequence": 4294967295
    }
  ],
  "vout": [
    {
      "value": 0.90000000,
      "n": 0,
      "scriptPubKey": {
        "asm": "OP_DUP OP_HASH160 081522820f2ccef873e47ee62b31cb9e9267e725 OP_EQUALVERIFY OP_CHECKSIG",
        "hex": "76a914081522820f2ccef873e47ee62b31cb9e9267e72588ac",
        "reqSigs": 1,
        "type": "pubkeyhash",
        "addresses": [
          "mgFh24STJjQxDiZaSeTBmMLuMzJwoFaMHh"
        ]
      }
    },
    {
      "value": 0.09990000,
      "n": 1,
      "scriptPubKey": {
        "asm": "OP_DUP OP_HASH160 8130f96080e598cc4e210067eb54403074aa1a8d OP_EQUALVERIFY OP_CHECKSIG",
        "hex": "76a9148130f96080e598cc4e210067eb54403074aa1a8d88ac",
        "reqSigs": 1,
        "type": "pubkeyhash",
        "addresses": [
          "msJ48aj11GcKuu3SK5nc5MPGrMxvE1oR5Y"
        ]
      }
    }
  ],
  "blockhash": "00000000163e47c532f07a08cd1828a346e2b521fcfc09235db3253bac50ec27",
  "confirmations": 638409,
  "time": 1431135554,
  "blocktime": 1431135554
}