{
  "hex": "0100000002e108306761ba736fe622594fa663b5e11a84b9ad89c42958f9e5bb6b29009282020000006b483045022100f1a3e4ec6a5939eeb046cfea51f55f576cf4a21290df1158453c56ca216643c902207ec9f93e57c98244fb6ab334af83c03ae96036a155fa6e30e268959d3fcea8b5012102174620b7c583dc471e04b604fc85f7ae19d161a070af7227ca03edfcb6c4dc4fffffffffe108306761ba736fe622594fa663b5e11a84b9ad89c42958f9e5bb6b29009282030000006b483045022100a8cf4a7eed5e8f0d8d11404ab395100440af34289c32d9d4671d0d6bf71065e0022021b9cbb13a7acc38457bb35028914ddcfbea3034c74ee87c01df5e36089bacb6012102174620b7c583dc471e04b604fc85f7ae19d161a070af7227ca03edfcb6c4dc4fffffffff0400000000000000000a6a084f4101000219460058020000000000001976a914b7218fe503cd18555255e5b13d4f07f3fd00d0c988ac58020000000000001976a914de20a2d5a57ee40ce9a4ce14cf06a6c2c6ffe29788ac504e0700000000001976a914de20a2d5a57ee40ce9a4ce14cf06a6c2c6ffe29788ac00000000",
  "txid": "0c02993e80062535fda3d433b1e621d7553ce105a9a03aa70b39098ac1aaf4da",
  "size": 427,
  "version": 1,
  "locktime": 0,
  "vin": [
    {
      "txid": "829200296bbbe5f95829c489adb9841ae1b563a64f5922e66f73ba61673008e1",
      "vout": 2,
      "scriptSig": {
        "asm": "3045022100f1a3e4ec6a5939eeb046cfea51f55f576cf4a21290df1158453c56ca216643c902207ec9f93e57c98244fb6ab334af83c03ae96036a155fa6e30e268959d3fcea8b5[ALL] 02174620b7c583dc471e04b604fc85f7ae19d161a070af7227ca03edfcb6c4dc4f",
        "hex": "483045022100f1a3e4ec6a5939eeb046cfea51f55f576cf4a21290df1158453c56ca216643c902207ec9f93e57c98244fb6ab334af83c03ae96036a155fa6e30e268959d3fcea8b5012102174620b7c583dc471e04b604fc85f7ae19d161a070af7227ca03edfcb6c4dc4f"
      },
      "sequence": 4294967295
    },
    {
      "txid": "829200296bbbe5f95829c489adb9841ae1b563a64f5922e66f73ba61673008e1",
      "vout": 3,
      "scriptSig": {
        "asm": "3045022100a8cf4a7eed5e8f0d8d11404ab395100440af34289c32d9d4671d0d6bf71065e0022021b9cbb13a7acc38457bb35028914ddcfbea3034c74ee87c01df5e36089bacb6[ALL] 02174620b7c583dc471e04b604fc85f7ae19d161a070af7227ca03edfcb6c4dc4f",
        "hex": "483045022100a8cf4a7eed5e8f0d8d11404ab395100440af34289c32d9d4671d0d6bf71065e0022021b9cbb13a7acc38457bb35028914ddcfbea3034c74ee87c01df5e36089bacb6012102174620b7c583dc471e04b604fc85f7ae19d161a070af7227ca03edfcb6c4dc4f"
      },
      "sequence": 4294967295
    }
  ],
  "vout": [
    {
      "value": 0.00000000,
      "n": 0,
      "scriptPubKey": {
        "asm": "OP_RETURN 4f41010002194600",
        "hex": "6a084f41010002194600",
        "type": "nulldata"
      }
    },
    {
      "value": 0.00000600,
      "n": 1,
      "scriptPubKey": {
        "asm": "OP_DUP OP_HASH160 b7218fe503cd18555255e5b13d4f07f3fd00d0c9 OP_EQUALVERIFY OP_CHECKSIG",
        "hex": "76a914b7218fe503cd18555255e5b13d4f07f3fd00d0c988ac",
        "reqSigs": 1,
        "type": "pubkeyhash",
        "addresses": [
          "1HhJs3JgbiyxC8ktfi6nU4wTqVmrMtCVkG"
        ]
      }
    },
    {
      "value": 0.00000600,
      "n": 2,
      "scriptPubKey": {
        "asm": "OP_DUP OP_HASH160 de20a2d5a57ee40ce9a4ce14cf06a6c2c6ffe297 OP_EQUALVERIFY OP_CHECKSIG",
        "hex": "76a914de20a2d5a57ee40ce9a4ce14cf06a6c2c6ffe29788ac",
        "reqSigs": 1,
        "type": "pubkeyhash",
        "addresses": [
          "1MFW7BTwiNbAkmVz4SzAMQXboKYKGSzkq2"
        ]
      }
    },
    {
      "value": 0.00478800,
      "n": 3,
      "scriptPubKey": {
        "asm": "OP_DUP OP_HASH160 de20a2d5a57ee40ce9a4ce14cf06a6c2c6ffe297 OP_EQUALVERIFY OP_CHECKSIG",
        "hex": "76a914de20a2d5a57ee40ce9a4ce14cf06a6c2c6ffe29788ac",
        "reqSigs": 1,
        "type": "pubkeyhash",
        "addresses": [
          "1MFW7BTwiNbAkmVz4SzAMQXboKYKGSzkq2"
        ]
      }
    }
  ],
  "blockhash": "0000000000000000130fb1f46ce1c0338d62129d2e2da3c94aebe7759cea6a52",
  "confirmations": 78266,
  "time": 1434067385,
  "blocktime": 1434067385
}