{
  "hex": "0100000001e065787fe31b0f87a1e7fc3d36915bd2048c40e12198d3dfcdb01824953c8cf8010000006b483045022100a6752e02271f668aa0d72eabb2132738816b35d15cae5d5d293b32b0e5d22bf102202d653d019ec10aa3eef5be4cc2488908352b47beea91cb18465b16edcae4e2cf01210316cff587a01a2736d5e12e53551b18d73780b83c3bfb4fcf209c869b11b6415effffffff0220a10700000000001976a91438a6ebdf20cae2c9287ea014464042112ea3dbfd88acbc371004000000001976a914c01a7ca16b47be50cbdbc60724f701d52d75156688ac00000000",
  "txid": "1206e4a462902b865b827e4e1638f4aa5d16723b26536f05507e4db17ca6f554",
  "hash": "1206e4a462902b865b827e4e1638f4aa5d16723b26536f05507e4db17ca6f554",
  "size": 226,
  "vsize": 226,
  "version": 1,
  "locktime": 0,
  "vin": [
    {
      "txid": "f88c3c952418b0cddfd39821e1408c04d25b91363dfce7a1870f1be37f7865e0",
      "vout": 1,
      "scriptSig": {
        "asm": "3045022100a6752e02271f668aa0d72eabb2132738816b35d15cae5d5d293b32b0e5d22bf102202d653d019ec10aa3eef5be4cc2488908352b47beea91cb18465b16edcae4e2cf[ALL] 0316cff587a01a2736d5e12e53551b18d73780b83c3bfb4fcf209c869b11b6415e",
        "hex": "483045022100a6752e02271f668aa0d72eabb2132738816b35d15cae5d5d293b32b0e5d22bf102202d653d019ec10aa3eef5be4cc2488908352b47beea91cb18465b16edcae4e2cf01210316cff587a01a2736d5e12e53551b18d73780b83c3bfb4fcf209c869b11b6415e"
      },
      "sequence": 4294967295
    }
  ],
  "vout": [
    {
      "value": 0.00500000,
      "n": 0,
      "scriptPubKey": {
        "asm": "OP_DUP OP_HASH160 38a6ebdf20cae2c9287ea014464042112ea3dbfd OP_EQUALVERIFY OP_CHECKSIG",
        "hex": "76a91438a6ebdf20cae2c9287ea014464042112ea3dbfd88ac",
        "reqSigs": 1,
        "type": "pubkeyhash",
        "addresses": [
          "mkgW6hNYBctmqDtTTsTJrsf2Gh2NPtoCU4"
        ]
      }
    },
    {
      "value": 0.68171708,
      "n": 1,
      "scriptPubKey": {
        "asm": "OP_DUP OP_HASH160 c01a7ca16b47be50cbdbc60724f701d52d751566 OP_EQUALVERIFY OP_CHECKSIG",
        "hex": "76a914c01a7ca16b47be50cbdbc60724f701d52d75156688ac",
        "reqSigs": 1,
        "type": "pubkeyhash",
        "addresses": [
          "my2hmDuD9XjmtQWFu9HyyNAsE5WGSDBKpQ"
        ]
      }
    }
  ],
  "blockhash": "000000000000074452a3183fa27ae2353266b64189ba54ae127bdb3d1b73d7e8",
  "confirmations": 451854,
  "time": 1446197165,
  "blocktime": 1446197165
}