{
  "hex": "010000000149c2928fed19a378e61b7327f4aa200e8de82fc47a538fb9458be922501f6ec6000000006b483045022100a7f7e00c861b255030a9e98904cc82530f33ce42c004f0e895910a26a31e2a47022046aa4b5d8f54edcaea15c32b33199d05c1434c64de82ce86e74a237f21c6aa2b0121029b4d5e41a6cdc3625b3d971bba951d809dd6156dfb7c20dde35f05035c645d8cffffffff0280edda02000000001976a91465259d8fad44dddf5d137c6fe4f77f5281b255ae88aca0860100000000001976a914ce5807e32919e3e3df9806d03bd509207730e1a188ac00000000",
  "txid": "19681a1596891ccb519056a7246bc3d3c3c02577e38df9539c99add7c0ae218e",
  "hash": "19681a1596891ccb519056a7246bc3d3c3c02577e38df9539c99add7c0ae218e",
  "size": 226,
  "vsize": 226,
  "version": 1,
  "locktime": 0,
  "vin": [
    {
      "txid": "c66e1f5022e98b45b98f537ac42fe88d0e20aaf427731be678a319ed8f92c249",
      "vout": 0,
      "scriptSig": {
        "asm": "3045022100a7f7e00c861b255030a9e98904cc82530f33ce42c004f0e895910a26a31e2a47022046aa4b5d8f54edcaea15c32b33199d05c1434c64de82ce86e74a237f21c6aa2b[ALL] 029b4d5e41a6cdc3625b3d971bba951d809dd6156dfb7c20dde35f05035c645d8c",
        "hex": "483045022100a7f7e00c861b255030a9e98904cc82530f33ce42c004f0e895910a26a31e2a47022046aa4b5d8f54edcaea15c32b33199d05c1434c64de82ce86e74a237f21c6aa2b0121029b4d5e41a6cdc3625b3d971bba951d809dd6156dfb7c20dde35f05035c645d8c"
      },
      "sequence": 4294967295
    }
  ],
  "vout": [
    {
      "value": 0.47902080,
      "n": 0,
      "scriptPubKey": {
        "asm": "OP_DUP OP_HASH160 65259d8fad44dddf5d137c6fe4f77f5281b255ae OP_EQUALVERIFY OP_CHECKSIG",
        "hex": "76a91465259d8fad44dddf5d137c6fe4f77f5281b255ae88ac",
        "reqSigs": 1,
        "type": "pubkeyhash",
        "addresses": [
          "mpjmbzpujPG4CPPKEjuvkSMi895AKmMHQo"
        ]
      }
    },
    {
      "value": 0.00100000,
      "n": 1,
      "scriptPubKey": {
        "asm": "OP_DUP OP_HASH160 ce5807e32919e3e3df9806d03bd509207730e1a1 OP_EQUALVERIFY OP_CHECKSIG",
        "hex": "76a914ce5807e32919e3e3df9806d03bd509207730e1a188ac",
        "reqSigs": 1,
        "type": "pubkeyhash",
        "addresses": [
          "mzKzx4NheRX3PmqprDnD8UUoXjTX7RqVeL"
        ]
      }
    }
  ],
  "blockhash": "0000000000022c774457f2e58b0e49fd0d568707e989fabd813a75e4c5540009",
  "confirmations": 134763,
  "time": 1469349394,
  "blocktime": 1469349394
}