{
  "hex": "010000000108fcc35a4b46b36be2b07b5dc06bb635956597d5ea79b028a0a2f70ae6cf6fd6010000006a4730440220325a1bc5fe119e87f0b15e7f542107e1e839f3f8b241a91eebb33ee74612d65502207df2580d7b7105f4353e730c2a6df2e89c9cb77ad9fc9f6e066f444dca82e298012103996ffca62815a75befba6b85ef0c5e03bc3548db16c2b0642225417c94a80cbfffffffff02e33e0500000000001976a914fcefa84d15d0bf818b020f0cdaf99f4029c15ce788aca0860100000000001976a91424b3d405bc60bd9628691fe28bb00f6800e1480688ac00000000",
  "txid": "21b093ec41244898a50e1f97cb80fd98d7714c7235e0a4a30d7d0c6fb6a6ce8a",
  "size": 225,
  "version": 1,
  "locktime": 0,
  "vin": [
    {
      "txid": "d66fcfe60af7a2a028b079ead597659535b66bc05d7bb0e26bb3464b5ac3fc08",
      "vout": 1,
      "scriptSig": {
        "asm": "30440220325a1bc5fe119e87f0b15e7f542107e1e839f3f8b241a91eebb33ee74612d65502207df2580d7b7105f4353e730c2a6df2e89c9cb77ad9fc9f6e066f444dca82e298[ALL] 03996ffca62815a75befba6b85ef0c5e03bc3548db16c2b0642225417c94a80cbf",
        "hex": "4730440220325a1bc5fe119e87f0b15e7f542107e1e839f3f8b241a91eebb33ee74612d65502207df2580d7b7105f4353e730c2a6df2e89c9cb77ad9fc9f6e066f444dca82e298012103996ffca62815a75befba6b85ef0c5e03bc3548db16c2b0642225417c94a80cbf"
      },
      "sequence": 4294967295
    }
  ],
  "vout": [
    {
      "value": 0.00343779,
      "n": 0,
      "scriptPubKey": {
        "asm": "OP_DUP OP_HASH160 fcefa84d15d0bf818b020f0cdaf99f4029c15ce7 OP_EQUALVERIFY OP_CHECKSIG",
        "hex": "76a914fcefa84d15d0bf818b020f0cdaf99f4029c15ce788ac",
        "reqSigs": 1,
        "type": "pubkeyhash",
        "addresses": [
          "1Q4QP2oqRKCTAhBwKjEm6B56KvjRw2fbMi"
        ]
      }
    },
    {
      "value": 0.00100000,
      "n": 1,
      "scriptPubKey": {
        "asm": "OP_DUP OP_HASH160 24b3d405bc60bd9628691fe28bb00f6800e14806 OP_EQUALVERIFY OP_CHECKSIG",
        "hex": "76a91424b3d405bc60bd9628691fe28bb00f6800e1480688ac",
        "reqSigs": 1,
        "type": "pubkeyhash",
        "addresses": [
          "14M4kbAtn71P1nnNYuhBDFTNYxa19t1XP6"
        ]
      }
    }
  ],
  "blockhash": "000000000000000012717446e179838bd876a8bd92297b480bd05a0845463338",
  "confirmations": 78385,
  "time": 1433990385,
  "blocktime": 1433990385
}