{
  "hex": "01000000011c963366a33ab3df14243e22ed1a893cca3f5d315b4b7b5755503c96a4f1dbc4000000006a4730440220305cb233b6996d57d7eca72d1c571dbc867aa7f1f7444ad980cf028e7994bc74022040e31c3d6c2224949ed2e43bbc10c04ede6ac5cf7a33d3cfca6862096437742b012103e96fd7e921b64954bbff1eec73b0331c8c9d27aa70b0520eb36b50019a978f1cffffffff0206f37847000000001976a914d3c96dc04a62f488a3f1b588f74af136469c6fca88aca0860100000000001976a914c70decc68bd86b6a8ae3a13b077af1a7304bdd5b88ac00000000",
  "txid": "2d1eb76559eaba959250bd264583714b835b7190ff2c7eba322e659cb842c422",
  "hash": "2d1eb76559eaba959250bd264583714b835b7190ff2c7eba322e659cb842c422",
  "size": 225,
  "vsize": 225,
  "version": 1,
  "locktime": 0,
  "vin": [
    {
      "txid": "c4dbf1a4963c5055577b4b5b315d3fca3c891aed223e2414dfb33aa36633961c",
      "vout": 0,
      "scriptSig": {
        "asm": "30440220305cb233b6996d57d7eca72d1c571dbc867aa7f1f7444ad980cf028e7994bc74022040e31c3d6c2224949ed2e43bbc10c04ede6ac5cf7a33d3cfca6862096437742b[ALL] 03e96fd7e921b64954bbff1eec73b0331c8c9d27aa70b0520eb36b50019a978f1c",
        "hex": "4730440220305cb233b6996d57d7eca72d1c571dbc867aa7f1f7444ad980cf028e7994bc74022040e31c3d6c2224949ed2e43bbc10c04ede6ac5cf7a33d3cfca6862096437742b012103e96fd7e921b64954bbff1eec73b0331c8c9d27aa70b0520eb36b50019a978f1c"
      },
      "sequence": 4294967295
    }
  ],
  "vout": [
    {
      "value": 11.99108870,
      "n": 0,
      "scriptPubKey": {
        "asm": "OP_DUP OP_HASH160 d3c96dc04a62f488a3f1b588f74af136469c6fca OP_EQUALVERIFY OP_CHECKSIG",
        "hex": "76a914d3c96dc04a62f488a3f1b588f74af136469c6fca88ac",
        "reqSigs": 1,
        "type": "pubkeyhash",
        "addresses": [
          "mzpnB3S31yZRDJFLmTd1ZsWJTtzymL7HsA"
        ]
      }
    },
    {
      "value": 0.00100000,
      "n": 1,
      "scriptPubKey": {
        "asm": "OP_DUP OP_HASH160 c70decc68bd86b6a8ae3a13b077af1a7304bdd5b OP_EQUALVERIFY OP_CHECKSIG",
        "hex": "76a914c70decc68bd86b6a8ae3a13b077af1a7304bdd5b88ac",
        "reqSigs": 1,
        "type": "pubkeyhash",
        "addresses": [
          "myfTSkKCbvNqf231xMR5sVCBTi8VvqfR4y"
        ]
      }
    }
  ],
  "blockhash": "00000000000511f59c43a46be7662179135d0a8102240b0f8d737405a6ad4a62",
  "confirmations": 386413,
  "time": 1453343236,
  "blocktime": 1453343236
}