{
  "hex": "0100000002dd6cee22d848a609df2d316112ca26b569c97c189400ad6f01046d65aa7b5f52000000006a473044022021806c9f0d888862cb6e8eb3952c48499fe4c0bedc4fb3ef20743c418109a23b02206249fceeeb4c2f496a3a48b57087f97e540af465f8b9328919f6f536ba5346ed012103e46fdcbf2062598a221c0e34d0505c270fb77c2c305c40ef0919f8efc0c7f959ffffffffdd6cee22d848a609df2d316112ca26b569c97c189400ad6f01046d65aa7b5f52020000006b483045022100981c9757ddf1280a47e9274fae9ff331a1a5b750c7f0c2a18de0b18413a3121e0220395d8baeb7802f9f3947152098442144946987d6be4065a0febe20bc20ca55df012103e46fdcbf2062598a221c0e34d0505c270fb77c2c305c40ef0919f8efc0c7f959ffffffff0400000000000000000b6a094f4101000263ac4d0058020000000000001976a914e9ac589641f17a2286631c24d6d2d00b8c959eb588ac58020000000000001976a91438a6ebdf20cae2c9287ea014464042112ea3dbfd88ac504e0700000000001976a91438a6ebdf20cae2c9287ea014464042112ea3dbfd88ac00000000",
  "txid": "2ef6aaf051229ff755a137a51466b54da6d8c87d17130bca8a879e9e64172ebd",
  "hash": "2ef6aaf051229ff755a137a51466b54da6d8c87d17130bca8a879e9e64172ebd",
  "size": 427,
  "vsize": 427,
  "version": 1,
  "locktime": 0,
  "vin": [
    {
      "txid": "525f7baa656d04016fad0094187cc969b526ca1261312ddf09a648d822ee6cdd",
      "vout": 0,
      "scriptSig": {
        "asm": "3044022021806c9f0d888862cb6e8eb3952c48499fe4c0bedc4fb3ef20743c418109a23b02206249fceeeb4c2f496a3a48b57087f97e540af465f8b9328919f6f536ba5346ed[ALL] 03e46fdcbf2062598a221c0e34d0505c270fb77c2c305c40ef0919f8efc0c7f959",
        "hex": "473044022021806c9f0d888862cb6e8eb3952c48499fe4c0bedc4fb3ef20743c418109a23b02206249fceeeb4c2f496a3a48b57087f97e540af465f8b9328919f6f536ba5346ed012103e46fdcbf2062598a221c0e34d0505c270fb77c2c305c40ef0919f8efc0c7f959"
      },
      "sequence": 4294967295
    },
    {
      "txid": "525f7baa656d04016fad0094187cc969b526ca1261312ddf09a648d822ee6cdd",
      "vout": 2,
      "scriptSig": {
        "asm": "3045022100981c9757ddf1280a47e9274fae9ff331a1a5b750c7f0c2a18de0b18413a3121e0220395d8baeb7802f9f3947152098442144946987d6be4065a0febe20bc20ca55df[ALL] 03e46fdcbf2062598a221c0e34d0505c270fb77c2c305c40ef0919f8efc0c7f959",
        "hex": "483045022100981c9757ddf1280a47e9274fae9ff331a1a5b750c7f0c2a18de0b18413a3121e0220395d8baeb7802f9f3947152098442144946987d6be4065a0febe20bc20ca55df012103e46fdcbf2062598a221c0e34d0505c270fb77c2c305c40ef0919f8efc0c7f959"
      },
      "sequence": 4294967295
    }
  ],
  "vout": [
    {
      "value": 0.00000000,
      "n": 0,
      "scriptPubKey": {
        "asm": "OP_RETURN 4f4101000263ac4d00",
        "hex": "6a094f4101000263ac4d00",
        "type": "nulldata"
      }
    },
    {
      "value": 0.00000600,
      "n": 1,
      "scriptPubKey": {
        "asm": "OP_DUP OP_HASH160 e9ac589641f17a2286631c24d6d2d00b8c959eb5 OP_EQUALVERIFY OP_CHECKSIG",
        "hex": "76a914e9ac589641f17a2286631c24d6d2d00b8c959eb588ac",
        "reqSigs": 1,
        "type": "pubkeyhash",
        "addresses": [
          "n2pWCZdqdNExDzJ6Rbb1mGor1fFqMj7t1w"
        ]
      }
    },
    {
      "value": 0.00000600,
      "n": 2,
      "scriptPubKey": {
        "asm": "OP_DUP OP_HASH160 38a6ebdf20cae2c9287ea014464042112ea3dbfd OP_EQUALVERIFY OP_CHECKSIG",
        "hex": "76a91438a6ebdf20cae2c9287ea014464042112ea3dbfd88ac",
        "reqSigs": 1,
        "type": "pubkeyhash",
        "addresses": [
          "mkgW6hNYBctmqDtTTsTJrsf2Gh2NPtoCU4"
        ]
      }
    },
    {
      "value": 0.00478800,
      "n": 3,
      "scriptPubKey": {
        "asm": "OP_DUP OP_HASH160 38a6ebdf20cae2c9287ea014464042112ea3dbfd OP_EQUALVERIFY OP_CHECKSIG",
        "hex": "76a91438a6ebdf20cae2c9287ea014464042112ea3dbfd88ac",
        "reqSigs": 1,
        "type": "pubkeyhash",
        "addresses": [
          "mkgW6hNYBctmqDtTTsTJrsf2Gh2NPtoCU4"
        ]
      }
    }
  ],
  "blockhash": "00000000002f539f39793417aadc9d025e06144cf7fd835b641695c4de06a440",
  "confirmations": 427140,
  "time": 1448004331,
  "blocktime": 1448004331
}