{
  "hex": "010000000122c442b89c652e32ba7e2cff90715b834b71834526bd509295baea5965b71e2d000000006b48304502210095b72684aa4a8355f4057d476ac222a683220fa0087ca99d2efcea0149ff1287022014c77b8f9e0d0f457792f562a09517d752cde5c7d7b941c5ad33a95fe471b66b012103e96fd7e921b64954bbff1eec73b0331c8c9d27aa70b0520eb36b50019a978f1cffffffff0256457747000000001976a914d3c96dc04a62f488a3f1b588f74af136469c6fca88aca0860100000000001976a9147d8dd16cc3413a64a9964c91cb0ee9358ab1dff688ac00000000",
  "txid": "308ea73b45bef1428acb41f996543d6ebd534dca8f5de965e7f00eae084aaa5c",
  "hash": "308ea73b45bef1428acb41f996543d6ebd534dca8f5de965e7f00eae084aaa5c",
  "size": 226,
  "vsize": 226,
  "version": 1,
  "locktime": 0,
  "vin": [
    {
      "txid": "2d1eb76559eaba959250bd264583714b835b7190ff2c7eba322e659cb842c422",
      "vout": 0,
      "scriptSig": {
        "asm": "304502210095b72684aa4a8355f4057d476ac222a683220fa0087ca99d2efcea0149ff1287022014c77b8f9e0d0f457792f562a09517d752cde5c7d7b941c5ad33a95fe471b66b[ALL] 03e96fd7e921b64954bbff1eec73b0331c8c9d27aa70b0520eb36b50019a978f1c",
        "hex": "48304502210095b72684aa4a8355f4057d476ac222a683220fa0087ca99d2efcea0149ff1287022014c77b8f9e0d0f457792f562a09517d752cde5c7d7b941c5ad33a95fe471b66b012103e96fd7e921b64954bbff1eec73b0331c8c9d27aa70b0520eb36b50019a978f1c"
      },
      "sequence": 4294967295
    }
  ],
  "vout": [
    {
      "value": 11.98998870,
      "n": 0,
      "scriptPubKey": {
        "asm": "OP_DUP OP_HASH160 d3c96dc04a62f488a3f1b588f74af136469c6fca OP_EQUALVERIFY OP_CHECKSIG",
        "hex": "76a914d3c96dc04a62f488a3f1b588f74af136469c6fca88ac",
        "reqSigs": 1,
        "type": "pubkeyhash",
        "addresses": [
          "mzpnB3S31yZRDJFLmTd1ZsWJTtzymL7HsA"
        ]
      }
    },
    {
      "value": 0.00100000,
      "n": 1,
      "scriptPubKey": {
        "asm": "OP_DUP OP_HASH160 7d8dd16cc3413a64a9964c91cb0ee9358ab1dff6 OP_EQUALVERIFY OP_CHECKSIG",
        "hex": "76a9147d8dd16cc3413a64a9964c91cb0ee9358ab1dff688ac",
        "reqSigs": 1,
        "type": "pubkeyhash",
        "addresses": [
          "mrxpeizRrF8ymNx5FrvcGGZVecZjtUFVP3"
        ]
      }
    }
  ],
  "blockhash": "000000000004b69c802bd00c5f7b49a6808fe8a4cb2d95a3906bd028e6a89af4",
  "confirmations": 386401,
  "time": 1453345274,
  "blocktime": 1453345274
}