{
  "hex": "01000000011c963366a33ab3df14243e22ed1a893cca3f5d315b4b7b5755503c96a4f1dbc4010000006b48304502210089b69fa58bf02bffa9399aa4328e3f9816d4041f4b2a0b8e00c0d1ad37c5cfbe022029423551060bedb943f5ff1ff1c4e91cfc7fdbc21d5035c580cfc4ef4b2156810121033917dfab0a99833380034fa77159a812feb8333382e53075b88dcbebfde7cc49ffffffff0358020000000000001976a914a938dad89bbd964cbaf5d9059e0bda1d900ce08388ac0000000000000000216a1f4f41010001e80717753d68747470733a2f2f676f6f2e676c2f755667737434385d0100000000001976a914a938dad89bbd964cbaf5d9059e0bda1d900ce08388ac00000000",
  "txid": "370c210cffdff21b0e59560f11308faabb985357bc57778ebb11ddbfb0d2b7ba",
  "hash": "370c210cffdff21b0e59560f11308faabb985357bc57778ebb11ddbfb0d2b7ba",
  "size": 268,
  "vsize": 268,
  "version": 1,
  "locktime": 0,
  "vin": [
    {
      "txid": "c4dbf1a4963c5055577b4b5b315d3fca3c891aed223e2414dfb33aa36633961c",
      "vout": 1,
      "scriptSig": {
        "asm": "304502210089b69fa58bf02bffa9399aa4328e3f9816d4041f4b2a0b8e00c0d1ad37c5cfbe022029423551060bedb943f5ff1ff1c4e91cfc7fdbc21d5035c580cfc4ef4b215681[ALL] 033917dfab0a99833380034fa77159a812feb8333382e53075b88dcbebfde7cc49",
        "hex": "48304502210089b69fa58bf02bffa9399aa4328e3f9816d4041f4b2a0b8e00c0d1ad37c5cfbe022029423551060bedb943f5ff1ff1c4e91cfc7fdbc21d5035c580cfc4ef4b2156810121033917dfab0a99833380034fa77159a812feb8333382e53075b88dcbebfde7cc49"
      },
      "sequence": 4294967295
    }
  ],
  "vout": [
    {
      "value": 0.00000600,
      "n": 0,
      "scriptPubKey": {
        "asm": "OP_DUP OP_HASH160 a938dad89bbd964cbaf5d9059e0bda1d900ce083 OP_EQUALVERIFY OP_CHECKSIG",
        "hex": "76a914a938dad89bbd964cbaf5d9059e0bda1d900ce08388ac",
        "reqSigs": 1,
        "type": "pubkeyhash",
        "addresses": [
          "mvwibpSmnXw7pG3AjW5Tt9Ufe5GL2rTJd1"
        ]
      }
    },
    {
      "value": 0.00000000,
      "n": 1,
      "scriptPubKey": {
        "asm": "OP_RETURN 4f41010001e80717753d68747470733a2f2f676f6f2e676c2f755667737434",
        "hex": "6a1f4f41010001e80717753d68747470733a2f2f676f6f2e676c2f755667737434",
        "type": "nulldata"
      }
    },
    {
      "value": 0.00089400,
      "n": 2,
      "scriptPubKey": {
        "asm": "OP_DUP OP_HASH160 a938dad89bbd964cbaf5d9059e0bda1d900ce083 OP_EQUALVERIFY OP_CHECKSIG",
        "hex": "76a914a938dad89bbd964cbaf5d9059e0bda1d900ce08388ac",
        "reqSigs": 1,
        "type": "pubkeyhash",
        "addresses": [
          "mvwibpSmnXw7pG3AjW5Tt9Ufe5GL2rTJd1"
        ]
      }
    }
  ],
  "blockhash": "00000000000511f59c43a46be7662179135d0a8102240b0f8d737405a6ad4a62",
  "confirmations": 386413,
  "time": 1453343236,
  "blocktime": 1453343236
}