{
  "hex": "01000000022a06e3f9bcf491143d23b1446585778fd316d88908b35f5faf86981b803e8764020000006a47304402206f03f9c51d68af384411a17de35df3cfe20ba6fa0546a17a7651f1e2ea72ae43022045358a7d7c7637d964b367cea526bd63f3817a8729f221f1856b1d992ca71b33012102544912ce55bcab484f5d2ba0f54c420160f37c3978b68b0fa67cc92417739b3effffffff2a06e3f9bcf491143d23b1446585778fd316d88908b35f5faf86981b803e8764030000006b483045022100bb6f5d76f7d61c068dcd8fc077a3afe85e890f41442368212a36a6acfeed25fb0220337a5fa68e676ff5231c7c33ba31119f2eb77935795f078ddb5489f37725b9e2012102544912ce55bcab484f5d2ba0f54c420160f37c3978b68b0fa67cc92417739b3effffffff0400000000000000000a6a084f4101000201020058020000000000001976a91424b3d405bc60bd9628691fe28bb00f6800e1480688ac58020000000000001976a914b7218fe503cd18555255e5b13d4f07f3fd00d0c988ac78310100000000001976a914b7218fe503cd18555255e5b13d4f07f3fd00d0c988ac00000000",
  "txid": "3fba8bfb157ae29c293d5bd65c178fec169a87f880e2e62537fcce26612a6aa3",
  "size": 426,
  "version": 1,
  "locktime": 0,
  "vin": [
    {
      "txid": "64873e801b9886af5f5fb30889d816d38f77856544b1233d1491f4bcf9e3062a",
      "vout": 2,
      "scriptSig": {
        "asm": "304402206f03f9c51d68af384411a17de35df3cfe20ba6fa0546a17a7651f1e2ea72ae43022045358a7d7c7637d964b367cea526bd63f3817a8729f221f1856b1d992ca71b33[ALL] 02544912ce55bcab484f5d2ba0f54c420160f37c3978b68b0fa67cc92417739b3e",
        "hex": "47304402206f03f9c51d68af384411a17de35df3cfe20ba6fa0546a17a7651f1e2ea72ae43022045358a7d7c7637d964b367cea526bd63f3817a8729f221f1856b1d992ca71b33012102544912ce55bcab484f5d2ba0f54c420160f37c3978b68b0fa67cc92417739b3e"
      },
      "sequence": 4294967295
    },
    {
      "txid": "64873e801b9886af5f5fb30889d816d38f77856544b1233d1491f4bcf9e3062a",
      "vout": 3,
      "scriptSig": {
        "asm": "3045022100bb6f5d76f7d61c068dcd8fc077a3afe85e890f41442368212a36a6acfeed25fb0220337a5fa68e676ff5231c7c33ba31119f2eb77935795f078ddb5489f37725b9e2[ALL] 02544912ce55bcab484f5d2ba0f54c420160f37c3978b68b0fa67cc92417739b3e",
        "hex": "483045022100bb6f5d76f7d61c068dcd8fc077a3afe85e890f41442368212a36a6acfeed25fb0220337a5fa68e676ff5231c7c33ba31119f2eb77935795f078ddb5489f37725b9e2012102544912ce55bcab484f5d2ba0f54c420160f37c3978b68b0fa67cc92417739b3e"
      },
      "sequence": 4294967295
    }
  ],
  "vout": [
    {
      "value": 0.00000000,
      "n": 0,
      "scriptPubKey": {
        "asm": "OP_RETURN 4f41010002010200",
        "hex": "6a084f41010002010200",
        "type": "nulldata"
      }
    },
    {
      "value": 0.00000600,
      "n": 1,
      "scriptPubKey": {
        "asm": "OP_DUP OP_HASH160 24b3d405bc60bd9628691fe28bb00f6800e14806 OP_EQUALVERIFY OP_CHECKSIG",
        "hex": "76a91424b3d405bc60bd9628691fe28bb00f6800e1480688ac",
        "reqSigs": 1,
        "type": "pubkeyhash",
        "addresses": [
          "14M4kbAtn71P1nnNYuhBDFTNYxa19t1XP6"
        ]
      }
    },
    {
      "value": 0.00000600,
      "n": 2,
      "scriptPubKey": {
        "asm": "OP_DUP OP_HASH160 b7218fe503cd18555255e5b13d4f07f3fd00d0c9 OP_EQUALVERIFY OP_CHECKSIG",
        "hex": "76a914b7218fe503cd18555255e5b13d4f07f3fd00d0c988ac",
        "reqSigs": 1,
        "type": "pubkeyhash",
        "addresses": [
          "1HhJs3JgbiyxC8ktfi6nU4wTqVmrMtCVkG"
        ]
      }
    },
    {
      "value": 0.00078200,
      "n": 3,
      "scriptPubKey": {
        "asm": "OP_DUP OP_HASH160 b7218fe503cd18555255e5b13d4f07f3fd00d0c9 OP_EQUALVERIFY OP_CHECKSIG",
        "hex": "76a914b7218fe503cd18555255e5b13d4f07f3fd00d0c988ac",
        "reqSigs": 1,
        "type": "pubkeyhash",
        "addresses": [
          "1HhJs3JgbiyxC8ktfi6nU4wTqVmrMtCVkG"
        ]
      }
    }
  ],
  "blockhash": "000000000000000004d41c8d7a428053fa8168dd0002377a67619a0a98a21080",
  "confirmations": 78336,
  "time": 1434018489,
  "blocktime": 1434018489
}