{
  "hex": "01000000013ec08e09fc2f1dd5af32950ffc23f598d487f38684932183c3c22025e3f06bd7020000006a473044022017b2301284b7df7184f82f9324dbe8ff4ce8f4296fc88879a68bbd74ed18d4020220766894d515acf4bae87973897ce2eecadd4b4a2e1b54c571f2548e5f69c68bdc01210292ee82d9add0512294723f2c363aee24efdeb3f258cdaf5118a4fcf5263e92c9ffffffff03580200000000000017a914c590a1c93975aec75157e33ad904a74d2934e9d58700000000000000000b6a094f41010001d086030090b00000000000001976a91446c2fbfbecc99a63148fa076de58cf29b0bcf0b088ac00000000",
  "txid": "43a3852b2cf2cef30720933c834edfabdb05cdd73a11583fd0d2f02cff8ad8d6",
  "hash": "43a3852b2cf2cef30720933c834edfabdb05cdd73a11583fd0d2f02cff8ad8d6",
  "size": 243,
  "vsize": 243,
  "version": 1,
  "locktime": 0,
  "vin": [
    {
      "txid": "d76bf0e32520c2c38321938486f387d498f523fc0f9532afd51d2ffc098ec03e",
      "vout": 2,
      "scriptSig": {
        "asm": "3044022017b2301284b7df7184f82f9324dbe8ff4ce8f4296fc88879a68bbd74ed18d4020220766894d515acf4bae87973897ce2eecadd4b4a2e1b54c571f2548e5f69c68bdc[ALL] 0292ee82d9add0512294723f2c363aee24efdeb3f258cdaf5118a4fcf5263e92c9",
        "hex": "473044022017b2301284b7df7184f82f9324dbe8ff4ce8f4296fc88879a68bbd74ed18d4020220766894d515acf4bae87973897ce2eecadd4b4a2e1b54c571f2548e5f69c68bdc01210292ee82d9add0512294723f2c363aee24efdeb3f258cdaf5118a4fcf5263e92c9"
      },
      "sequence": 4294967295
    }
  ],
  "vout": [
    {
      "value": 0.00000600,
      "n": 0,
      "scriptPubKey": {
        "asm": "OP_HASH160 c590a1c93975aec75157e33ad904a74d2934e9d5 OP_EQUAL",
        "hex": "a914c590a1c93975aec75157e33ad904a74d2934e9d587",
        "reqSigs": 1,
        "type": "scripthash",
        "addresses": [
          "2NBFrNHDikgwjHoMmgJZdsNdB92PpotmaHk"
        ]
      }
    },
    {
      "value": 0.00000000,
      "n": 1,
      "scriptPubKey": {
        "asm": "OP_RETURN 4f41010001d0860300",
        "hex": "6a094f41010001d0860300",
        "type": "nulldata"
      }
    },
    {
      "value": 0.00045200,
      "n": 2,
      "scriptPubKey": {
        "asm": "OP_DUP OP_HASH160 46c2fbfbecc99a63148fa076de58cf29b0bcf0b0 OP_EQUALVERIFY OP_CHECKSIG",
        "hex": "76a91446c2fbfbecc99a63148fa076de58cf29b0bcf0b088ac",
        "reqSigs": 1,
        "type": "pubkeyhash",
        "addresses": [
          "mmy7BEH1SUGAeSVUR22pt5hPaejo2645F1"
        ]
      }
    }
  ],
  "blockhash": "00000000000002c1a26576375f85f1ca86bc4902a1370091d6713dcad1ddc443",
  "confirmations": 63544,
  "time": 1475761239,
  "blocktime": 1475761239
}