{
  "hex": "0100000002daf4aac18a09390ba73aa0a905e13c55d721e6b133d4a3fd352506803e99020c010000006a473044022005cc3cb8b9836bffeda462246f04568bff00b54b4c39cc958aba45c322caa6e102206c6611b89b958e05f3a6e0b274078145e907d4ecd7b8e3c31717efb918846ed3012102544912ce55bcab484f5d2ba0f54c420160f37c3978b68b0fa67cc92417739b3effffffffbbc88ecebb508c2fccd29d9f0e76d059bb532c208531ea33c0053013fefdf597030000006a47304402200e63bef956ee05751faf4e2d7dd82d626905ee34d9652d551557b222045a0a8c02201610d427d9a2dfdbbb238d2769a14803549c312e0aef06620fef5f421c8698ab012102544912ce55bcab484f5d2ba0f54c420160f37c3978b68b0fa67cc92417739b3effffffff0400000000000000000a6a084f4101000201180058020000000000001976a91424b3d405bc60bd9628691fe28bb00f6800e1480688ac58020000000000001976a914b7218fe503cd18555255e5b13d4f07f3fd00d0c988aca8de0000000000001976a914b7218fe503cd18555255e5b13d4f07f3fd00d0c988ac00000000",
  "txid": "44bf414521d4a0deb60dada4ac0bd9823286d8269cb9c074add3a6844bfa42df",
  "size": 425,
  "version": 1,
  "locktime": 0,
  "vin": [
    {
      "txid": "0c02993e80062535fda3d433b1e621d7553ce105a9a03aa70b39098ac1aaf4da",
      "vout": 1,
      "scriptSig": {
        "asm": "3044022005cc3cb8b9836bffeda462246f04568bff00b54b4c39cc958aba45c322caa6e102206c6611b89b958e05f3a6e0b274078145e907d4ecd7b8e3c31717efb918846ed3[ALL] 02544912ce55bcab484f5d2ba0f54c420160f37c3978b68b0fa67cc92417739b3e",
        "hex": "473044022005cc3cb8b9836bffeda462246f04568bff00b54b4c39cc958aba45c322caa6e102206c6611b89b958e05f3a6e0b274078145e907d4ecd7b8e3c31717efb918846ed3012102544912ce55bcab484f5d2ba0f54c420160f37c3978b68b0fa67cc92417739b3e"
      },
      "sequence": 4294967295
    },
    {
      "txid": "97f5fdfe133005c033ea3185202c53bb59d0760e9f9dd2cc2f8c50bbce8ec8bb",
      "vout": 3,
      "scriptSig": {
        "asm": "304402200e63bef956ee05751faf4e2d7dd82d626905ee34d9652d551557b222045a0a8c02201610d427d9a2dfdbbb238d2769a14803549c312e0aef06620fef5f421c8698ab[ALL] 02544912ce55bcab484f5d2ba0f54c420160f37c3978b68b0fa67cc92417739b3e",
        "hex": "47304402200e63bef956ee05751faf4e2d7dd82d626905ee34d9652d551557b222045a0a8c02201610d427d9a2dfdbbb238d2769a14803549c312e0aef06620fef5f421c8698ab012102544912ce55bcab484f5d2ba0f54c420160f37c3978b68b0fa67cc92417739b3e"
      },
      "sequence": 4294967295
    }
  ],
  "vout": [
    {
      "value": 0.00000000,
      "n": 0,
      "scriptPubKey": {
        "asm": "OP_RETURN 4f41010002011800",
        "hex": "6a084f41010002011800",
        "type": "nulldata"
      }
    },
    {
      "value": 0.00000600,
      "n": 1,
      "scriptPubKey": {
        "asm": "OP_DUP OP_HASH160 24b3d405bc60bd9628691fe28bb00f6800e14806 OP_EQUALVERIFY OP_CHECKSIG",
        "hex": "76a91424b3d405bc60bd9628691fe28bb00f6800e1480688ac",
        "reqSigs": 1,
        "type": "pubkeyhash",
        "addresses": [
          "14M4kbAtn71P1nnNYuhBDFTNYxa19t1XP6"
        ]
      }
    },
    {
      "value": 0.00000600,
      "n": 2,
      "scriptPubKey": {
        "asm": "OP_DUP OP_HASH160 b7218fe503cd18555255e5b13d4f07f3fd00d0c9 OP_EQUALVERIFY OP_CHECKSIG",
        "hex": "76a914b7218fe503cd18555255e5b13d4f07f3fd00d0c988ac",
        "reqSigs": 1,
        "type": "pubkeyhash",
        "addresses": [
          "1HhJs3JgbiyxC8ktfi6nU4wTqVmrMtCVkG"
        ]
      }
    },
    {
      "value": 0.00057000,
      "n": 3,
      "scriptPubKey": {
        "asm": "OP_DUP OP_HASH160 b7218fe503cd18555255e5b13d4f07f3fd00d0c9 OP_EQUALVERIFY OP_CHECKSIG",
        "hex": "76a914b7218fe503cd18555255e5b13d4f07f3fd00d0c988ac",
        "reqSigs": 1,
        "type": "pubkeyhash",
        "addresses": [
          "1HhJs3JgbiyxC8ktfi6nU4wTqVmrMtCVkG"
        ]
      }
    }
  ],
  "blockhash": "00000000000000000f59477517f4b33dffcfaeffc42a06a586f3b58dffd7e356",
  "confirmations": 78129,
  "time": 1434151788,
  "blocktime": 1434151788
}