{
  "hex": "010000000329f810e2b6698a7664433ab2d05cfcbd3d28d53dbabc42eb4023bef941d8ab90000000006a4730440220212bf646d8750679512d5cf74cfe4c4d5adb98de070335e4442da12624df4752022044f4ec5809598b0c701009c40d494addb6a4d71ebbffb685e24efbd646bd2f1c02210292ee82d9add0512294723f2c363aee24efdeb3f258cdaf5118a4fcf5263e92c9ffffffff9ad57c0bfb3611b5ca7e0e2779fe07dcf01dbe9489076e33bbd5aed05d2921dd000000006a47304402201c5c32d83538cb002a282b7e877a527a84000507575c7af492356a29e74a506b02201a08c1d344887d00505652d6ba57241dee8892f3392f78d5f0331f551155642d0221035456a125cc30113748de2fff4a7bf93981876a690e1738fad91d14465be2c728ffffffff29f810e2b6698a7664433ab2d05cfcbd3d28d53dbabc42eb4023bef941d8ab90020000006a4730440220502133e0635b9f250254d80c9b2d196e4b53f89db83375c9210b5aebb396a493022004fe935cc38de3df4b53f407ecb45069a9a0a25111cddb326090ed557dff324302210292ee82d9add0512294723f2c363aee24efdeb3f258cdaf5118a4fcf5263e92c9ffffffff060000000000000000106a0e4f41010004ac02bc059003d8040058020000000000001976a914ce5807e32919e3e3df9806d03bd509207730e1a188ac58020000000000001976a91446c2fbfbecc99a63148fa076de58cf29b0bcf0b088ac58020000000000001976a91446c2fbfbecc99a63148fa076de58cf29b0bcf0b088ac58020000000000001976a914ce5807e32919e3e3df9806d03bd509207730e1a188acc82c0100000000001976a91446c2fbfbecc99a63148fa076de58cf29b0bcf0b088ac00000000",
  "txid": "45aab69abf0ed2d856f4405b0e5e676cd9381faf07e1ec766ef7884c32142b09",
  "hash": "45aab69abf0ed2d856f4405b0e5e676cd9381faf07e1ec766ef7884c32142b09",
  "size": 646,
  "vsize": 646,
  "version": 1,
  "locktime": 0,
  "vin": [
    {
      "txid": "90abd841f9be2340eb42bcba3dd5283dbdfc5cd0b23a4364768a69b6e210f829",
      "vout": 0,
      "scriptSig": {
        "asm": "30440220212bf646d8750679512d5cf74cfe4c4d5adb98de070335e4442da12624df4752022044f4ec5809598b0c701009c40d494addb6a4d71ebbffb685e24efbd646bd2f1c[NONE] 0292ee82d9add0512294723f2c363aee24efdeb3f258cdaf5118a4fcf5263e92c9",
        "hex": "4730440220212bf646d8750679512d5cf74cfe4c4d5adb98de070335e4442da12624df4752022044f4ec5809598b0c701009c40d494addb6a4d71ebbffb685e24efbd646bd2f1c02210292ee82d9add0512294723f2c363aee24efdeb3f258cdaf5118a4fcf5263e92c9"
      },
      "sequence": 4294967295
    },
    {
      "txid": "dd21295dd0aed5bb336e078994be1df0dc07fe79270e7ecab51136fb0b7cd59a",
      "vout": 0,
      "scriptSig": {
        "asm": "304402201c5c32d83538cb002a282b7e877a527a84000507575c7af492356a29e74a506b02201a08c1d344887d00505652d6ba57241dee8892f3392f78d5f0331f551155642d[NONE] 035456a125cc30113748de2fff4a7bf93981876a690e1738fad91d14465be2c728",
        "hex": "47304402201c5c32d83538cb002a282b7e877a527a84000507575c7af492356a29e74a506b02201a08c1d344887d00505652d6ba57241dee8892f3392f78d5f0331f551155642d0221035456a125cc30113748de2fff4a7bf93981876a690e1738fad91d14465be2c728"
      },
      "sequence": 4294967295
    },
    {
      "txid": "90abd841f9be2340eb42bcba3dd5283dbdfc5cd0b23a4364768a69b6e210f829",
      "vout": 2,
      "scriptSig": {
        "asm": "30440220502133e0635b9f250254d80c9b2d196e4b53f89db83375c9210b5aebb396a493022004fe935cc38de3df4b53f407ecb45069a9a0a25111cddb326090ed557dff3243[NONE] 0292ee82d9add0512294723f2c363aee24efdeb3f258cdaf5118a4fcf5263e92c9",
        "hex": "4730440220502133e0635b9f250254d80c9b2d196e4b53f89db83375c9210b5aebb396a493022004fe935cc38de3df4b53f407ecb45069a9a0a25111cddb326090ed557dff324302210292ee82d9add0512294723f2c363aee24efdeb3f258cdaf5118a4fcf5263e92c9"
      },
      "sequence": 4294967295
    }
  ],
  "vout": [
    {
      "value": 0.00000000,
      "n": 0,
      "scriptPubKey": {
        "asm": "OP_RETURN 4f41010004ac02bc059003d80400",
        "hex": "6a0e4f41010004ac02bc059003d80400",
        "type": "nulldata"
      }
    },
    {
      "value": 0.00000600,
      "n": 1,
      "scriptPubKey": {
        "asm": "OP_DUP OP_HASH160 ce5807e32919e3e3df9806d03bd509207730e1a1 OP_EQUALVERIFY OP_CHECKSIG",
        "hex": "76a914ce5807e32919e3e3df9806d03bd509207730e1a188ac",
        "reqSigs": 1,
        "type": "pubkeyhash",
        "addresses": [
          "mzKzx4NheRX3PmqprDnD8UUoXjTX7RqVeL"
        ]
      }
    },
    {
      "value": 0.00000600,
      "n": 2,
      "scriptPubKey": {
        "asm": "OP_DUP OP_HASH160 46c2fbfbecc99a63148fa076de58cf29b0bcf0b0 OP_EQUALVERIFY OP_CHECKSIG",
        "hex": "76a91446c2fbfbecc99a63148fa076de58cf29b0bcf0b088ac",
        "reqSigs": 1,
        "type": "pubkeyhash",
        "addresses": [
          "mmy7BEH1SUGAeSVUR22pt5hPaejo2645F1"
        ]
      }
    },
    {
      "value": 0.00000600,
      "n": 3,
      "scriptPubKey": {
        "asm": "OP_DUP OP_HASH160 46c2fbfbecc99a63148fa076de58cf29b0bcf0b0 OP_EQUALVERIFY OP_CHECKSIG",
        "hex": "76a91446c2fbfbecc99a63148fa076de58cf29b0bcf0b088ac",
        "reqSigs": 1,
        "type": "pubkeyhash",
        "addresses": [
          "mmy7BEH1SUGAeSVUR22pt5hPaejo2645F1"
        ]
      }
    },
    {
      "value": 0.00000600,
      "n": 4,
      "scriptPubKey": {
        "asm": "OP_DUP OP_HASH160 ce5807e32919e3e3df9806d03bd509207730e1a1 OP_EQUALVERIFY OP_CHECKSIG",
        "hex": "76a914ce5807e32919e3e3df9806d03bd509207730e1a188ac",
        "reqSigs": 1,
        "type": "pubkeyhash",
        "addresses": [
          "mzKzx4NheRX3PmqprDnD8UUoXjTX7RqVeL"
        ]
      }
    },
    {
      "value": 0.00077000,
      "n": 5,
      "scriptPubKey": {
        "asm": "OP_DUP OP_HASH160 46c2fbfbecc99a63148fa076de58cf29b0bcf0b0 OP_EQUALVERIFY OP_CHECKSIG",
        "hex": "76a91446c2fbfbecc99a63148fa076de58cf29b0bcf0b088ac",
        "reqSigs": 1,
        "type": "pubkeyhash",
        "addresses": [
          "mmy7BEH1SUGAeSVUR22pt5hPaejo2645F1"
        ]
      }
    }
  ],
  "blockhash": "0000000000892dfacea8f960487d3d81507b920d78c08570e350f0341c051979",
  "confirmations": 127715,
  "time": 1469697169,
  "blocktime": 1469697169
}