{
  "hex": "0100000001742471c85c1ea03c79da272fa3b62b9537c260917be1d5dbb783ea8c0652ca3b000000006a473044022045f8af3f915d4c8b9ca6aa281247a1484ec19260ecdf4f57c0d52160e7b240d20220509857ae2348860ab9d4db4da12536a19d1dffbf4f4688d334954c5d04533b52012103da05e349a9c676e66efe78fa6603d8667dcd94e213e827a0ca61a143a9f3677cffffffff0358020000000000001976a914a4d91666eb7cc21a3fff959861a629354e4275b288ac00000000000000001d6a1b4f41010001b96013753d687474703a2f2f676f6f676c652e636f6d78caae06000000001976a914a4d91666eb7cc21a3fff959861a629354e4275b288ac00000000",
  "txid": "4cf37617ed99b246724067991346c31734f4147288d963a485c81f25b3572a89",
  "hash": "4cf37617ed99b246724067991346c31734f4147288d963a485c81f25b3572a89",
  "size": 263,
  "vsize": 263,
  "version": 1,
  "locktime": 0,
  "vin": [
    {
      "txid": "3bca52068cea83b7dbd5e17b9160c237952bb6a32f27da793ca01e5cc8712474",
      "vout": 0,
      "scriptSig": {
        "asm": "3044022045f8af3f915d4c8b9ca6aa281247a1484ec19260ecdf4f57c0d52160e7b240d20220509857ae2348860ab9d4db4da12536a19d1dffbf4f4688d334954c5d04533b52[ALL] 03da05e349a9c676e66efe78fa6603d8667dcd94e213e827a0ca61a143a9f3677c",
        "hex": "473044022045f8af3f915d4c8b9ca6aa281247a1484ec19260ecdf4f57c0d52160e7b240d20220509857ae2348860ab9d4db4da12536a19d1dffbf4f4688d334954c5d04533b52012103da05e349a9c676e66efe78fa6603d8667dcd94e213e827a0ca61a143a9f3677c"
      },
      "sequence": 4294967295
    }
  ],
  "vout": [
    {
      "value": 0.00000600,
      "n": 0,
      "scriptPubKey": {
        "asm": "OP_DUP OP_HASH160 a4d91666eb7cc21a3fff959861a629354e4275b2 OP_EQUALVERIFY OP_CHECKSIG",
        "hex": "76a914a4d91666eb7cc21a3fff959861a629354e4275b288ac",
        "reqSigs": 1,
        "type": "pubkeyhash",
        "addresses": [
          "mvYbB238p3rFYFjM56cHhNNHeQb5ypQJ3T"
        ]
      }
    },
    {
      "value": 0.00000000,
      "n": 1,
      "scriptPubKey": {
        "asm": "OP_RETURN 4f41010001b96013753d687474703a2f2f676f6f676c652e636f6d",
        "hex": "6a1b4f41010001b96013753d687474703a2f2f676f6f676c652e636f6d",
        "type": "nulldata"
      }
    },
    {
      "value": 1.12118392,
      "n": 2,
      "scriptPubKey": {
        "asm": "OP_DUP OP_HASH160 a4d91666eb7cc21a3fff959861a629354e4275b2 OP_EQUALVERIFY OP_CHECKSIG",
        "hex": "76a914a4d91666eb7cc21a3fff959861a629354e4275b288ac",
        "reqSigs": 1,
        "type": "pubkeyhash",
        "addresses": [
          "mvYbB238p3rFYFjM56cHhNNHeQb5ypQJ3T"
        ]
      }
    }
  ],
  "blockhash": "000000000000f346d05d1f2741b54d08a00151afb96e9145446e486c94eef2c6",
  "confirmations": 170316,
  "time": 1463720283,
  "blocktime": 1463720283
}