{
  "hex": "0100000001d6d88aff2cf0d2d03f58113ad7cd05dbabdf4e833c932007f3cef22c2b85a343020000006b483045022100c952402beeb36dc0a0065d154acc84b9c734250689badfd5daf8b5f2cadf89c7022044c80b4bd092af9d963342a21a8c6eced9dbf22319a7a8b186259219dc1de54001210292ee82d9add0512294723f2c363aee24efdeb3f258cdaf5118a4fcf5263e92c9ffffffff03580200000000000017a914c590a1c93975aec75157e33ad904a74d2934e9d58700000000000000000a6a084f41010001b32b0028870000000000001976a91446c2fbfbecc99a63148fa076de58cf29b0bcf0b088ac00000000",
  "txid": "4d2a27293ec0b268c0f21952a9c4760dac3b8999bffcbc59a2126d06344a26e2",
  "hash": "4d2a27293ec0b268c0f21952a9c4760dac3b8999bffcbc59a2126d06344a26e2",
  "size": 243,
  "vsize": 243,
  "version": 1,
  "locktime": 0,
  "vin": [
    {
      "txid": "43a3852b2cf2cef30720933c834edfabdb05cdd73a11583fd0d2f02cff8ad8d6",
      "vout": 2,
      "scriptSig": {
        "asm": "3045022100c952402beeb36dc0a0065d154acc84b9c734250689badfd5daf8b5f2cadf89c7022044c80b4bd092af9d963342a21a8c6eced9dbf22319a7a8b186259219dc1de540[ALL] 0292ee82d9add0512294723f2c363aee24efdeb3f258cdaf5118a4fcf5263e92c9",
        "hex": "483045022100c952402beeb36dc0a0065d154acc84b9c734250689badfd5daf8b5f2cadf89c7022044c80b4bd092af9d963342a21a8c6eced9dbf22319a7a8b186259219dc1de54001210292ee82d9add0512294723f2c363aee24efdeb3f258cdaf5118a4fcf5263e92c9"
      },
      "sequence": 4294967295
    }
  ],
  "vout": [
    {
      "value": 0.00000600,
      "n": 0,
      "scriptPubKey": {
        "asm": "OP_HASH160 c590a1c93975aec75157e33ad904a74d2934e9d5 OP_EQUAL",
        "hex": "a914c590a1c93975aec75157e33ad904a74d2934e9d587",
        "reqSigs": 1,
        "type": "scripthash",
        "addresses": [
          "2NBFrNHDikgwjHoMmgJZdsNdB92PpotmaHk"
        ]
      }
    },
    {
      "value": 0.00000000,
      "n": 1,
      "scriptPubKey": {
        "asm": "OP_RETURN 4f41010001b32b00",
        "hex": "6a084f41010001b32b00",
        "type": "nulldata"
      }
    },
    {
      "value": 0.00034600,
      "n": 2,
      "scriptPubKey": {
        "asm": "OP_DUP OP_HASH160 46c2fbfbecc99a63148fa076de58cf29b0bcf0b0 OP_EQUALVERIFY OP_CHECKSIG",
        "hex": "76a91446c2fbfbecc99a63148fa076de58cf29b0bcf0b088ac",
        "reqSigs": 1,
        "type": "pubkeyhash",
        "addresses": [
          "mmy7BEH1SUGAeSVUR22pt5hPaejo2645F1"
        ]
      }
    }
  ],
  "blockhash": "00000000000002a71afd846bf76654fe9f54a199436d59858badbcb236c2cba5",
  "confirmations": 63338,
  "time": 1475828777,
  "blocktime": 1475828777
}