{
  "hex": "0100000001181fbb20375c941384069fdefd739c8e14fa40490a335607da6ea912f4383cab010000006a47304402205ddd66e0e59e3d377298a5ce2ece08804a49e0ca55215c0500e00871f75390ad0220452f91c7beea5b20b0b6c23f0dc3294ed36dbffec15dd8294cdf31d683ea5f850121024126e617f993a6fd24bb344a6c13f16f20bea4c74e451232fea494a8b53516cdffffffff0358020000000000001976a914147b897573a9586f64320d29c7780f383d00f06d88ac0000000000000000216a1f4f41010001890617753d68747470733a2f2f676f6f2e676c2f36704e503237e8990000000000001976a914147b897573a9586f64320d29c7780f383d00f06d88ac00000000",
  "txid": "5004b6e4108ff2e39112e7b9fa596f225086373d33a1839af3e027a1cd259872",
  "hash": "5004b6e4108ff2e39112e7b9fa596f225086373d33a1839af3e027a1cd259872",
  "size": 267,
  "vsize": 267,
  "version": 1,
  "locktime": 0,
  "vin": [
    {
      "txid": "ab3c38f412a96eda0756330a4940fa148e9c73fdde9f068413945c3720bb1f18",
      "vout": 1,
      "scriptSig": {
        "asm": "304402205ddd66e0e59e3d377298a5ce2ece08804a49e0ca55215c0500e00871f75390ad0220452f91c7beea5b20b0b6c23f0dc3294ed36dbffec15dd8294cdf31d683ea5f85[ALL] 024126e617f993a6fd24bb344a6c13f16f20bea4c74e451232fea494a8b53516cd",
        "hex": "47304402205ddd66e0e59e3d377298a5ce2ece08804a49e0ca55215c0500e00871f75390ad0220452f91c7beea5b20b0b6c23f0dc3294ed36dbffec15dd8294cdf31d683ea5f850121024126e617f993a6fd24bb344a6c13f16f20bea4c74e451232fea494a8b53516cd"
      },
      "sequence": 4294967295
    }
  ],
  "vout": [
    {
      "value": 0.00000600,
      "n": 0,
      "scriptPubKey": {
        "asm": "OP_DUP OP_HASH160 147b897573a9586f64320d29c7780f383d00f06d OP_EQUALVERIFY OP_CHECKSIG",
        "hex": "76a914147b897573a9586f64320d29c7780f383d00f06d88ac",
        "reqSigs": 1,
        "type": "pubkeyhash",
        "addresses": [
          "mhPFoPUSefNW7BMV8bhL3Pa4qkP4vtJaba"
        ]
      }
    },
    {
      "value": 0.00000000,
      "n": 1,
      "scriptPubKey": {
        "asm": "OP_RETURN 4f41010001890617753d68747470733a2f2f676f6f2e676c2f36704e503237",
        "hex": "6a1f4f41010001890617753d68747470733a2f2f676f6f2e676c2f36704e503237",
        "type": "nulldata"
      }
    },
    {
      "value": 0.00039400,
      "n": 2,
      "scriptPubKey": {
        "asm": "OP_DUP OP_HASH160 147b897573a9586f64320d29c7780f383d00f06d OP_EQUALVERIFY OP_CHECKSIG",
        "hex": "76a914147b897573a9586f64320d29c7780f383d00f06d88ac",
        "reqSigs": 1,
        "type": "pubkeyhash",
        "addresses": [
          "mhPFoPUSefNW7BMV8bhL3Pa4qkP4vtJaba"
        ]
      }
    }
  ],
  "blockhash": "0000000000767e53f10e4f20c568b260d569b6edf08f502e259f11e21cfd699c",
  "confirmations": 381347,
  "time": 1453610373,
  "blocktime": 1453610373
}