{
  "hex": "0100000002d828fe846b63c61af9c20576705e44e1c34ade6f54e38a4fd673664e0c3058dd000000006b483045022100ae213bed8880c72aaa345d83de4a544675fbe8f0ea9e2ea002e6e16986560bca02206c7499383d958f42a2a1b1e4daeadee9928c693dbd6ad51622709a89df4cf8cc012103a53d2d96e090615d19b2e47078eb79434c1cb9555ac588b05170a715619a40a2ffffffff0471efecafcbed89444b171b303fbc73d2c4986be507121f4efe40ba0e5bb5d2030000006b483045022100aff08b10ecef5ee5f165af4494b171db48d06c0cd76f84eb8f952a5d866084ff02206c559534f1c566b8a59286b90ea1291f319fa91f70cd0bd6cef67304b6e939ca012102174620b7c583dc471e04b604fc85f7ae19d161a070af7227ca03edfcb6c4dc4fffffffff0220a10700000000001976a9147cbc38b45e36dbe96e991d737450f047a9899a6388ac9b090000000000001976a914d168cfcf5bd060b4a92a0b26cb0456c2c468fc0588ac00000000",
  "txid": "52149eb434085bee56dec595ee2f3a601cb24703bbb4a385954b1f20a3b50c7d",
  "size": 374,
  "version": 1,
  "locktime": 0,
  "vin": [
    {
      "txid": "dd58300c4e6673d64f8ae3546fde4ac3e1445e707605c2f91ac6636b84fe28d8",
      "vout": 0,
      "scriptSig": {
        "asm": "3045022100ae213bed8880c72aaa345d83de4a544675fbe8f0ea9e2ea002e6e16986560bca02206c7499383d958f42a2a1b1e4daeadee9928c693dbd6ad51622709a89df4cf8cc[ALL] 03a53d2d96e090615d19b2e47078eb79434c1cb9555ac588b05170a715619a40a2",
        "hex": "483045022100ae213bed8880c72aaa345d83de4a544675fbe8f0ea9e2ea002e6e16986560bca02206c7499383d958f42a2a1b1e4daeadee9928c693dbd6ad51622709a89df4cf8cc012103a53d2d96e090615d19b2e47078eb79434c1cb9555ac588b05170a715619a40a2"
      },
      "sequence": 4294967295
    },
    {
      "txid": "d2b55b0eba40fe4e1f1207e56b98c4d273bc3f301b174b4489edcbafecef7104",
      "vout": 3,
      "scriptSig": {
        "asm": "3045022100aff08b10ecef5ee5f165af4494b171db48d06c0cd76f84eb8f952a5d866084ff02206c559534f1c566b8a59286b90ea1291f319fa91f70cd0bd6cef67304b6e939ca[ALL] 02174620b7c583dc471e04b604fc85f7ae19d161a070af7227ca03edfcb6c4dc4f",
        "hex": "483045022100aff08b10ecef5ee5f165af4494b171db48d06c0cd76f84eb8f952a5d866084ff02206c559534f1c566b8a59286b90ea1291f319fa91f70cd0bd6cef67304b6e939ca012102174620b7c583dc471e04b604fc85f7ae19d161a070af7227ca03edfcb6c4dc4f"
      },
      "sequence": 4294967295
    }
  ],
  "vout": [
    {
      "value": 0.00500000,
      "n": 0,
      "scriptPubKey": {
        "asm": "OP_DUP OP_HASH160 7cbc38b45e36dbe96e991d737450f047a9899a63 OP_EQUALVERIFY OP_CHECKSIG",
        "hex": "76a9147cbc38b45e36dbe96e991d737450f047a9899a6388ac",
        "reqSigs": 1,
        "type": "pubkeyhash",
        "addresses": [
          "1CNYGeUsJU6csL8ZkZATrJhzmhv7LM4vFx"
        ]
      }
    },
    {
      "value": 0.00002459,
      "n": 1,
      "scriptPubKey": {
        "asm": "OP_DUP OP_HASH160 d168cfcf5bd060b4a92a0b26cb0456c2c468fc05 OP_EQUALVERIFY OP_CHECKSIG",
        "hex": "76a914d168cfcf5bd060b4a92a0b26cb0456c2c468fc0588ac",
        "reqSigs": 1,
        "type": "pubkeyhash",
        "addresses": [
          "1L6FnYPTcULLqiVGCLMDLqG7kKNehDv2ZA"
        ]
      }
    }
  ],
  "blockhash": "0000000000000000103ee68ba73d49bb506505bf3fa3fc6d0e3831f79f5cc8ae",
  "confirmations": 61686,
  "time": 1443777805,
  "blocktime": 1443777805
}
