{
  "hex": "010000000154f5a67cb14d7e50056f53263b72165daaf438164e7e825b862b9062a4e40612000000006b48304502210098e16e338e9600876e30d9dc0894bcd1bbb612431e7a36732c5feab0686d0641022044e7dcd512073f31d0c67e0fbbf2269c4a31d5bf3bb1fcc8fbdd2e4d3c0d7e58012103e46fdcbf2062598a221c0e34d0505c270fb77c2c305c40ef0919f8efc0c7f959ffffffff0358020000000000001976a91438a6ebdf20cae2c9287ea014464042112ea3dbfd88ac0000000000000000216a1f4f410100018f4e17753d68747470733a2f2f676f6f2e676c2f755667737434b8770700000000001976a91438a6ebdf20cae2c9287ea014464042112ea3dbfd88ac00000000",
  "txid": "525f7baa656d04016fad0094187cc969b526ca1261312ddf09a648d822ee6cdd",
  "hash": "525f7baa656d04016fad0094187cc969b526ca1261312ddf09a648d822ee6cdd",
  "size": 268,
  "vsize": 268,
  "version": 1,
  "locktime": 0,
  "vin": [
    {
      "txid": "1206e4a462902b865b827e4e1638f4aa5d16723b26536f05507e4db17ca6f554",
      "vout": 0,
      "scriptSig": {
        "asm": "304502210098e16e338e9600876e30d9dc0894bcd1bbb612431e7a36732c5feab0686d0641022044e7dcd512073f31d0c67e0fbbf2269c4a31d5bf3bb1fcc8fbdd2e4d3c0d7e58[ALL] 03e46fdcbf2062598a221c0e34d0505c270fb77c2c305c40ef0919f8efc0c7f959",
        "hex": "48304502210098e16e338e9600876e30d9dc0894bcd1bbb612431e7a36732c5feab0686d0641022044e7dcd512073f31d0c67e0fbbf2269c4a31d5bf3bb1fcc8fbdd2e4d3c0d7e58012103e46fdcbf2062598a221c0e34d0505c270fb77c2c305c40ef0919f8efc0c7f959"
      },
      "sequence": 4294967295
    }
  ],
  "vout": [
    {
      "value": 0.00000600,
      "n": 0,
      "scriptPubKey": {
        "asm": "OP_DUP OP_HASH160 38a6ebdf20cae2c9287ea014464042112ea3dbfd OP_EQUALVERIFY OP_CHECKSIG",
        "hex": "76a91438a6ebdf20cae2c9287ea014464042112ea3dbfd88ac",
        "reqSigs": 1,
        "type": "pubkeyhash",
        "addresses": [
          "mkgW6hNYBctmqDtTTsTJrsf2Gh2NPtoCU4"
        ]
      }
    },
    {
      "value": 0.00000000,
      "n": 1,
      "scriptPubKey": {
        "asm": "OP_RETURN 4f410100018f4e17753d68747470733a2f2f676f6f2e676c2f755667737434",
        "hex": "6a1f4f410100018f4e17753d68747470733a2f2f676f6f2e676c2f755667737434",
        "type": "nulldata"
      }
    },
    {
      "value": 0.00489400,
      "n": 2,
      "scriptPubKey": {
        "asm": "OP_DUP OP_HASH160 38a6ebdf20cae2c9287ea014464042112ea3dbfd OP_EQUALVERIFY OP_CHECKSIG",
        "hex": "76a91438a6ebdf20cae2c9287ea014464042112ea3dbfd88ac",
        "reqSigs": 1,
        "type": "pubkeyhash",
        "addresses": [
          "mkgW6hNYBctmqDtTTsTJrsf2Gh2NPtoCU4"
        ]
      }
    }
  ],
  "blockhash": "000000000070409de9d2f40f67ab2de0c97fcf3f7c51ce7bf4487794d5976b93",
  "confirmations": 427142,
  "time": 1448003116,
  "blocktime": 1448003116
}