{
  "hex": "0100000001d57f29f2ddca6dc2873fd518fc7a30e9071d03e6783dc97aed0b282c793726d6020000006a47304402203b5b3462658f4bb6f2b29053e10ca9e2f418af3d23345323d1cb5907d0f0476e02206a64d2af924bdf1797eff1cb1756c1906fed43de09621deacdc009c6569792e5012102174620b7c583dc471e04b604fc85f7ae19d161a070af7227ca03edfcb6c4dc4fffffffff0210270000000000001976a914b7218fe503cd18555255e5b13d4f07f3fd00d0c988ac90c30e00000000001976a914d9018802c2f28b01b9d976f4a77e295babf79ecf88ac00000000",
  "txid": "5cc890ab1369432375decb64ef19b4cb190f5f40e35bb1399cce16e4be6b5b9b",
  "size": 225,
  "version": 1,
  "locktime": 0,
  "vin": [
    {
      "txid": "d62637792c280bed7ac93d78e6031d07e9307afc18d53f87c26dcaddf2297fd5",
      "vout": 2,
      "scriptSig": {
        "asm": "304402203b5b3462658f4bb6f2b29053e10ca9e2f418af3d23345323d1cb5907d0f0476e02206a64d2af924bdf1797eff1cb1756c1906fed43de09621deacdc009c6569792e5[ALL] 02174620b7c583dc471e04b604fc85f7ae19d161a070af7227ca03edfcb6c4dc4f",
        "hex": "47304402203b5b3462658f4bb6f2b29053e10ca9e2f418af3d23345323d1cb5907d0f0476e02206a64d2af924bdf1797eff1cb1756c1906fed43de09621deacdc009c6569792e5012102174620b7c583dc471e04b604fc85f7ae19d161a070af7227ca03edfcb6c4dc4f"
      },
      "sequence": 4294967295
    }
  ],
  "vout": [
    {
      "value": 0.00010000,
      "n": 0,
      "scriptPubKey": {
        "asm": "OP_DUP OP_HASH160 b7218fe503cd18555255e5b13d4f07f3fd00d0c9 OP_EQUALVERIFY OP_CHECKSIG",
        "hex": "76a914b7218fe503cd18555255e5b13d4f07f3fd00d0c988ac",
        "reqSigs": 1,
        "type": "pubkeyhash",
        "addresses": [
          "1HhJs3JgbiyxC8ktfi6nU4wTqVmrMtCVkG"
        ]
      }
    },
    {
      "value": 0.00967568,
      "n": 1,
      "scriptPubKey": {
        "asm": "OP_DUP OP_HASH160 d9018802c2f28b01b9d976f4a77e295babf79ecf OP_EQUALVERIFY OP_CHECKSIG",
        "hex": "76a914d9018802c2f28b01b9d976f4a77e295babf79ecf88ac",
        "reqSigs": 1,
        "type": "pubkeyhash",
        "addresses": [
          "1LnRU2MCBmbT5LJybxPGWUotNBRxmypQWN"
        ]
      }
    }
  ],
  "blockhash": "000000000000000001e1a61215e5c83af14cb0824807acdd1a4e3619c141830e",
  "confirmations": 78553,
  "time": 1433905613,
  "blocktime": 1433905613
}