{
  "hex": "0100000002e2264a34066d12a259bcfcbf99893bac0d76c4a95219f2c068b2c03e29272a4d000000009e483045022100fba05ed2079938a9605dc3658535b4733babc25b4053077b4524c2fe95038c9302207fe541b0c8e7f3f39ab3ea5c127b409809000fd766794f2839454a29f873d32001210292ee82d9add0512294723f2c363aee24efdeb3f258cdaf5118a4fcf5263e92c93217753d68747470733a2f2f676f6f2e676c2f626d564575777576a91446c2fbfbecc99a63148fa076de58cf29b0bcf0b088acffffffffe2264a34066d12a259bcfcbf99893bac0d76c4a95219f2c068b2c03e29272a4d020000006a473044022051eb95a2feee909254333ec21821d59d0539f964f160edc90ababd8d5994b47602206751b7a26e69df07c6b53d6f790c6159999b1d6c1d8f7ecf1c8fb2f6175acba001210292ee82d9add0512294723f2c363aee24efdeb3f258cdaf5118a4fcf5263e92c9ffffffff0200000000000000000a6a084f41010001b32b0070620000000000001976a91446c2fbfbecc99a63148fa076de58cf29b0bcf0b088ac00000000",
  "txid": "6308f912ccf36057d020483dbe9392dda8d197e378f1709d5bf0291f8d83bcc7",
  "hash": "6308f912ccf36057d020483dbe9392dda8d197e378f1709d5bf0291f8d83bcc7",
  "size": 409,
  "vsize": 409,
  "version": 1,
  "locktime": 0,
  "vin": [
    {
      "txid": "4d2a27293ec0b268c0f21952a9c4760dac3b8999bffcbc59a2126d06344a26e2",
      "vout": 0,
      "scriptSig": {
        "asm": "3045022100fba05ed2079938a9605dc3658535b4733babc25b4053077b4524c2fe95038c9302207fe541b0c8e7f3f39ab3ea5c127b409809000fd766794f2839454a29f873d320[ALL] 0292ee82d9add0512294723f2c363aee24efdeb3f258cdaf5118a4fcf5263e92c9 17753d68747470733a2f2f676f6f2e676c2f626d564575777576a91446c2fbfbecc99a63148fa076de58cf29b0bcf0b088ac",
        "hex": "483045022100fba05ed2079938a9605dc3658535b4733babc25b4053077b4524c2fe95038c9302207fe541b0c8e7f3f39ab3ea5c127b409809000fd766794f2839454a29f873d32001210292ee82d9add0512294723f2c363aee24efdeb3f258cdaf5118a4fcf5263e92c93217753d68747470733a2f2f676f6f2e676c2f626d564575777576a91446c2fbfbecc99a63148fa076de58cf29b0bcf0b088ac"
      },
      "sequence": 4294967295
    },
    {
      "txid": "4d2a27293ec0b268c0f21952a9c4760dac3b8999bffcbc59a2126d06344a26e2",
      "vout": 2,
      "scriptSig": {
        "asm": "3044022051eb95a2feee909254333ec21821d59d0539f964f160edc90ababd8d5994b47602206751b7a26e69df07c6b53d6f790c6159999b1d6c1d8f7ecf1c8fb2f6175acba0[ALL] 0292ee82d9add0512294723f2c363aee24efdeb3f258cdaf5118a4fcf5263e92c9",
        "hex": "473044022051eb95a2feee909254333ec21821d59d0539f964f160edc90ababd8d5994b47602206751b7a26e69df07c6b53d6f790c6159999b1d6c1d8f7ecf1c8fb2f6175acba001210292ee82d9add0512294723f2c363aee24efdeb3f258cdaf5118a4fcf5263e92c9"
      },
      "sequence": 4294967295
    }
  ],
  "vout": [
    {
      "value": 0.00000000,
      "n": 0,
      "scriptPubKey": {
        "asm": "OP_RETURN 4f41010001b32b00",
        "hex": "6a084f41010001b32b00",
        "type": "nulldata"
      }
    },
    {
      "value": 0.00025200,
      "n": 1,
      "scriptPubKey": {
        "asm": "OP_DUP OP_HASH160 46c2fbfbecc99a63148fa076de58cf29b0bcf0b0 OP_EQUALVERIFY OP_CHECKSIG",
        "hex": "76a91446c2fbfbecc99a63148fa076de58cf29b0bcf0b088ac",
        "reqSigs": 1,
        "type": "pubkeyhash",
        "addresses": [
          "mmy7BEH1SUGAeSVUR22pt5hPaejo2645F1"
        ]
      }
    }
  ],
  "blockhash": "00000000000002c6ad8e203e11424325a216f47d112a0bd449192e18bb5e2ac8",
  "confirmations": 63322,
  "time": 1475833686,
  "blocktime": 1475833686
}