{
  "hex": "01000000021a8dbbbc32c6803851d34478dccd71b80112be9f784f688c83f857098ca129a3020000006a47304402204a8314a129b7374087965ee1878a427c798a6882982c89d59909ecd7f78ff07b0220686cd6e4658ac30c076b62339e2ba67c9a523a3aa15a013c3b12a0cfe66f7861012102544912ce55bcab484f5d2ba0f54c420160f37c3978b68b0fa67cc92417739b3effffffff1a8dbbbc32c6803851d34478dccd71b80112be9f784f688c83f857098ca129a3030000006a47304402201c3514587ccb5d7642545185a87bc78c6f5c8fef0540896d832dd3c51430c73d02207bced10c07098737202857c5f64b59a9aa6c429f2c09fda6dcbfe9897818ab96012102544912ce55bcab484f5d2ba0f54c420160f37c3978b68b0fa67cc92417739b3effffffff0400000000000000000a6a084f4101000201030058020000000000001976a91424b3d405bc60bd9628691fe28bb00f6800e1480688ac58020000000000001976a914b7218fe503cd18555255e5b13d4f07f3fd00d0c988ace05a0100000000001976a914b7218fe503cd18555255e5b13d4f07f3fd00d0c988ac00000000",
  "txid": "64873e801b9886af5f5fb30889d816d38f77856544b1233d1491f4bcf9e3062a",
  "size": 425,
  "version": 1,
  "locktime": 0,
  "vin": [
    {
      "txid": "a329a18c0957f8838c684f789fbe1201b871cddc7844d3513880c632bcbb8d1a",
      "vout": 2,
      "scriptSig": {
        "asm": "304402204a8314a129b7374087965ee1878a427c798a6882982c89d59909ecd7f78ff07b0220686cd6e4658ac30c076b62339e2ba67c9a523a3aa15a013c3b12a0cfe66f7861[ALL] 02544912ce55bcab484f5d2ba0f54c420160f37c3978b68b0fa67cc92417739b3e",
        "hex": "47304402204a8314a129b7374087965ee1878a427c798a6882982c89d59909ecd7f78ff07b0220686cd6e4658ac30c076b62339e2ba67c9a523a3aa15a013c3b12a0cfe66f7861012102544912ce55bcab484f5d2ba0f54c420160f37c3978b68b0fa67cc92417739b3e"
      },
      "sequence": 4294967295
    },
    {
      "txid": "a329a18c0957f8838c684f789fbe1201b871cddc7844d3513880c632bcbb8d1a",
      "vout": 3,
      "scriptSig": {
        "asm": "304402201c3514587ccb5d7642545185a87bc78c6f5c8fef0540896d832dd3c51430c73d02207bced10c07098737202857c5f64b59a9aa6c429f2c09fda6dcbfe9897818ab96[ALL] 02544912ce55bcab484f5d2ba0f54c420160f37c3978b68b0fa67cc92417739b3e",
        "hex": "47304402201c3514587ccb5d7642545185a87bc78c6f5c8fef0540896d832dd3c51430c73d02207bced10c07098737202857c5f64b59a9aa6c429f2c09fda6dcbfe9897818ab96012102544912ce55bcab484f5d2ba0f54c420160f37c3978b68b0fa67cc92417739b3e"
      },
      "sequence": 4294967295
    }
  ],
  "vout": [
    {
      "value": 0.00000000,
      "n": 0,
      "scriptPubKey": {
        "asm": "OP_RETURN 4f41010002010300",
        "hex": "6a084f41010002010300",
        "type": "nulldata"
      }
    },
    {
      "value": 0.00000600,
      "n": 1,
      "scriptPubKey": {
        "asm": "OP_DUP OP_HASH160 24b3d405bc60bd9628691fe28bb00f6800e14806 OP_EQUALVERIFY OP_CHECKSIG",
        "hex": "76a91424b3d405bc60bd9628691fe28bb00f6800e1480688ac",
        "reqSigs": 1,
        "type": "pubkeyhash",
        "addresses": [
          "14M4kbAtn71P1nnNYuhBDFTNYxa19t1XP6"
        ]
      }
    },
    {
      "value": 0.00000600,
      "n": 2,
      "scriptPubKey": {
        "asm": "OP_DUP OP_HASH160 b7218fe503cd18555255e5b13d4f07f3fd00d0c9 OP_EQUALVERIFY OP_CHECKSIG",
        "hex": "76a914b7218fe503cd18555255e5b13d4f07f3fd00d0c988ac",
        "reqSigs": 1,
        "type": "pubkeyhash",
        "addresses": [
          "1HhJs3JgbiyxC8ktfi6nU4wTqVmrMtCVkG"
        ]
      }
    },
    {
      "value": 0.00088800,
      "n": 3,
      "scriptPubKey": {
        "asm": "OP_DUP OP_HASH160 b7218fe503cd18555255e5b13d4f07f3fd00d0c9 OP_EQUALVERIFY OP_CHECKSIG",
        "hex": "76a914b7218fe503cd18555255e5b13d4f07f3fd00d0c988ac",
        "reqSigs": 1,
        "type": "pubkeyhash",
        "addresses": [
          "1HhJs3JgbiyxC8ktfi6nU4wTqVmrMtCVkG"
        ]
      }
    }
  ],
  "blockhash": "000000000000000006015fed22a1778b3abb13602412f1282535ebb1675213a9",
  "confirmations": 78349,
  "time": 1434010280,
  "blocktime": 1434010280
}