{
  "hex": "01000000011dbc554fc3cef8d23f0babf91511a8d57636a30d009fcbfa0c1bf2ec3e6eb14e00000000fd5e0100483045022100a51f0f0854c44c4b0093c17e249993709834450c84101bec301985d4a1bf11150220160d2af398e33c4dabe0c1f6f047a86f395af3b4ebdd36e366a93af15ee03b8e01483045022100b6ba03760def0187c356d26bd8965f6da4ca1ca14cd61b32a5604739f173e11102207a407443003ac717a7252de1d78962ec98a59b2195399c017a93e63eabdb810f014cc95241044e98d655cb2a16869585afea317fd95e8c1d785c337bca950f9d8190dd53b9f838f69970cbf52b14d4729dab380a8ebbd5e5acc0de426efc835334771c4e0c5d4104c96d495bfdd5ba4145e3e046fee45e84a8a48ad05bd8dbb395c011a32cf9f880326dbd66c140b50257f9618173833b50b6e829b5cd04ffd0ba693b90be8043594104feee534cc0d317cd8abf366bf1f3f93d098585fc5d3d61a22d3020c6d7a9ab6c83a201073e9f45b9a533a5930f421e49ccb760cce77a939032b24c03cb2b8bb153aeffffffff0240420f00000000001976a914de20a2d5a57ee40ce9a4ce14cf06a6c2c6ffe29788ace81e1c050000000017a91401882b7530c6ba31f88c99580710cbbbd5e228208700000000",
  "txid": "67b95eb7516f5bf19340d31820c9fe71b8280d650d8b81d77ec950ad5c315128",
  "size": 469,
  "version": 1,
  "locktime": 0,
  "vin": [
    {
      "txid": "4eb16e3eecf21b0cfacb9f000da33676d5a81115f9ab0b3fd2f8cec34f55bc1d",
      "vout": 0,
      "scriptSig": {
        "asm": "0 3045022100a51f0f0854c44c4b0093c17e249993709834450c84101bec301985d4a1bf11150220160d2af398e33c4dabe0c1f6f047a86f395af3b4ebdd36e366a93af15ee03b8e[ALL] 3045022100b6ba03760def0187c356d26bd8965f6da4ca1ca14cd61b32a5604739f173e11102207a407443003ac717a7252de1d78962ec98a59b2195399c017a93e63eabdb810f[ALL] 5241044e98d655cb2a16869585afea317fd95e8c1d785c337bca950f9d8190dd53b9f838f69970cbf52b14d4729dab380a8ebbd5e5acc0de426efc835334771c4e0c5d4104c96d495bfdd5ba4145e3e046fee45e84a8a48ad05bd8dbb395c011a32cf9f880326dbd66c140b50257f9618173833b50b6e829b5cd04ffd0ba693b90be8043594104feee534cc0d317cd8abf366bf1f3f93d098585fc5d3d61a22d3020c6d7a9ab6c83a201073e9f45b9a533a5930f421e49ccb760cce77a939032b24c03cb2b8bb153ae",
        "hex": "00483045022100a51f0f0854c44c4b0093c17e249993709834450c84101bec301985d4a1bf11150220160d2af398e33c4dabe0c1f6f047a86f395af3b4ebdd36e366a93af15ee03b8e01483045022100b6ba03760def0187c356d26bd8965f6da4ca1ca14cd61b32a5604739f173e11102207a407443003ac717a7252de1d78962ec98a59b2195399c017a93e63eabdb810f014cc95241044e98d655cb2a16869585afea317fd95e8c1d785c337bca950f9d8190dd53b9f838f69970cbf52b14d4729dab380a8ebbd5e5acc0de426efc835334771c4e0c5d4104c96d495bfdd5ba4145e3e046fee45e84a8a48ad05bd8dbb395c011a32cf9f880326dbd66c140b50257f9618173833b50b6e829b5cd04ffd0ba693b90be8043594104feee534cc0d317cd8abf366bf1f3f93d098585fc5d3d61a22d3020c6d7a9ab6c83a201073e9f45b9a533a5930f421e49ccb760cce77a939032b24c03cb2b8bb153ae"
      },
      "sequence": 4294967295
    }
  ],
  "vout": [
    {
      "value": 0.01000000,
      "n": 0,
      "scriptPubKey": {
        "asm": "OP_DUP OP_HASH160 de20a2d5a57ee40ce9a4ce14cf06a6c2c6ffe297 OP_EQUALVERIFY OP_CHECKSIG",
        "hex": "76a914de20a2d5a57ee40ce9a4ce14cf06a6c2c6ffe29788ac",
        "reqSigs": 1,
        "type": "pubkeyhash",
        "addresses": [
          "1MFW7BTwiNbAkmVz4SzAMQXboKYKGSzkq2"
        ]
      }
    },
    {
      "value": 0.85729000,
      "n": 1,
      "scriptPubKey": {
        "asm": "OP_HASH160 01882b7530c6ba31f88c99580710cbbbd5e22820 OP_EQUAL",
        "hex": "a91401882b7530c6ba31f88c99580710cbbbd5e2282087",
        "reqSigs": 1,
        "type": "scripthash",
        "addresses": [
          "31q7iya4jZusaYCCKJMssxbEsbKMj1xidX"
        ]
      }
    }
  ],
  "blockhash": "000000000000000001092aa38865d84cc551f458e03d5c9c01958d5485ca893a",
  "confirmations": 79299,
  "time": 1433487402,
  "blocktime": 1433487402
}