{
  "hex": "0100000002e7a0899f2e66533f2d3501c50e149200d5a077f00761d2dbc873e6c1a902549e000000006a473044022055ee8e20e181898da602024b2985b1527621ed72017efd892fa32b9cdf8fab15022037ad071f95880ee3fea1845a0702ac6e8b01c3e9f3cbc82e51aeb7000cf12aac0121029362a6141d20521f77af9c5f2b6573527602baae2f9e8819039a874647e95346ffffffffe7a0899f2e66533f2d3501c50e149200d5a077f00761d2dbc873e6c1a902549e020000006a473044022041faeb6fad8a1eeda1d44b0770e229395249f1d97c340bc9d35e5c4542564322022037a642dcff8006e34875321a6770ccf0a331f20594704ccdb039640b2d6d2ead0121029362a6141d20521f77af9c5f2b6573527602baae2f9e8819039a874647e95346ffffffff0700000000000000000e6a0c4f410100051818181b85070058020000000000001976a9147d8dd16cc3413a64a9964c91cb0ee9358ab1dff688ac58020000000000001976a9147d8dd16cc3413a64a9964c91cb0ee9358ab1dff688ac58020000000000001976a9147d8dd16cc3413a64a9964c91cb0ee9358ab1dff688ac58020000000000001976a9147d8dd16cc3413a64a9964c91cb0ee9358ab1dff688ac58020000000000001976a914c70decc68bd86b6a8ae3a13b077af1a7304bdd5b88acc82c0100000000001976a914c70decc68bd86b6a8ae3a13b077af1a7304bdd5b88ac00000000",
  "txid": "6887dd16b7ad2847bd4546211665199e05711c3acd1a67da879506adb5486910",
  "hash": "6887dd16b7ad2847bd4546211665199e05711c3acd1a67da879506adb5486910",
  "size": 531,
  "vsize": 531,
  "version": 1,
  "locktime": 0,
  "vin": [
    {
      "txid": "9e5402a9c1e673c8dbd26107f077a0d50092140ec501352d3f53662e9f89a0e7",
      "vout": 0,
      "scriptSig": {
        "asm": "3044022055ee8e20e181898da602024b2985b1527621ed72017efd892fa32b9cdf8fab15022037ad071f95880ee3fea1845a0702ac6e8b01c3e9f3cbc82e51aeb7000cf12aac[ALL] 029362a6141d20521f77af9c5f2b6573527602baae2f9e8819039a874647e95346",
        "hex": "473044022055ee8e20e181898da602024b2985b1527621ed72017efd892fa32b9cdf8fab15022037ad071f95880ee3fea1845a0702ac6e8b01c3e9f3cbc82e51aeb7000cf12aac0121029362a6141d20521f77af9c5f2b6573527602baae2f9e8819039a874647e95346"
      },
      "sequence": 4294967295
    },
    {
      "txid": "9e5402a9c1e673c8dbd26107f077a0d50092140ec501352d3f53662e9f89a0e7",
      "vout": 2,
      "scriptSig": {
        "asm": "3044022041faeb6fad8a1eeda1d44b0770e229395249f1d97c340bc9d35e5c4542564322022037a642dcff8006e34875321a6770ccf0a331f20594704ccdb039640b2d6d2ead[ALL] 029362a6141d20521f77af9c5f2b6573527602baae2f9e8819039a874647e95346",
        "hex": "473044022041faeb6fad8a1eeda1d44b0770e229395249f1d97c340bc9d35e5c4542564322022037a642dcff8006e34875321a6770ccf0a331f20594704ccdb039640b2d6d2ead0121029362a6141d20521f77af9c5f2b6573527602baae2f9e8819039a874647e95346"
      },
      "sequence": 4294967295
    }
  ],
  "vout": [
    {
      "value": 0.00000000,
      "n": 0,
      "scriptPubKey": {
        "asm": "OP_RETURN 4f410100051818181b850700",
        "hex": "6a0c4f410100051818181b850700",
        "type": "nulldata"
      }
    },
    {
      "value": 0.00000600,
      "n": 1,
      "scriptPubKey": {
        "asm": "OP_DUP OP_HASH160 7d8dd16cc3413a64a9964c91cb0ee9358ab1dff6 OP_EQUALVERIFY OP_CHECKSIG",
        "hex": "76a9147d8dd16cc3413a64a9964c91cb0ee9358ab1dff688ac",
        "reqSigs": 1,
        "type": "pubkeyhash",
        "addresses": [
          "mrxpeizRrF8ymNx5FrvcGGZVecZjtUFVP3"
        ]
      }
    },
    {
      "value": 0.00000600,
      "n": 2,
      "scriptPubKey": {
        "asm": "OP_DUP OP_HASH160 7d8dd16cc3413a64a9964c91cb0ee9358ab1dff6 OP_EQUALVERIFY OP_CHECKSIG",
        "hex": "76a9147d8dd16cc3413a64a9964c91cb0ee9358ab1dff688ac",
        "reqSigs": 1,
        "type": "pubkeyhash",
        "addresses": [
          "mrxpeizRrF8ymNx5FrvcGGZVecZjtUFVP3"
        ]
      }
    },
    {
      "value": 0.00000600,
      "n": 3,
      "scriptPubKey": {
        "asm": "OP_DUP OP_HASH160 7d8dd16cc3413a64a9964c91cb0ee9358ab1dff6 OP_EQUALVERIFY OP_CHECKSIG",
        "hex": "76a9147d8dd16cc3413a64a9964c91cb0ee9358ab1dff688ac",
        "reqSigs": 1,
        "type": "pubkeyhash",
        "addresses": [
          "mrxpeizRrF8ymNx5FrvcGGZVecZjtUFVP3"
        ]
      }
    },
    {
      "value": 0.00000600,
      "n": 4,
      "scriptPubKey": {
        "asm": "OP_DUP OP_HASH160 7d8dd16cc3413a64a9964c91cb0ee9358ab1dff6 OP_EQUALVERIFY OP_CHECKSIG",
        "hex": "76a9147d8dd16cc3413a64a9964c91cb0ee9358ab1dff688ac",
        "reqSigs": 1,
        "type": "pubkeyhash",
        "addresses": [
          "mrxpeizRrF8ymNx5FrvcGGZVecZjtUFVP3"
        ]
      }
    },
    {
      "value": 0.00000600,
      "n": 5,
      "scriptPubKey": {
        "asm": "OP_DUP OP_HASH160 c70decc68bd86b6a8ae3a13b077af1a7304bdd5b OP_EQUALVERIFY OP_CHECKSIG",
        "hex": "76a914c70decc68bd86b6a8ae3a13b077af1a7304bdd5b88ac",
        "reqSigs": 1,
        "type": "pubkeyhash",
        "addresses": [
          "myfTSkKCbvNqf231xMR5sVCBTi8VvqfR4y"
        ]
      }
    },
    {
      "value": 0.00077000,
      "n": 6,
      "scriptPubKey": {
        "asm": "OP_DUP OP_HASH160 c70decc68bd86b6a8ae3a13b077af1a7304bdd5b OP_EQUALVERIFY OP_CHECKSIG",
        "hex": "76a914c70decc68bd86b6a8ae3a13b077af1a7304bdd5b88ac",
        "reqSigs": 1,
        "type": "pubkeyhash",
        "addresses": [
          "myfTSkKCbvNqf231xMR5sVCBTi8VvqfR4y"
        ]
      }
    }
  ],
  "blockhash": "0000000000028f95924ee52ed9f8a7092920dc4179cd2aa8feba1cb28a79f11e",
  "confirmations": 386398,
  "time": 1453345182,
  "blocktime": 1453345182
}