{
  "hex": "010000000225effeede01fed5009223f137487e8f553635117f6a4c8e2a82212599ff28283010000006a47304402202e2c4fcf0e0df5817ba73cf7073d711e52df66f331aba7c8dc7bdcd4b1db4f8702204e124f78140f0bafc3776d0f8a593674699fe553f4906bd2116d198c06928c8e012102544912ce55bcab484f5d2ba0f54c420160f37c3978b68b0fa67cc92417739b3effffffff4d2ddf7930b6f4f26d825163fecd24eecc0d1749b24a263734b053661e54a59d030000006b483045022100e7596bc109eead32f4164a128fa329fe0c5ff95093a97c11cf10e3072eea5472022033ade6fb6e5e6a2d15a5b5cd1771e1b63a25bb5a165056c9673c1a730ece1d08012102544912ce55bcab484f5d2ba0f54c420160f37c3978b68b0fa67cc92417739b3effffffff030000000000000000096a074f41010001010058020000000000001976a91424b3d405bc60bd9628691fe28bb00f6800e1480688ac308e0000000000001976a914b7218fe503cd18555255e5b13d4f07f3fd00d0c988ac00000000",
  "txid": "7bf10738ab63989d3c7b34ce5ee610bb4b6ff1ffab0f203d60f4089bd62f3984",
  "size": 391,
  "version": 1,
  "locktime": 0,
  "vin": [
    {
      "txid": "8382f29f591222a8e2c8a4f617516353f5e88774133f220950ed1fe0edfeef25",
      "vout": 1,
      "scriptSig": {
        "asm": "304402202e2c4fcf0e0df5817ba73cf7073d711e52df66f331aba7c8dc7bdcd4b1db4f8702204e124f78140f0bafc3776d0f8a593674699fe553f4906bd2116d198c06928c8e[ALL] 02544912ce55bcab484f5d2ba0f54c420160f37c3978b68b0fa67cc92417739b3e",
        "hex": "47304402202e2c4fcf0e0df5817ba73cf7073d711e52df66f331aba7c8dc7bdcd4b1db4f8702204e124f78140f0bafc3776d0f8a593674699fe553f4906bd2116d198c06928c8e012102544912ce55bcab484f5d2ba0f54c420160f37c3978b68b0fa67cc92417739b3e"
      },
      "sequence": 4294967295
    },
    {
      "txid": "9da5541e6653b03437264ab249170dccee24cdfe6351826df2f4b63079df2d4d",
      "vout": 3,
      "scriptSig": {
        "asm": "3045022100e7596bc109eead32f4164a128fa329fe0c5ff95093a97c11cf10e3072eea5472022033ade6fb6e5e6a2d15a5b5cd1771e1b63a25bb5a165056c9673c1a730ece1d08[ALL] 02544912ce55bcab484f5d2ba0f54c420160f37c3978b68b0fa67cc92417739b3e",
        "hex": "483045022100e7596bc109eead32f4164a128fa329fe0c5ff95093a97c11cf10e3072eea5472022033ade6fb6e5e6a2d15a5b5cd1771e1b63a25bb5a165056c9673c1a730ece1d08012102544912ce55bcab484f5d2ba0f54c420160f37c3978b68b0fa67cc92417739b3e"
      },
      "sequence": 4294967295
    }
  ],
  "vout": [
    {
      "value": 0.00000000,
      "n": 0,
      "scriptPubKey": {
        "asm": "OP_RETURN 4f410100010100",
        "hex": "6a074f410100010100",
        "type": "nulldata"
      }
    },
    {
      "value": 0.00000600,
      "n": 1,
      "scriptPubKey": {
        "asm": "OP_DUP OP_HASH160 24b3d405bc60bd9628691fe28bb00f6800e14806 OP_EQUALVERIFY OP_CHECKSIG",
        "hex": "76a91424b3d405bc60bd9628691fe28bb00f6800e1480688ac",
        "reqSigs": 1,
        "type": "pubkeyhash",
        "addresses": [
          "14M4kbAtn71P1nnNYuhBDFTNYxa19t1XP6"
        ]
      }
    },
    {
      "value": 0.00036400,
      "n": 2,
      "scriptPubKey": {
        "asm": "OP_DUP OP_HASH160 b7218fe503cd18555255e5b13d4f07f3fd00d0c9 OP_EQUALVERIFY OP_CHECKSIG",
        "hex": "76a914b7218fe503cd18555255e5b13d4f07f3fd00d0c988ac",
        "reqSigs": 1,
        "type": "pubkeyhash",
        "addresses": [
          "1HhJs3JgbiyxC8ktfi6nU4wTqVmrMtCVkG"
        ]
      }
    }
  ],
  "blockhash": "00000000000000000df36d5c058d3b256894c1339a12561005be038691969a3e",
  "confirmations": 78069,
  "time": 1434182956,
  "blocktime": 1434182956
}