{
  "hex": "01000000032faa228eeb2aa59b652f9e90020224482a93e56650505323de8f8f8f1de83d8b020000006a473044022063a8bc218fc1309428f65f222272215a739ba6ec3ef4b4602b22da9eb2ce6ed202207f8e0e60d418a8fa66d4608ff13829df6d40b7cbd52223390678aebeb37063b601210372107bf36f6c980bf5070e7004c743396bde827c5d735a9fcbcb35f215f23173ffffffffc1531abc3a82f6ac4f9b0c9dbd821b8626f335d4fa89c16100b3748a28a1d429020000006a4730440220674c828a08ab9545d3e82fa3720b3d66ceaed4e5fd241a27dd1f54fd126b325b022077debe1ebc3395a9283587f0b074dc1f8ce1b0483775180ecfccf990ae8d0f5f01210372107bf36f6c980bf5070e7004c743396bde827c5d735a9fcbcb35f215f23173ffffffff6bfed6ec52a26110a2bfdf65ffd18196a3913e7bb03629e6b9be1ff02ad7d07f020000006a47304402202a227da68fa66ed75886baee16eb565740473f699c6a5bd900aea610d27f63c202207d61b50e80b5f1a3fce481e59c733aaf8cc0624f8a5380d44a46d1143f704bc801210372107bf36f6c980bf5070e7004c743396bde827c5d735a9fcbcb35f215f23173ffffffff0196e20500000000001976a91429e38883cd397cf8f53d1676abd6dcad25cc134888ac00000000",
  "txid": "7dd8296f38db7148d81fa88114becd96fd5064113bea0bcf1c24809ea863ee5a",
  "hash": "7dd8296f38db7148d81fa88114becd96fd5064113bea0bcf1c24809ea863ee5a",
  "size": 485,
  "vsize": 485,
  "version": 1,
  "locktime": 0,
  "vin": [
    {
      "txid": "8b3de81d8f8f8fde2353505066e5932a48240202909e2f659ba52aeb8e22aa2f",
      "vout": 2,
      "scriptSig": {
        "asm": "3044022063a8bc218fc1309428f65f222272215a739ba6ec3ef4b4602b22da9eb2ce6ed202207f8e0e60d418a8fa66d4608ff13829df6d40b7cbd52223390678aebeb37063b6[ALL] 0372107bf36f6c980bf5070e7004c743396bde827c5d735a9fcbcb35f215f23173",
        "hex": "473044022063a8bc218fc1309428f65f222272215a739ba6ec3ef4b4602b22da9eb2ce6ed202207f8e0e60d418a8fa66d4608ff13829df6d40b7cbd52223390678aebeb37063b601210372107bf36f6c980bf5070e7004c743396bde827c5d735a9fcbcb35f215f23173"
      },
      "sequence": 4294967295
    },
    {
      "txid": "29d4a1288a74b30061c189fad435f326861b82bd9d0c9b4facf6823abc1a53c1",
      "vout": 2,
      "scriptSig": {
        "asm": "30440220674c828a08ab9545d3e82fa3720b3d66ceaed4e5fd241a27dd1f54fd126b325b022077debe1ebc3395a9283587f0b074dc1f8ce1b0483775180ecfccf990ae8d0f5f[ALL] 0372107bf36f6c980bf5070e7004c743396bde827c5d735a9fcbcb35f215f23173",
        "hex": "4730440220674c828a08ab9545d3e82fa3720b3d66ceaed4e5fd241a27dd1f54fd126b325b022077debe1ebc3395a9283587f0b074dc1f8ce1b0483775180ecfccf990ae8d0f5f01210372107bf36f6c980bf5070e7004c743396bde827c5d735a9fcbcb35f215f23173"
      },
      "sequence": 4294967295
    },
    {
      "txid": "7fd0d72af01fbeb9e62936b07b3e91a39681d1ff65dfbfa21061a252ecd6fe6b",
      "vout": 2,
      "scriptSig": {
        "asm": "304402202a227da68fa66ed75886baee16eb565740473f699c6a5bd900aea610d27f63c202207d61b50e80b5f1a3fce481e59c733aaf8cc0624f8a5380d44a46d1143f704bc8[ALL] 0372107bf36f6c980bf5070e7004c743396bde827c5d735a9fcbcb35f215f23173",
        "hex": "47304402202a227da68fa66ed75886baee16eb565740473f699c6a5bd900aea610d27f63c202207d61b50e80b5f1a3fce481e59c733aaf8cc0624f8a5380d44a46d1143f704bc801210372107bf36f6c980bf5070e7004c743396bde827c5d735a9fcbcb35f215f23173"
      },
      "sequence": 4294967295
    }
  ],
  "vout": [
    {
      "value": 0.00385686,
      "n": 0,
      "scriptPubKey": {
        "asm": "OP_DUP OP_HASH160 29e38883cd397cf8f53d1676abd6dcad25cc1348 OP_EQUALVERIFY OP_CHECKSIG",
        "hex": "76a91429e38883cd397cf8f53d1676abd6dcad25cc134888ac",
        "reqSigs": 1,
        "type": "pubkeyhash",
        "addresses": [
          "mjLSaCyJHCSeh4MsiNGnF1RLqD9ySqnAQ1"
        ]
      }
    }
  ],
  "blockhash": "00000000008dbbe17ab8faadea58003dec9271e8774fb10378157a19dc7a54bc",
  "confirmations": 187214,
  "time": 1463139038,
  "blocktime": 1463139038
}