{
  "hex": "0100000002d57f29f2ddca6dc2873fd518fc7a30e9071d03e6783dc97aed0b282c793726d6000000006b4830450221009ab8161ca948060bd3ac5f91fb4ad1d6a893f92a404b9223b2494598f586403e02207c57b202e67f27f9a95ab3a675ee897381b32dcf836c6d44e8fb0830d9fb390f012102174620b7c583dc471e04b604fc85f7ae19d161a070af7227ca03edfcb6c4dc4fffffffff08fcc35a4b46b36be2b07b5dc06bb635956597d5ea79b028a0a2f70ae6cf6fd6000000006b483045022100d769e648c9cefeee9d537f519b843de603ab15fc8c47e87e42cba7d9a2e57ad202201072a79259464a0dfbffdd342d3fe9eab36c34f09330334e63e139f11313524c012102174620b7c583dc471e04b604fc85f7ae19d161a070af7227ca03edfcb6c4dc4fffffffff0400000000000000000a6a084f41010002055f0058020000000000001976a914b7218fe503cd18555255e5b13d4f07f3fd00d0c988ac58020000000000001976a914de20a2d5a57ee40ce9a4ce14cf06a6c2c6ffe29788acb8770700000000001976a914de20a2d5a57ee40ce9a4ce14cf06a6c2c6ffe29788ac00000000",
  "txid": "829200296bbbe5f95829c489adb9841ae1b563a64f5922e66f73ba61673008e1",
  "size": 427,
  "version": 1,
  "locktime": 0,
  "vin": [
    {
      "txid": "d62637792c280bed7ac93d78e6031d07e9307afc18d53f87c26dcaddf2297fd5",
      "vout": 0,
      "scriptSig": {
        "asm": "30450221009ab8161ca948060bd3ac5f91fb4ad1d6a893f92a404b9223b2494598f586403e02207c57b202e67f27f9a95ab3a675ee897381b32dcf836c6d44e8fb0830d9fb390f[ALL] 02174620b7c583dc471e04b604fc85f7ae19d161a070af7227ca03edfcb6c4dc4f",
        "hex": "4830450221009ab8161ca948060bd3ac5f91fb4ad1d6a893f92a404b9223b2494598f586403e02207c57b202e67f27f9a95ab3a675ee897381b32dcf836c6d44e8fb0830d9fb390f012102174620b7c583dc471e04b604fc85f7ae19d161a070af7227ca03edfcb6c4dc4f"
      },
      "sequence": 4294967295
    },
    {
      "txid": "d66fcfe60af7a2a028b079ead597659535b66bc05d7bb0e26bb3464b5ac3fc08",
      "vout": 0,
      "scriptSig": {
        "asm": "3045022100d769e648c9cefeee9d537f519b843de603ab15fc8c47e87e42cba7d9a2e57ad202201072a79259464a0dfbffdd342d3fe9eab36c34f09330334e63e139f11313524c[ALL] 02174620b7c583dc471e04b604fc85f7ae19d161a070af7227ca03edfcb6c4dc4f",
        "hex": "483045022100d769e648c9cefeee9d537f519b843de603ab15fc8c47e87e42cba7d9a2e57ad202201072a79259464a0dfbffdd342d3fe9eab36c34f09330334e63e139f11313524c012102174620b7c583dc471e04b604fc85f7ae19d161a070af7227ca03edfcb6c4dc4f"
      },
      "sequence": 4294967295
    }
  ],
  "vout": [
    {
      "value": 0.00000000,
      "n": 0,
      "scriptPubKey": {
        "asm": "OP_RETURN 4f41010002055f00",
        "hex": "6a084f41010002055f00",
        "type": "nulldata"
      }
    },
    {
      "value": 0.00000600,
      "n": 1,
      "scriptPubKey": {
        "asm": "OP_DUP OP_HASH160 b7218fe503cd18555255e5b13d4f07f3fd00d0c9 OP_EQUALVERIFY OP_CHECKSIG",
        "hex": "76a914b7218fe503cd18555255e5b13d4f07f3fd00d0c988ac",
        "reqSigs": 1,
        "type": "pubkeyhash",
        "addresses": [
          "1HhJs3JgbiyxC8ktfi6nU4wTqVmrMtCVkG"
        ]
      }
    },
    {
      "value": 0.00000600,
      "n": 2,
      "scriptPubKey": {
        "asm": "OP_DUP OP_HASH160 de20a2d5a57ee40ce9a4ce14cf06a6c2c6ffe297 OP_EQUALVERIFY OP_CHECKSIG",
        "hex": "76a914de20a2d5a57ee40ce9a4ce14cf06a6c2c6ffe29788ac",
        "reqSigs": 1,
        "type": "pubkeyhash",
        "addresses": [
          "1MFW7BTwiNbAkmVz4SzAMQXboKYKGSzkq2"
        ]
      }
    },
    {
      "value": 0.00489400,
      "n": 3,
      "scriptPubKey": {
        "asm": "OP_DUP OP_HASH160 de20a2d5a57ee40ce9a4ce14cf06a6c2c6ffe297 OP_EQUALVERIFY OP_CHECKSIG",
        "hex": "76a914de20a2d5a57ee40ce9a4ce14cf06a6c2c6ffe29788ac",
        "reqSigs": 1,
        "type": "pubkeyhash",
        "addresses": [
          "1MFW7BTwiNbAkmVz4SzAMQXboKYKGSzkq2"
        ]
      }
    }
  ],
  "blockhash": "000000000000000016971bc575a227769049ee5945322cc75ae7052436e6a8c8",
  "confirmations": 78536,
  "time": 1433912620,
  "blocktime": 1433912620
}