{
  "hex": "0100000002601c8e18d88537c1bae0691c0d8b768c952b4402b114d5964f692c140d719a8e020000006a47304402204499758dab8e117c40f640de25f2a487989be277a84c54a2fe027914ec4d2a59022079641263d4463d821802af282ff3c3a30ebf0e68c77f6027c8b1d00eebe1ca6a012102174620b7c583dc471e04b604fc85f7ae19d161a070af7227ca03edfcb6c4dc4fffffffff601c8e18d88537c1bae0691c0d8b768c952b4402b114d5964f692c140d719a8e030000006b483045022100bedf89e7302f8e2cc4ce5c4f8fd31ee0093e362a348df197c30725ece485bca702206605a643f16da53ce72a13c22b98166e4eeb7fcb8e744c415c2b514b35b54a77012102174620b7c583dc471e04b604fc85f7ae19d161a070af7227ca03edfcb6c4dc4fffffffff0400000000000000000a6a084f4101000201440058020000000000001976a914b7218fe503cd18555255e5b13d4f07f3fd00d0c988ac58020000000000001976a914de20a2d5a57ee40ce9a4ce14cf06a6c2c6ffe29788ac80fb0600000000001976a914de20a2d5a57ee40ce9a4ce14cf06a6c2c6ffe29788ac00000000",
  "txid": "8382f29f591222a8e2c8a4f617516353f5e88774133f220950ed1fe0edfeef25",
  "size": 426,
  "version": 1,
  "locktime": 0,
  "vin": [
    {
      "txid": "8e9a710d142c694f96d514b102442b958c768b0d1c69e0bac13785d8188e1c60",
      "vout": 2,
      "scriptSig": {
        "asm": "304402204499758dab8e117c40f640de25f2a487989be277a84c54a2fe027914ec4d2a59022079641263d4463d821802af282ff3c3a30ebf0e68c77f6027c8b1d00eebe1ca6a[ALL] 02174620b7c583dc471e04b604fc85f7ae19d161a070af7227ca03edfcb6c4dc4f",
        "hex": "47304402204499758dab8e117c40f640de25f2a487989be277a84c54a2fe027914ec4d2a59022079641263d4463d821802af282ff3c3a30ebf0e68c77f6027c8b1d00eebe1ca6a012102174620b7c583dc471e04b604fc85f7ae19d161a070af7227ca03edfcb6c4dc4f"
      },
      "sequence": 4294967295
    },
    {
      "txid": "8e9a710d142c694f96d514b102442b958c768b0d1c69e0bac13785d8188e1c60",
      "vout": 3,
      "scriptSig": {
        "asm": "3045022100bedf89e7302f8e2cc4ce5c4f8fd31ee0093e362a348df197c30725ece485bca702206605a643f16da53ce72a13c22b98166e4eeb7fcb8e744c415c2b514b35b54a77[ALL] 02174620b7c583dc471e04b604fc85f7ae19d161a070af7227ca03edfcb6c4dc4f",
        "hex": "483045022100bedf89e7302f8e2cc4ce5c4f8fd31ee0093e362a348df197c30725ece485bca702206605a643f16da53ce72a13c22b98166e4eeb7fcb8e744c415c2b514b35b54a77012102174620b7c583dc471e04b604fc85f7ae19d161a070af7227ca03edfcb6c4dc4f"
      },
      "sequence": 4294967295
    }
  ],
  "vout": [
    {
      "value": 0.00000000,
      "n": 0,
      "scriptPubKey": {
        "asm": "OP_RETURN 4f41010002014400",
        "hex": "6a084f41010002014400",
        "type": "nulldata"
      }
    },
    {
      "value": 0.00000600,
      "n": 1,
      "scriptPubKey": {
        "asm": "OP_DUP OP_HASH160 b7218fe503cd18555255e5b13d4f07f3fd00d0c9 OP_EQUALVERIFY OP_CHECKSIG",
        "hex": "76a914b7218fe503cd18555255e5b13d4f07f3fd00d0c988ac",
        "reqSigs": 1,
        "type": "pubkeyhash",
        "addresses": [
          "1HhJs3JgbiyxC8ktfi6nU4wTqVmrMtCVkG"
        ]
      }
    },
    {
      "value": 0.00000600,
      "n": 2,
      "scriptPubKey": {
        "asm": "OP_DUP OP_HASH160 de20a2d5a57ee40ce9a4ce14cf06a6c2c6ffe297 OP_EQUALVERIFY OP_CHECKSIG",
        "hex": "76a914de20a2d5a57ee40ce9a4ce14cf06a6c2c6ffe29788ac",
        "reqSigs": 1,
        "type": "pubkeyhash",
        "addresses": [
          "1MFW7BTwiNbAkmVz4SzAMQXboKYKGSzkq2"
        ]
      }
    },
    {
      "value": 0.00457600,
      "n": 3,
      "scriptPubKey": {
        "asm": "OP_DUP OP_HASH160 de20a2d5a57ee40ce9a4ce14cf06a6c2c6ffe297 OP_EQUALVERIFY OP_CHECKSIG",
        "hex": "76a914de20a2d5a57ee40ce9a4ce14cf06a6c2c6ffe29788ac",
        "reqSigs": 1,
        "type": "pubkeyhash",
        "addresses": [
          "1MFW7BTwiNbAkmVz4SzAMQXboKYKGSzkq2"
        ]
      }
    }
  ],
  "blockhash": "0000000000000000167cff0f703ab63b2dbd4cfb2cef441cbbc2301b499bf4aa",
  "confirmations": 78265,
  "time": 1434067459,
  "blocktime": 1434067459
}