{
  "hex": "0100000001092b14324c88f76e76ece107af1f38d96c675e0e5b40f456d8d20ebf9ab6aa45050000006b483045022100f9235046b7177c32f68a70926e0853d006cee621d2c4abe4594c33341cfa5b5c022033916fab71ea2b4cd95acd845af6082da2466fb96939b6c9e66641c8a68e0b2d01210292ee82d9add0512294723f2c363aee24efdeb3f258cdaf5118a4fcf5263e92c9ffffffff03580200000000000017a914789644ea7fcdefe94934cc9d13545e8b0fe2fc478700000000000000000b6a094f41010001d086030060030100000000001976a91446c2fbfbecc99a63148fa076de58cf29b0bcf0b088ac00000000",
  "txid": "88b5379ca502953d7d24f686f165a87bf776ffc511ef5e6e8a54d8da108ee00a",
  "hash": "88b5379ca502953d7d24f686f165a87bf776ffc511ef5e6e8a54d8da108ee00a",
  "size": 244,
  "vsize": 244,
  "version": 1,
  "locktime": 0,
  "vin": [
    {
      "txid": "45aab69abf0ed2d856f4405b0e5e676cd9381faf07e1ec766ef7884c32142b09",
      "vout": 5,
      "scriptSig": {
        "asm": "3045022100f9235046b7177c32f68a70926e0853d006cee621d2c4abe4594c33341cfa5b5c022033916fab71ea2b4cd95acd845af6082da2466fb96939b6c9e66641c8a68e0b2d[ALL] 0292ee82d9add0512294723f2c363aee24efdeb3f258cdaf5118a4fcf5263e92c9",
        "hex": "483045022100f9235046b7177c32f68a70926e0853d006cee621d2c4abe4594c33341cfa5b5c022033916fab71ea2b4cd95acd845af6082da2466fb96939b6c9e66641c8a68e0b2d01210292ee82d9add0512294723f2c363aee24efdeb3f258cdaf5118a4fcf5263e92c9"
      },
      "sequence": 4294967295
    }
  ],
  "vout": [
    {
      "value": 0.00000600,
      "n": 0,
      "scriptPubKey": {
        "asm": "OP_HASH160 789644ea7fcdefe94934cc9d13545e8b0fe2fc47 OP_EQUAL",
        "hex": "a914789644ea7fcdefe94934cc9d13545e8b0fe2fc4787",
        "reqSigs": 1,
        "type": "scripthash",
        "addresses": [
          "2N4Eq6C2Nh1Zj2noCh63ttPnVtuWkpJmHCS"
        ]
      }
    },
    {
      "value": 0.00000000,
      "n": 1,
      "scriptPubKey": {
        "asm": "OP_RETURN 4f41010001d0860300",
        "hex": "6a094f41010001d0860300",
        "type": "nulldata"
      }
    },
    {
      "value": 0.00066400,
      "n": 2,
      "scriptPubKey": {
        "asm": "OP_DUP OP_HASH160 46c2fbfbecc99a63148fa076de58cf29b0bcf0b0 OP_EQUALVERIFY OP_CHECKSIG",
        "hex": "76a91446c2fbfbecc99a63148fa076de58cf29b0bcf0b088ac",
        "reqSigs": 1,
        "type": "pubkeyhash",
        "addresses": [
          "mmy7BEH1SUGAeSVUR22pt5hPaejo2645F1"
        ]
      }
    }
  ],
  "blockhash": "0000000000000cd789d6d1da862795d5bab38231b291f2c7c6f3f3eaf9a6b296",
  "confirmations": 63982,
  "time": 1475636030,
  "blocktime": 1475636030
}