{
  "hex": "0100000002daf4aac18a09390ba73aa0a905e13c55d721e6b133d4a3fd352506803e99020c020000006a47304402204fc5339a84a2cb85d8dbc5692401ddcddc0f7ceda094d58019c1b1e0725d616502207c416e182a0d40216898db84d76e07e8ef37086dabf16a86d0522357de4dbe06012102174620b7c583dc471e04b604fc85f7ae19d161a070af7227ca03edfcb6c4dc4fffffffffdaf4aac18a09390ba73aa0a905e13c55d721e6b133d4a3fd352506803e99020c030000006a4730440220652824656888d25ca13d5badcea616b83fa260391a83467ba0b2c9e827eef07e0220435851f746b6a6948d8b3692015ce83c2eeb41ba898fcfafefa530b0e4af2ad4012102174620b7c583dc471e04b604fc85f7ae19d161a070af7227ca03edfcb6c4dc4fffffffff0400000000000000000a6a084f4101000201450058020000000000001976a914b7218fe503cd18555255e5b13d4f07f3fd00d0c988ac58020000000000001976a914de20a2d5a57ee40ce9a4ce14cf06a6c2c6ffe29788ace8240700000000001976a914de20a2d5a57ee40ce9a4ce14cf06a6c2c6ffe29788ac00000000",
  "txid": "8e9a710d142c694f96d514b102442b958c768b0d1c69e0bac13785d8188e1c60",
  "size": 425,
  "version": 1,
  "locktime": 0,
  "vin": [
    {
      "txid": "0c02993e80062535fda3d433b1e621d7553ce105a9a03aa70b39098ac1aaf4da",
      "vout": 2,
      "scriptSig": {
        "asm": "304402204fc5339a84a2cb85d8dbc5692401ddcddc0f7ceda094d58019c1b1e0725d616502207c416e182a0d40216898db84d76e07e8ef37086dabf16a86d0522357de4dbe06[ALL] 02174620b7c583dc471e04b604fc85f7ae19d161a070af7227ca03edfcb6c4dc4f",
        "hex": "47304402204fc5339a84a2cb85d8dbc5692401ddcddc0f7ceda094d58019c1b1e0725d616502207c416e182a0d40216898db84d76e07e8ef37086dabf16a86d0522357de4dbe06012102174620b7c583dc471e04b604fc85f7ae19d161a070af7227ca03edfcb6c4dc4f"
      },
      "sequence": 4294967295
    },
    {
      "txid": "0c02993e80062535fda3d433b1e621d7553ce105a9a03aa70b39098ac1aaf4da",
      "vout": 3,
      "scriptSig": {
        "asm": "30440220652824656888d25ca13d5badcea616b83fa260391a83467ba0b2c9e827eef07e0220435851f746b6a6948d8b3692015ce83c2eeb41ba898fcfafefa530b0e4af2ad4[ALL] 02174620b7c583dc471e04b604fc85f7ae19d161a070af7227ca03edfcb6c4dc4f",
        "hex": "4730440220652824656888d25ca13d5badcea616b83fa260391a83467ba0b2c9e827eef07e0220435851f746b6a6948d8b3692015ce83c2eeb41ba898fcfafefa530b0e4af2ad4012102174620b7c583dc471e04b604fc85f7ae19d161a070af7227ca03edfcb6c4dc4f"
      },
      "sequence": 4294967295
    }
  ],
  "vout": [
    {
      "value": 0.00000000,
      "n": 0,
      "scriptPubKey": {
        "asm": "OP_RETURN 4f41010002014500",
        "hex": "6a084f41010002014500",
        "type": "nulldata"
      }
    },
    {
      "value": 0.00000600,
      "n": 1,
      "scriptPubKey": {
        "asm": "OP_DUP OP_HASH160 b7218fe503cd18555255e5b13d4f07f3fd00d0c9 OP_EQUALVERIFY OP_CHECKSIG",
        "hex": "76a914b7218fe503cd18555255e5b13d4f07f3fd00d0c988ac",
        "reqSigs": 1,
        "type": "pubkeyhash",
        "addresses": [
          "1HhJs3JgbiyxC8ktfi6nU4wTqVmrMtCVkG"
        ]
      }
    },
    {
      "value": 0.00000600,
      "n": 2,
      "scriptPubKey": {
        "asm": "OP_DUP OP_HASH160 de20a2d5a57ee40ce9a4ce14cf06a6c2c6ffe297 OP_EQUALVERIFY OP_CHECKSIG",
        "hex": "76a914de20a2d5a57ee40ce9a4ce14cf06a6c2c6ffe29788ac",
        "reqSigs": 1,
        "type": "pubkeyhash",
        "addresses": [
          "1MFW7BTwiNbAkmVz4SzAMQXboKYKGSzkq2"
        ]
      }
    },
    {
      "value": 0.00468200,
      "n": 3,
      "scriptPubKey": {
        "asm": "OP_DUP OP_HASH160 de20a2d5a57ee40ce9a4ce14cf06a6c2c6ffe297 OP_EQUALVERIFY OP_CHECKSIG",
        "hex": "76a914de20a2d5a57ee40ce9a4ce14cf06a6c2c6ffe29788ac",
        "reqSigs": 1,
        "type": "pubkeyhash",
        "addresses": [
          "1MFW7BTwiNbAkmVz4SzAMQXboKYKGSzkq2"
        ]
      }
    }
  ],
  "blockhash": "0000000000000000167cff0f703ab63b2dbd4cfb2cef441cbbc2301b499bf4aa",
  "confirmations": 78265,
  "time": 1434067459,
  "blocktime": 1434067459
}