{
  "hex": "010000000149c2928fed19a378e61b7327f4aa200e8de82fc47a538fb9458be922501f6ec6010000006a47304402203fd1e6a9d85112675fbbbf8bbe795467f97a04f5f473dd7b3acfa9c8d300b2460220273355e9e55ceb69625399fcf9f082fe73777876174d53d18ad8b3ade4ef948b01210292ee82d9add0512294723f2c363aee24efdeb3f258cdaf5118a4fcf5263e92c9ffffffff0358020000000000001976a91446c2fbfbecc99a63148fa076de58cf29b0bcf0b088ac00000000000000000a6a084f41010001e80700385d0100000000001976a91446c2fbfbecc99a63148fa076de58cf29b0bcf0b088ac00000000",
  "txid": "90abd841f9be2340eb42bcba3dd5283dbdfc5cd0b23a4364768a69b6e210f829",
  "hash": "90abd841f9be2340eb42bcba3dd5283dbdfc5cd0b23a4364768a69b6e210f829",
  "size": 244,
  "vsize": 244,
  "version": 1,
  "locktime": 0,
  "vin": [
    {
      "txid": "c66e1f5022e98b45b98f537ac42fe88d0e20aaf427731be678a319ed8f92c249",
      "vout": 1,
      "scriptSig": {
        "asm": "304402203fd1e6a9d85112675fbbbf8bbe795467f97a04f5f473dd7b3acfa9c8d300b2460220273355e9e55ceb69625399fcf9f082fe73777876174d53d18ad8b3ade4ef948b[ALL] 0292ee82d9add0512294723f2c363aee24efdeb3f258cdaf5118a4fcf5263e92c9",
        "hex": "47304402203fd1e6a9d85112675fbbbf8bbe795467f97a04f5f473dd7b3acfa9c8d300b2460220273355e9e55ceb69625399fcf9f082fe73777876174d53d18ad8b3ade4ef948b01210292ee82d9add0512294723f2c363aee24efdeb3f258cdaf5118a4fcf5263e92c9"
      },
      "sequence": 4294967295
    }
  ],
  "vout": [
    {
      "value": 0.00000600,
      "n": 0,
      "scriptPubKey": {
        "asm": "OP_DUP OP_HASH160 46c2fbfbecc99a63148fa076de58cf29b0bcf0b0 OP_EQUALVERIFY OP_CHECKSIG",
        "hex": "76a91446c2fbfbecc99a63148fa076de58cf29b0bcf0b088ac",
        "reqSigs": 1,
        "type": "pubkeyhash",
        "addresses": [
          "mmy7BEH1SUGAeSVUR22pt5hPaejo2645F1"
        ]
      }
    },
    {
      "value": 0.00000000,
      "n": 1,
      "scriptPubKey": {
        "asm": "OP_RETURN 4f41010001e80700",
        "hex": "6a084f41010001e80700",
        "type": "nulldata"
      }
    },
    {
      "value": 0.00089400,
      "n": 2,
      "scriptPubKey": {
        "asm": "OP_DUP OP_HASH160 46c2fbfbecc99a63148fa076de58cf29b0bcf0b0 OP_EQUALVERIFY OP_CHECKSIG",
        "hex": "76a91446c2fbfbecc99a63148fa076de58cf29b0bcf0b088ac",
        "reqSigs": 1,
        "type": "pubkeyhash",
        "addresses": [
          "mmy7BEH1SUGAeSVUR22pt5hPaejo2645F1"
        ]
      }
    }
  ],
  "blockhash": "0000000000022c774457f2e58b0e49fd0d568707e989fabd813a75e4c5540009",
  "confirmations": 134762,
  "time": 1469349394,
  "blocktime": 1469349394
}