{
  "hex": "0100000002601c8e18d88537c1bae0691c0d8b768c952b4402b114d5964f692c140d719a8e010000006a4730440220013d9250bd071fff47d9a348acbf032a599df75172ce5c99e7037744e85e5ae90220362d35615d325aaf1e8780659fea03e8e7d4a1a277b33870cf383631c2d6206c012102544912ce55bcab484f5d2ba0f54c420160f37c3978b68b0fa67cc92417739b3effffffff84392fd69b08f4603d200fabfff16f4bbb10e65ece347b3c9d9863ab3807f17b020000006b4830450221009db1641290041a3578e6928a6b9a76c40cb3912f98677b2fbdccc9e2988a4a1802201819f8e3da8edc6012397290c29fefede2b749cc97474f9cfea30bba86217e2b012102544912ce55bcab484f5d2ba0f54c420160f37c3978b68b0fa67cc92417739b3effffffff030000000000000000096a074f41010001010058020000000000001976a91424b3d405bc60bd9628691fe28bb00f6800e1480688ac20670000000000001976a914b7218fe503cd18555255e5b13d4f07f3fd00d0c988ac00000000",
  "txid": "92ecb6c38bfefc3b6ff8b48a2dd14ece823d37c02adbeeeeede5a801e4926ece",
  "size": 391,
  "version": 1,
  "locktime": 0,
  "vin": [
    {
      "txid": "8e9a710d142c694f96d514b102442b958c768b0d1c69e0bac13785d8188e1c60",
      "vout": 1,
      "scriptSig": {
        "asm": "30440220013d9250bd071fff47d9a348acbf032a599df75172ce5c99e7037744e85e5ae90220362d35615d325aaf1e8780659fea03e8e7d4a1a277b33870cf383631c2d6206c[ALL] 02544912ce55bcab484f5d2ba0f54c420160f37c3978b68b0fa67cc92417739b3e",
        "hex": "4730440220013d9250bd071fff47d9a348acbf032a599df75172ce5c99e7037744e85e5ae90220362d35615d325aaf1e8780659fea03e8e7d4a1a277b33870cf383631c2d6206c012102544912ce55bcab484f5d2ba0f54c420160f37c3978b68b0fa67cc92417739b3e"
      },
      "sequence": 4294967295
    },
    {
      "txid": "7bf10738ab63989d3c7b34ce5ee610bb4b6ff1ffab0f203d60f4089bd62f3984",
      "vout": 2,
      "scriptSig": {
        "asm": "30450221009db1641290041a3578e6928a6b9a76c40cb3912f98677b2fbdccc9e2988a4a1802201819f8e3da8edc6012397290c29fefede2b749cc97474f9cfea30bba86217e2b[ALL] 02544912ce55bcab484f5d2ba0f54c420160f37c3978b68b0fa67cc92417739b3e",
        "hex": "4830450221009db1641290041a3578e6928a6b9a76c40cb3912f98677b2fbdccc9e2988a4a1802201819f8e3da8edc6012397290c29fefede2b749cc97474f9cfea30bba86217e2b012102544912ce55bcab484f5d2ba0f54c420160f37c3978b68b0fa67cc92417739b3e"
      },
      "sequence": 4294967295
    }
  ],
  "vout": [
    {
      "value": 0.00000000,
      "n": 0,
      "scriptPubKey": {
        "asm": "OP_RETURN 4f410100010100",
        "hex": "6a074f410100010100",
        "type": "nulldata"
      }
    },
    {
      "value": 0.00000600,
      "n": 1,
      "scriptPubKey": {
        "asm": "OP_DUP OP_HASH160 24b3d405bc60bd9628691fe28bb00f6800e14806 OP_EQUALVERIFY OP_CHECKSIG",
        "hex": "76a91424b3d405bc60bd9628691fe28bb00f6800e1480688ac",
        "reqSigs": 1,
        "type": "pubkeyhash",
        "addresses": [
          "14M4kbAtn71P1nnNYuhBDFTNYxa19t1XP6"
        ]
      }
    },
    {
      "value": 0.00026400,
      "n": 2,
      "scriptPubKey": {
        "asm": "OP_DUP OP_HASH160 b7218fe503cd18555255e5b13d4f07f3fd00d0c9 OP_EQUALVERIFY OP_CHECKSIG",
        "hex": "76a914b7218fe503cd18555255e5b13d4f07f3fd00d0c988ac",
        "reqSigs": 1,
        "type": "pubkeyhash",
        "addresses": [
          "1HhJs3JgbiyxC8ktfi6nU4wTqVmrMtCVkG"
        ]
      }
    }
  ],
  "blockhash": "00000000000000000df36d5c058d3b256894c1339a12561005be038691969a3e",
  "confirmations": 78069,
  "time": 1434182956,
  "blocktime": 1434182956
}