{
  "hex": "010000000130fb1d774e51998e33a37ca2b0ab895f97148891d152f3c2f2c508f1a772abf2000000006b483045022100a73b9f64f47ab8d85d00b3f98fbe047080a62a1392cfdc46f229cbca40c60cf80220028f064b3cb3294f96d0751713c355e0185cbdf86f1c65f8d3a1015f71151c93012102fada989e132f5c7002c18c7fa6971f6c214d634eeb9b6d86077a63708cb66776ffffffff0358020000000000001976a914878bd346b688c798eeeff329c6ffafddddbaa0f288ac0000000000000000206a1e4f41010001d00f16753d687474703a2f2f676f6f2e676c2f6653346d456a385d0100000000001976a914878bd346b688c798eeeff329c6ffafddddbaa0f288ac00000000",
  "txid": "950a882a74bd2fd4f287090f0c467d144f832388898914d198bb03f2cc612f6e",
  "size": 267,
  "version": 1,
  "locktime": 0,
  "vin": [
    {
      "txid": "f2ab72a7f108c5f2c2f352d1918814975f89abb0a27ca3338e99514e771dfb30",
      "vout": 0,
      "scriptSig": {
        "asm": "3045022100a73b9f64f47ab8d85d00b3f98fbe047080a62a1392cfdc46f229cbca40c60cf80220028f064b3cb3294f96d0751713c355e0185cbdf86f1c65f8d3a1015f71151c93[ALL] 02fada989e132f5c7002c18c7fa6971f6c214d634eeb9b6d86077a63708cb66776",
        "hex": "483045022100a73b9f64f47ab8d85d00b3f98fbe047080a62a1392cfdc46f229cbca40c60cf80220028f064b3cb3294f96d0751713c355e0185cbdf86f1c65f8d3a1015f71151c93012102fada989e132f5c7002c18c7fa6971f6c214d634eeb9b6d86077a63708cb66776"
      },
      "sequence": 4294967295
    }
  ],
  "vout": [
    {
      "value": 0.00000600,
      "n": 0,
      "scriptPubKey": {
        "asm": "OP_DUP OP_HASH160 878bd346b688c798eeeff329c6ffafddddbaa0f2 OP_EQUALVERIFY OP_CHECKSIG",
        "hex": "76a914878bd346b688c798eeeff329c6ffafddddbaa0f288ac",
        "reqSigs": 1,
        "type": "pubkeyhash",
        "addresses": [
          "1DMhj8VLajNUvhzXnZYnX8tgi7bReYeS13"
        ]
      }
    },
    {
      "value": 0.00000000,
      "n": 1,
      "scriptPubKey": {
        "asm": "OP_RETURN 4f41010001d00f16753d687474703a2f2f676f6f2e676c2f6653346d456a",
        "hex": "6a1e4f41010001d00f16753d687474703a2f2f676f6f2e676c2f6653346d456a",
        "type": "nulldata"
      }
    },
    {
      "value": 0.00089400,
      "n": 2,
      "scriptPubKey": {
        "asm": "OP_DUP OP_HASH160 878bd346b688c798eeeff329c6ffafddddbaa0f2 OP_EQUALVERIFY OP_CHECKSIG",
        "hex": "76a914878bd346b688c798eeeff329c6ffafddddbaa0f288ac",
        "reqSigs": 1,
        "type": "pubkeyhash",
        "addresses": [
          "1DMhj8VLajNUvhzXnZYnX8tgi7bReYeS13"
        ]
      }
    }
  ],
  "blockhash": "000000000000000000e712ce2545780ec976e6be4f43d89861970ab210f25539",
  "confirmations": 61100,
  "time": 1444118714,
  "blocktime": 1444118714
}