{
  "hex": "0100000002a36a2a6126cefc3725e6e280f8879a16ec8f175cd65b3d299ce27a15fb8bba3f020000006a4730440220765588e8dc5ccbd444d5718d44ee4327ab641aab3b7ca3e961c622517cec25d4022050fdbab13690df66c60e76e9846a79b28f927345492743e24573e2a4db823269012102544912ce55bcab484f5d2ba0f54c420160f37c3978b68b0fa67cc92417739b3effffffffa36a2a6126cefc3725e6e280f8879a16ec8f175cd65b3d299ce27a15fb8bba3f030000006a47304402204bc6f61dc18a925711cd4a98ff0290b6deb6b74cfe3a1748b63dba8b7ec41cdb0220748e312eb4c9dfec8f753cddf5746afc9fb7209cff831bd03bfaf1ade0e40b33012102544912ce55bcab484f5d2ba0f54c420160f37c3978b68b0fa67cc92417739b3effffffff0400000000000000000a6a084f4101000201010058020000000000001976a91424b3d405bc60bd9628691fe28bb00f6800e1480688ac58020000000000001976a914b7218fe503cd18555255e5b13d4f07f3fd00d0c988ac10080100000000001976a914b7218fe503cd18555255e5b13d4f07f3fd00d0c988ac00000000",
  "txid": "97f5fdfe133005c033ea3185202c53bb59d0760e9f9dd2cc2f8c50bbce8ec8bb",
  "size": 425,
  "version": 1,
  "locktime": 0,
  "vin": [
    {
      "txid": "3fba8bfb157ae29c293d5bd65c178fec169a87f880e2e62537fcce26612a6aa3",
      "vout": 2,
      "scriptSig": {
        "asm": "30440220765588e8dc5ccbd444d5718d44ee4327ab641aab3b7ca3e961c622517cec25d4022050fdbab13690df66c60e76e9846a79b28f927345492743e24573e2a4db823269[ALL] 02544912ce55bcab484f5d2ba0f54c420160f37c3978b68b0fa67cc92417739b3e",
        "hex": "4730440220765588e8dc5ccbd444d5718d44ee4327ab641aab3b7ca3e961c622517cec25d4022050fdbab13690df66c60e76e9846a79b28f927345492743e24573e2a4db823269012102544912ce55bcab484f5d2ba0f54c420160f37c3978b68b0fa67cc92417739b3e"
      },
      "sequence": 4294967295
    },
    {
      "txid": "3fba8bfb157ae29c293d5bd65c178fec169a87f880e2e62537fcce26612a6aa3",
      "vout": 3,
      "scriptSig": {
        "asm": "304402204bc6f61dc18a925711cd4a98ff0290b6deb6b74cfe3a1748b63dba8b7ec41cdb0220748e312eb4c9dfec8f753cddf5746afc9fb7209cff831bd03bfaf1ade0e40b33[ALL] 02544912ce55bcab484f5d2ba0f54c420160f37c3978b68b0fa67cc92417739b3e",
        "hex": "47304402204bc6f61dc18a925711cd4a98ff0290b6deb6b74cfe3a1748b63dba8b7ec41cdb0220748e312eb4c9dfec8f753cddf5746afc9fb7209cff831bd03bfaf1ade0e40b33012102544912ce55bcab484f5d2ba0f54c420160f37c3978b68b0fa67cc92417739b3e"
      },
      "sequence": 4294967295
    }
  ],
  "vout": [
    {
      "value": 0.00000000,
      "n": 0,
      "scriptPubKey": {
        "asm": "OP_RETURN 4f41010002010100",
        "hex": "6a084f41010002010100",
        "type": "nulldata"
      }
    },
    {
      "value": 0.00000600,
      "n": 1,
      "scriptPubKey": {
        "asm": "OP_DUP OP_HASH160 24b3d405bc60bd9628691fe28bb00f6800e14806 OP_EQUALVERIFY OP_CHECKSIG",
        "hex": "76a91424b3d405bc60bd9628691fe28bb00f6800e1480688ac",
        "reqSigs": 1,
        "type": "pubkeyhash",
        "addresses": [
          "14M4kbAtn71P1nnNYuhBDFTNYxa19t1XP6"
        ]
      }
    },
    {
      "value": 0.00000600,
      "n": 2,
      "scriptPubKey": {
        "asm": "OP_DUP OP_HASH160 b7218fe503cd18555255e5b13d4f07f3fd00d0c9 OP_EQUALVERIFY OP_CHECKSIG",
        "hex": "76a914b7218fe503cd18555255e5b13d4f07f3fd00d0c988ac",
        "reqSigs": 1,
        "type": "pubkeyhash",
        "addresses": [
          "1HhJs3JgbiyxC8ktfi6nU4wTqVmrMtCVkG"
        ]
      }
    },
    {
      "value": 0.00067600,
      "n": 3,
      "scriptPubKey": {
        "asm": "OP_DUP OP_HASH160 b7218fe503cd18555255e5b13d4f07f3fd00d0c9 OP_EQUALVERIFY OP_CHECKSIG",
        "hex": "76a914b7218fe503cd18555255e5b13d4f07f3fd00d0c988ac",
        "reqSigs": 1,
        "type": "pubkeyhash",
        "addresses": [
          "1HhJs3JgbiyxC8ktfi6nU4wTqVmrMtCVkG"
        ]
      }
    }
  ],
  "blockhash": "00000000000000000acbeea3dc11a45011c20c9b7a50c6df5971b001c1002c93",
  "confirmations": 78335,
  "time": 1434018883,
  "blocktime": 1434018883
}