{
  "hex": "0100000002df42fa4b84a6d3ad74c0b99c26d8863282d90baca4ad0db6dea0d4214541bf44020000006b483045022100d413ee31386cf803c0018f4156299c302b0093b7244271b1c951ab8372c66b1e022005d8c1ec186624c6f2880064c5b698f8a0bf57855a8eb5f379c3e1ea7ba5aa3a012102544912ce55bcab484f5d2ba0f54c420160f37c3978b68b0fa67cc92417739b3effffffffdf42fa4b84a6d3ad74c0b99c26d8863282d90baca4ad0db6dea0d4214541bf44030000006b48304502210085464bcf5b32efc3cbfe760a7679995d52cc0e3c2b978f0645c42d28023f16a602201b60c25685c43048a583da37f01a53decd5f1820c3cf026753faa4830ae47ef3012102544912ce55bcab484f5d2ba0f54c420160f37c3978b68b0fa67cc92417739b3effffffff0400000000000000000a6a084f4101000201170058020000000000001976a91424b3d405bc60bd9628691fe28bb00f6800e1480688ac58020000000000001976a914b7218fe503cd18555255e5b13d4f07f3fd00d0c988ac40b50000000000001976a914b7218fe503cd18555255e5b13d4f07f3fd00d0c988ac00000000",
  "txid": "9da5541e6653b03437264ab249170dccee24cdfe6351826df2f4b63079df2d4d",
  "size": 427,
  "version": 1,
  "locktime": 0,
  "vin": [
    {
      "txid": "44bf414521d4a0deb60dada4ac0bd9823286d8269cb9c074add3a6844bfa42df",
      "vout": 2,
      "scriptSig": {
        "asm": "3045022100d413ee31386cf803c0018f4156299c302b0093b7244271b1c951ab8372c66b1e022005d8c1ec186624c6f2880064c5b698f8a0bf57855a8eb5f379c3e1ea7ba5aa3a[ALL] 02544912ce55bcab484f5d2ba0f54c420160f37c3978b68b0fa67cc92417739b3e",
        "hex": "483045022100d413ee31386cf803c0018f4156299c302b0093b7244271b1c951ab8372c66b1e022005d8c1ec186624c6f2880064c5b698f8a0bf57855a8eb5f379c3e1ea7ba5aa3a012102544912ce55bcab484f5d2ba0f54c420160f37c3978b68b0fa67cc92417739b3e"
      },
      "sequence": 4294967295
    },
    {
      "txid": "44bf414521d4a0deb60dada4ac0bd9823286d8269cb9c074add3a6844bfa42df",
      "vout": 3,
      "scriptSig": {
        "asm": "304502210085464bcf5b32efc3cbfe760a7679995d52cc0e3c2b978f0645c42d28023f16a602201b60c25685c43048a583da37f01a53decd5f1820c3cf026753faa4830ae47ef3[ALL] 02544912ce55bcab484f5d2ba0f54c420160f37c3978b68b0fa67cc92417739b3e",
        "hex": "48304502210085464bcf5b32efc3cbfe760a7679995d52cc0e3c2b978f0645c42d28023f16a602201b60c25685c43048a583da37f01a53decd5f1820c3cf026753faa4830ae47ef3012102544912ce55bcab484f5d2ba0f54c420160f37c3978b68b0fa67cc92417739b3e"
      },
      "sequence": 4294967295
    }
  ],
  "vout": [
    {
      "value": 0.00000000,
      "n": 0,
      "scriptPubKey": {
        "asm": "OP_RETURN 4f41010002011700",
        "hex": "6a084f41010002011700",
        "type": "nulldata"
      }
    },
    {
      "value": 0.00000600,
      "n": 1,
      "scriptPubKey": {
        "asm": "OP_DUP OP_HASH160 24b3d405bc60bd9628691fe28bb00f6800e14806 OP_EQUALVERIFY OP_CHECKSIG",
        "hex": "76a91424b3d405bc60bd9628691fe28bb00f6800e1480688ac",
        "reqSigs": 1,
        "type": "pubkeyhash",
        "addresses": [
          "14M4kbAtn71P1nnNYuhBDFTNYxa19t1XP6"
        ]
      }
    },
    {
      "value": 0.00000600,
      "n": 2,
      "scriptPubKey": {
        "asm": "OP_DUP OP_HASH160 b7218fe503cd18555255e5b13d4f07f3fd00d0c9 OP_EQUALVERIFY OP_CHECKSIG",
        "hex": "76a914b7218fe503cd18555255e5b13d4f07f3fd00d0c988ac",
        "reqSigs": 1,
        "type": "pubkeyhash",
        "addresses": [
          "1HhJs3JgbiyxC8ktfi6nU4wTqVmrMtCVkG"
        ]
      }
    },
    {
      "value": 0.00046400,
      "n": 3,
      "scriptPubKey": {
        "asm": "OP_DUP OP_HASH160 b7218fe503cd18555255e5b13d4f07f3fd00d0c9 OP_EQUALVERIFY OP_CHECKSIG",
        "hex": "76a914b7218fe503cd18555255e5b13d4f07f3fd00d0c988ac",
        "reqSigs": 1,
        "type": "pubkeyhash",
        "addresses": [
          "1HhJs3JgbiyxC8ktfi6nU4wTqVmrMtCVkG"
        ]
      }
    }
  ],
  "blockhash": "00000000000000000f59477517f4b33dffcfaeffc42a06a586f3b58dffd7e356",
  "confirmations": 78129,
  "time": 1434151788,
  "blocktime": 1434151788
}