{
  "hex": "010000000122c442b89c652e32ba7e2cff90715b834b71834526bd509295baea5965b71e2d010000006a47304402202986a33a7c6077eb8039bbe39b304917f3dc655cc5b30a17d729f864fb1a19c502206e8e0c411018d41dfe0380b673a010e75fea6411ca9187f983084da5da6fefc50121029362a6141d20521f77af9c5f2b6573527602baae2f9e8819039a874647e95346ffffffff0358020000000000001976a914c70decc68bd86b6a8ae3a13b077af1a7304bdd5b88ac0000000000000000216a1f4f41010001e80717753d68747470733a2f2f676f6f2e676c2f755667737434385d0100000000001976a914c70decc68bd86b6a8ae3a13b077af1a7304bdd5b88ac00000000",
  "txid": "9e5402a9c1e673c8dbd26107f077a0d50092140ec501352d3f53662e9f89a0e7",
  "hash": "9e5402a9c1e673c8dbd26107f077a0d50092140ec501352d3f53662e9f89a0e7",
  "size": 267,
  "vsize": 267,
  "version": 1,
  "locktime": 0,
  "vin": [
    {
      "txid": "2d1eb76559eaba959250bd264583714b835b7190ff2c7eba322e659cb842c422",
      "vout": 1,
      "scriptSig": {
        "asm": "304402202986a33a7c6077eb8039bbe39b304917f3dc655cc5b30a17d729f864fb1a19c502206e8e0c411018d41dfe0380b673a010e75fea6411ca9187f983084da5da6fefc5[ALL] 029362a6141d20521f77af9c5f2b6573527602baae2f9e8819039a874647e95346",
        "hex": "47304402202986a33a7c6077eb8039bbe39b304917f3dc655cc5b30a17d729f864fb1a19c502206e8e0c411018d41dfe0380b673a010e75fea6411ca9187f983084da5da6fefc50121029362a6141d20521f77af9c5f2b6573527602baae2f9e8819039a874647e95346"
      },
      "sequence": 4294967295
    }
  ],
  "vout": [
    {
      "value": 0.00000600,
      "n": 0,
      "scriptPubKey": {
        "asm": "OP_DUP OP_HASH160 c70decc68bd86b6a8ae3a13b077af1a7304bdd5b OP_EQUALVERIFY OP_CHECKSIG",
        "hex": "76a914c70decc68bd86b6a8ae3a13b077af1a7304bdd5b88ac",
        "reqSigs": 1,
        "type": "pubkeyhash",
        "addresses": [
          "myfTSkKCbvNqf231xMR5sVCBTi8VvqfR4y"
        ]
      }
    },
    {
      "value": 0.00000000,
      "n": 1,
      "scriptPubKey": {
        "asm": "OP_RETURN 4f41010001e80717753d68747470733a2f2f676f6f2e676c2f755667737434",
        "hex": "6a1f4f41010001e80717753d68747470733a2f2f676f6f2e676c2f755667737434",
        "type": "nulldata"
      }
    },
    {
      "value": 0.00089400,
      "n": 2,
      "scriptPubKey": {
        "asm": "OP_DUP OP_HASH160 c70decc68bd86b6a8ae3a13b077af1a7304bdd5b OP_EQUALVERIFY OP_CHECKSIG",
        "hex": "76a914c70decc68bd86b6a8ae3a13b077af1a7304bdd5b88ac",
        "reqSigs": 1,
        "type": "pubkeyhash",
        "addresses": [
          "myfTSkKCbvNqf231xMR5sVCBTi8VvqfR4y"
        ]
      }
    }
  ],
  "blockhash": "00000000000511f59c43a46be7662179135d0a8102240b0f8d737405a6ad4a62",
  "confirmations": 386413,
  "time": 1453343236,
  "blocktime": 1453343236
}