{
  "hex": "0100000002bab7d2b0bfdd11bb8e7757bc575398bbaa8f30110f56590e1bf2dfff0c210c37000000006b483045022100ef7e82e77372407da5586acd77cf61a9d7682782b7ead0450ae220d07913555c0220101cb1a026a4c81204a01ec0c02e237f0d0c22f31fd87030e85640f1a53a2d5c0121033917dfab0a99833380034fa77159a812feb8333382e53075b88dcbebfde7cc49ffffffffbab7d2b0bfdd11bb8e7757bc575398bbaa8f30110f56590e1bf2dfff0c210c37020000006b483045022100ae225c601583b1e8cf6190ac6f7ae32df94aeb347d6bb7d17ee98532b94e9379022010718ac1a2c68a21e1f80bdd7f7fcd42866d50006ecdcda341cc8c40419403770121033917dfab0a99833380034fa77159a812feb8333382e53075b88dcbebfde7cc49ffffffff0600000000000000000d6a0b4f41010004030304de070058020000000000001976a9147d8dd16cc3413a64a9964c91cb0ee9358ab1dff688ac58020000000000001976a9147d8dd16cc3413a64a9964c91cb0ee9358ab1dff688ac58020000000000001976a9147d8dd16cc3413a64a9964c91cb0ee9358ab1dff688ac58020000000000001976a914a938dad89bbd964cbaf5d9059e0bda1d900ce08388ac202f0100000000001976a914a938dad89bbd964cbaf5d9059e0bda1d900ce08388ac00000000",
  "txid": "9ece6cdda95805e47667f0b389ee3c0c29efd5929bc372e68a34ac1ecbb92d6f",
  "hash": "9ece6cdda95805e47667f0b389ee3c0c29efd5929bc372e68a34ac1ecbb92d6f",
  "size": 498,
  "vsize": 498,
  "version": 1,
  "locktime": 0,
  "vin": [
    {
      "txid": "370c210cffdff21b0e59560f11308faabb985357bc57778ebb11ddbfb0d2b7ba",
      "vout": 0,
      "scriptSig": {
        "asm": "3045022100ef7e82e77372407da5586acd77cf61a9d7682782b7ead0450ae220d07913555c0220101cb1a026a4c81204a01ec0c02e237f0d0c22f31fd87030e85640f1a53a2d5c[ALL] 033917dfab0a99833380034fa77159a812feb8333382e53075b88dcbebfde7cc49",
        "hex": "483045022100ef7e82e77372407da5586acd77cf61a9d7682782b7ead0450ae220d07913555c0220101cb1a026a4c81204a01ec0c02e237f0d0c22f31fd87030e85640f1a53a2d5c0121033917dfab0a99833380034fa77159a812feb8333382e53075b88dcbebfde7cc49"
      },
      "sequence": 4294967295
    },
    {
      "txid": "370c210cffdff21b0e59560f11308faabb985357bc57778ebb11ddbfb0d2b7ba",
      "vout": 2,
      "scriptSig": {
        "asm": "3045022100ae225c601583b1e8cf6190ac6f7ae32df94aeb347d6bb7d17ee98532b94e9379022010718ac1a2c68a21e1f80bdd7f7fcd42866d50006ecdcda341cc8c4041940377[ALL] 033917dfab0a99833380034fa77159a812feb8333382e53075b88dcbebfde7cc49",
        "hex": "483045022100ae225c601583b1e8cf6190ac6f7ae32df94aeb347d6bb7d17ee98532b94e9379022010718ac1a2c68a21e1f80bdd7f7fcd42866d50006ecdcda341cc8c40419403770121033917dfab0a99833380034fa77159a812feb8333382e53075b88dcbebfde7cc49"
      },
      "sequence": 4294967295
    }
  ],
  "vout": [
    {
      "value": 0.00000000,
      "n": 0,
      "scriptPubKey": {
        "asm": "OP_RETURN 4f41010004030304de0700",
        "hex": "6a0b4f41010004030304de0700",
        "type": "nulldata"
      }
    },
    {
      "value": 0.00000600,
      "n": 1,
      "scriptPubKey": {
        "asm": "OP_DUP OP_HASH160 7d8dd16cc3413a64a9964c91cb0ee9358ab1dff6 OP_EQUALVERIFY OP_CHECKSIG",
        "hex": "76a9147d8dd16cc3413a64a9964c91cb0ee9358ab1dff688ac",
        "reqSigs": 1,
        "type": "pubkeyhash",
        "addresses": [
          "mrxpeizRrF8ymNx5FrvcGGZVecZjtUFVP3"
        ]
      }
    },
    {
      "value": 0.00000600,
      "n": 2,
      "scriptPubKey": {
        "asm": "OP_DUP OP_HASH160 7d8dd16cc3413a64a9964c91cb0ee9358ab1dff6 OP_EQUALVERIFY OP_CHECKSIG",
        "hex": "76a9147d8dd16cc3413a64a9964c91cb0ee9358ab1dff688ac",
        "reqSigs": 1,
        "type": "pubkeyhash",
        "addresses": [
          "mrxpeizRrF8ymNx5FrvcGGZVecZjtUFVP3"
        ]
      }
    },
    {
      "value": 0.00000600,
      "n": 3,
      "scriptPubKey": {
        "asm": "OP_DUP OP_HASH160 7d8dd16cc3413a64a9964c91cb0ee9358ab1dff6 OP_EQUALVERIFY OP_CHECKSIG",
        "hex": "76a9147d8dd16cc3413a64a9964c91cb0ee9358ab1dff688ac",
        "reqSigs": 1,
        "type": "pubkeyhash",
        "addresses": [
          "mrxpeizRrF8ymNx5FrvcGGZVecZjtUFVP3"
        ]
      }
    },
    {
      "value": 0.00000600,
      "n": 4,
      "scriptPubKey": {
        "asm": "OP_DUP OP_HASH160 a938dad89bbd964cbaf5d9059e0bda1d900ce083 OP_EQUALVERIFY OP_CHECKSIG",
        "hex": "76a914a938dad89bbd964cbaf5d9059e0bda1d900ce08388ac",
        "reqSigs": 1,
        "type": "pubkeyhash",
        "addresses": [
          "mvwibpSmnXw7pG3AjW5Tt9Ufe5GL2rTJd1"
        ]
      }
    },
    {
      "value": 0.00077600,
      "n": 5,
      "scriptPubKey": {
        "asm": "OP_DUP OP_HASH160 a938dad89bbd964cbaf5d9059e0bda1d900ce083 OP_EQUALVERIFY OP_CHECKSIG",
        "hex": "76a914a938dad89bbd964cbaf5d9059e0bda1d900ce08388ac",
        "reqSigs": 1,
        "type": "pubkeyhash",
        "addresses": [
          "mvwibpSmnXw7pG3AjW5Tt9Ufe5GL2rTJd1"
        ]
      }
    }
  ],
  "blockhash": "0000000000028f95924ee52ed9f8a7092920dc4179cd2aa8feba1cb28a79f11e",
  "confirmations": 386398,
  "time": 1453345182,
  "blocktime": 1453345182
}