{
  "hex": "0100000002bd2e17649e9e878aca0b13177dc8d8a64db56614a537a155f79f2251f0aaf62e020000006a473044022031443f89fc948371ea9081925a25b210097991b1e79daa238156ccf97215f0e1022017771ab41e42e7552afdc96a79928aed81e50c9245b644d867363a9e32e9a078012103e46fdcbf2062598a221c0e34d0505c270fb77c2c305c40ef0919f8efc0c7f959ffffffffbd2e17649e9e878aca0b13177dc8d8a64db56614a537a155f79f2251f0aaf62e030000006a4730440220152d9451f5087ab314ea97a5cfd3964b759e8e8c50fa0fc10e64787ad1860b6302206b3b004e0c2139bf767534fbff36fb205a6638ca141094f7a8ae95c5a32953aa012103e46fdcbf2062598a221c0e34d0505c270fb77c2c305c40ef0919f8efc0c7f959ffffffff0500000000000000000b6a094f4101000264c84c0000000000000000000c6a0a4f41010002c801e44b0058020000000000001976a914f0422a68ea970a9b007924bc8173f25e862eba8588ac58020000000000001976a91438a6ebdf20cae2c9287ea014464042112ea3dbfd88ace8240700000000001976a91438a6ebdf20cae2c9287ea014464042112ea3dbfd88ac00000000",
  "txid": "9efbf61ef4805708ecf8e31d982ab6de20b2d131ed9be00d2856a5fe5a8b3df5",
  "hash": "9efbf61ef4805708ecf8e31d982ab6de20b2d131ed9be00d2856a5fe5a8b3df5",
  "size": 447,
  "vsize": 447,
  "version": 1,
  "locktime": 0,
  "vin": [
    {
      "txid": "2ef6aaf051229ff755a137a51466b54da6d8c87d17130bca8a879e9e64172ebd",
      "vout": 2,
      "scriptSig": {
        "asm": "3044022031443f89fc948371ea9081925a25b210097991b1e79daa238156ccf97215f0e1022017771ab41e42e7552afdc96a79928aed81e50c9245b644d867363a9e32e9a078[ALL] 03e46fdcbf2062598a221c0e34d0505c270fb77c2c305c40ef0919f8efc0c7f959",
        "hex": "473044022031443f89fc948371ea9081925a25b210097991b1e79daa238156ccf97215f0e1022017771ab41e42e7552afdc96a79928aed81e50c9245b644d867363a9e32e9a078012103e46fdcbf2062598a221c0e34d0505c270fb77c2c305c40ef0919f8efc0c7f959"
      },
      "sequence": 4294967295
    },
    {
      "txid": "2ef6aaf051229ff755a137a51466b54da6d8c87d17130bca8a879e9e64172ebd",
      "vout": 3,
      "scriptSig": {
        "asm": "30440220152d9451f5087ab314ea97a5cfd3964b759e8e8c50fa0fc10e64787ad1860b6302206b3b004e0c2139bf767534fbff36fb205a6638ca141094f7a8ae95c5a32953aa[ALL] 03e46fdcbf2062598a221c0e34d0505c270fb77c2c305c40ef0919f8efc0c7f959",
        "hex": "4730440220152d9451f5087ab314ea97a5cfd3964b759e8e8c50fa0fc10e64787ad1860b6302206b3b004e0c2139bf767534fbff36fb205a6638ca141094f7a8ae95c5a32953aa012103e46fdcbf2062598a221c0e34d0505c270fb77c2c305c40ef0919f8efc0c7f959"
      },
      "sequence": 4294967295
    }
  ],
  "vout": [
    {
      "value": 0.00000000,
      "n": 0,
      "scriptPubKey": {
        "asm": "OP_RETURN 4f4101000264c84c00",
        "hex": "6a094f4101000264c84c00",
        "type": "nulldata"
      }
    },
    {
      "value": 0.00000000,
      "n": 1,
      "scriptPubKey": {
        "asm": "OP_RETURN 4f41010002c801e44b00",
        "hex": "6a0a4f41010002c801e44b00",
        "type": "nulldata"
      }
    },
    {
      "value": 0.00000600,
      "n": 2,
      "scriptPubKey": {
        "asm": "OP_DUP OP_HASH160 f0422a68ea970a9b007924bc8173f25e862eba85 OP_EQUALVERIFY OP_CHECKSIG",
        "hex": "76a914f0422a68ea970a9b007924bc8173f25e862eba8588ac",
        "reqSigs": 1,
        "type": "pubkeyhash",
        "addresses": [
          "n3RKjN5TRcNeTzDvdaApME6KMchht2oMTU"
        ]
      }
    },
    {
      "value": 0.00000600,
      "n": 3,
      "scriptPubKey": {
        "asm": "OP_DUP OP_HASH160 38a6ebdf20cae2c9287ea014464042112ea3dbfd OP_EQUALVERIFY OP_CHECKSIG",
        "hex": "76a91438a6ebdf20cae2c9287ea014464042112ea3dbfd88ac",
        "reqSigs": 1,
        "type": "pubkeyhash",
        "addresses": [
          "mkgW6hNYBctmqDtTTsTJrsf2Gh2NPtoCU4"
        ]
      }
    },
    {
      "value": 0.00468200,
      "n": 4,
      "scriptPubKey": {
        "asm": "OP_DUP OP_HASH160 38a6ebdf20cae2c9287ea014464042112ea3dbfd OP_EQUALVERIFY OP_CHECKSIG",
        "hex": "76a91438a6ebdf20cae2c9287ea014464042112ea3dbfd88ac",
        "reqSigs": 1,
        "type": "pubkeyhash",
        "addresses": [
          "mkgW6hNYBctmqDtTTsTJrsf2Gh2NPtoCU4"
        ]
      }
    }
  ],
  "blockhash": "0000000000001d2d419633e9b654a11b9e73c825f276ebb3dd420764de6158c7",
  "confirmations": 402407,
  "time": 1451963342,
  "blocktime": 1451963342
}