{
  "hex": "0100000003e108306761ba736fe622594fa663b5e11a84b9ad89c42958f9e5bb6b29009282010000006b483045022100c3c2a39b14e5b512ee18d2a0a82d3549b1fd680e709913494841bd3ec5ca990b02206adb6dc0e7446de433eabddecc446fd843db875e0f1f274bbcdeb27276174079012102544912ce55bcab484f5d2ba0f54c420160f37c3978b68b0fa67cc92417739b3effffffff9b5b6bbee416ce9c39b15be3405f0f19cbb419ef64cbde7523436913ab90c85c000000006a473044022013c63c04cd7c97db4fd0dda9a10d5e92c1a4b1de8f6fe32f3e64bb3b1a900fa802202c03cb27ba4ae9992cd69899dcd5b56cab1198244605c54eaf67e3e97b16e537012102544912ce55bcab484f5d2ba0f54c420160f37c3978b68b0fa67cc92417739b3effffffffd828fe846b63c61af9c20576705e44e1c34ade6f54e38a4fd673664e0c3058dd010000006a473044022059169fefdd17a0cd76e952da561df0e15175c5110daa7173a741c87d68dcac8c02201a3a5641cde5ec86009d118cfd957e19baede6a000339bfdf50f28b2b17478a7012102544912ce55bcab484f5d2ba0f54c420160f37c3978b68b0fa67cc92417739b3effffffff0400000000000000000a6a084f4101000201040058020000000000001976a91424b3d405bc60bd9628691fe28bb00f6800e1480688ac58020000000000001976a914b7218fe503cd18555255e5b13d4f07f3fd00d0c988ac48840100000000001976a914b7218fe503cd18555255e5b13d4f07f3fd00d0c988ac00000000",
  "txid": "a329a18c0957f8838c684f789fbe1201b871cddc7844d3513880c632bcbb8d1a",
  "size": 573,
  "version": 1,
  "locktime": 0,
  "vin": [
    {
      "txid": "829200296bbbe5f95829c489adb9841ae1b563a64f5922e66f73ba61673008e1",
      "vout": 1,
      "scriptSig": {
        "asm": "3045022100c3c2a39b14e5b512ee18d2a0a82d3549b1fd680e709913494841bd3ec5ca990b02206adb6dc0e7446de433eabddecc446fd843db875e0f1f274bbcdeb27276174079[ALL] 02544912ce55bcab484f5d2ba0f54c420160f37c3978b68b0fa67cc92417739b3e",
        "hex": "483045022100c3c2a39b14e5b512ee18d2a0a82d3549b1fd680e709913494841bd3ec5ca990b02206adb6dc0e7446de433eabddecc446fd843db875e0f1f274bbcdeb27276174079012102544912ce55bcab484f5d2ba0f54c420160f37c3978b68b0fa67cc92417739b3e"
      },
      "sequence": 4294967295
    },
    {
      "txid": "5cc890ab1369432375decb64ef19b4cb190f5f40e35bb1399cce16e4be6b5b9b",
      "vout": 0,
      "scriptSig": {
        "asm": "3044022013c63c04cd7c97db4fd0dda9a10d5e92c1a4b1de8f6fe32f3e64bb3b1a900fa802202c03cb27ba4ae9992cd69899dcd5b56cab1198244605c54eaf67e3e97b16e537[ALL] 02544912ce55bcab484f5d2ba0f54c420160f37c3978b68b0fa67cc92417739b3e",
        "hex": "473044022013c63c04cd7c97db4fd0dda9a10d5e92c1a4b1de8f6fe32f3e64bb3b1a900fa802202c03cb27ba4ae9992cd69899dcd5b56cab1198244605c54eaf67e3e97b16e537012102544912ce55bcab484f5d2ba0f54c420160f37c3978b68b0fa67cc92417739b3e"
      },
      "sequence": 4294967295
    },
    {
      "txid": "dd58300c4e6673d64f8ae3546fde4ac3e1445e707605c2f91ac6636b84fe28d8",
      "vout": 1,
      "scriptSig": {
        "asm": "3044022059169fefdd17a0cd76e952da561df0e15175c5110daa7173a741c87d68dcac8c02201a3a5641cde5ec86009d118cfd957e19baede6a000339bfdf50f28b2b17478a7[ALL] 02544912ce55bcab484f5d2ba0f54c420160f37c3978b68b0fa67cc92417739b3e",
        "hex": "473044022059169fefdd17a0cd76e952da561df0e15175c5110daa7173a741c87d68dcac8c02201a3a5641cde5ec86009d118cfd957e19baede6a000339bfdf50f28b2b17478a7012102544912ce55bcab484f5d2ba0f54c420160f37c3978b68b0fa67cc92417739b3e"
      },
      "sequence": 4294967295
    }
  ],
  "vout": [
    {
      "value": 0.00000000,
      "n": 0,
      "scriptPubKey": {
        "asm": "OP_RETURN 4f41010002010400",
        "hex": "6a084f41010002010400",
        "type": "nulldata"
      }
    },
    {
      "value": 0.00000600,
      "n": 1,
      "scriptPubKey": {
        "asm": "OP_DUP OP_HASH160 24b3d405bc60bd9628691fe28bb00f6800e14806 OP_EQUALVERIFY OP_CHECKSIG",
        "hex": "76a91424b3d405bc60bd9628691fe28bb00f6800e1480688ac",
        "reqSigs": 1,
        "type": "pubkeyhash",
        "addresses": [
          "14M4kbAtn71P1nnNYuhBDFTNYxa19t1XP6"
        ]
      }
    },
    {
      "value": 0.00000600,
      "n": 2,
      "scriptPubKey": {
        "asm": "OP_DUP OP_HASH160 b7218fe503cd18555255e5b13d4f07f3fd00d0c9 OP_EQUALVERIFY OP_CHECKSIG",
        "hex": "76a914b7218fe503cd18555255e5b13d4f07f3fd00d0c988ac",
        "reqSigs": 1,
        "type": "pubkeyhash",
        "addresses": [
          "1HhJs3JgbiyxC8ktfi6nU4wTqVmrMtCVkG"
        ]
      }
    },
    {
      "value": 0.00099400,
      "n": 3,
      "scriptPubKey": {
        "asm": "OP_DUP OP_HASH160 b7218fe503cd18555255e5b13d4f07f3fd00d0c9 OP_EQUALVERIFY OP_CHECKSIG",
        "hex": "76a914b7218fe503cd18555255e5b13d4f07f3fd00d0c988ac",
        "reqSigs": 1,
        "type": "pubkeyhash",
        "addresses": [
          "1HhJs3JgbiyxC8ktfi6nU4wTqVmrMtCVkG"
        ]
      }
    }
  ],
  "blockhash": "000000000000000001f9eba8dff0d4885c83816d3b8dfead2b4367612264ca19",
  "confirmations": 78351,
  "time": 1434009412,
  "blocktime": 1434009412
}