{
  "txid": "a91ddd4d17b1c1cda9bcdb1ebb95ebeb375af3bea974c67b9470d176e850baba",
  "hash": "d18bd00195f0b35e27104ad162ee43ef23f02a57b1d1f70aeb91186385fef7d2",
  "version": 2,
  "size": 245,
  "vsize": 164,
  "locktime": 1280450,
  "vin": [
    {
      "txid": "f7d877012a96b7f57f1dff4b4f6301fe2af40c61e0393b10737913009a4eac18",
      "vout": 0,
      "scriptSig": {
        "asm": "0014eb1521bb896ed016c138f5910854ea46b87885c8",
        "hex": "160014eb1521bb896ed016c138f5910854ea46b87885c8"
      },
      "txinwitness": [
        "30440220756e69e7b6bcb1290808ad5edc7e126ad656fd76e7e4c264be5b26c70319bddb02206cd94bdece2a411dde6ec204f9ab09efaf7b8e2dc6cb7028e96dc7238cbbf1f801",
        "02f706f05a7d877aba2bb0007e746e80267416ea896422cc819253b764c7872fb7"
      ],
      "sequence": 4294967293
    }
  ],
  "vout": [
    {
      "value": 1.00000000,
      "n": 0,
      "scriptPubKey": {
        "asm": "0 119b45d8bf231183752e4deebc0e9bfba0194787",
        "hex": "0014119b45d8bf231183752e4deebc0e9bfba0194787",
        "reqSigs": 1,
        "type": "witness_v0_keyhash",
        "addresses": [
          "tb1qzxd5tk9lyvgcxafwfhhtcr5mlwspj3u8cwyg3d"
        ]
      }
    },
    {
      "value": 0.29999673,
      "n": 1,
      "scriptPubKey": {
        "asm": "0 58ce34ab309c732510dcf49f9283265ae16c7831",
        "hex": "001458ce34ab309c732510dcf49f9283265ae16c7831",
        "reqSigs": 1,
        "type": "witness_v0_keyhash",
        "addresses": [
          "tb1qtr8rf2esn3ej2yxu7j0e9qexttskc7p3yluywq"
        ]
      }
    }
  ],
  "hex": "0200000000010118ac4e9a00137973103b39e0610cf42afe01634f4bff1d7ff5b7962a0177d8f70000000017160014eb1521bb896ed016c138f5910854ea46b87885c8fdffffff0200e1f50500000000160014119b45d8bf231183752e4deebc0e9bfba019478739c2c9010000000016001458ce34ab309c732510dcf49f9283265ae16c7831024730440220756e69e7b6bcb1290808ad5edc7e126ad656fd76e7e4c264be5b26c70319bddb02206cd94bdece2a411dde6ec204f9ab09efaf7b8e2dc6cb7028e96dc7238cbbf1f8012102f706f05a7d877aba2bb0007e746e80267416ea896422cc819253b764c7872fb7c2891300",
  "blockhash": "0000000000002e61d41978c22cecb484914b71b5c3efa63bb1da60350c9f6fd7",
  "confirmations": 13260,
  "time": 1518164795,
  "blocktime": 1518164795
}