{
  "hex": "01000000014448068bab11df9c16dbf18c297d667cd2b2952767dd2f6cf2968798d925e2b7010000009d47304402202254f7da7c3fe2bf2a4dd2c3e255aa3ad61415550f648b564aea335f8fcd3d92022062eab5c01a5e33eb726f976ebd3b35d3991f8a45da56d64e1cd3fd5178f8c9a6012102effb2edfcf826d43027feae226143bdac058ad2e87b7cec26f97af2d357ddefa3217753d68747470733a2f2f676f6f2e676c2f626d564575777576a9148911455a265235b2d356a1324af000d4dae0326288acffffffff0358020000000000001976a914a4fdb3ce954a3cbb49fdfc9df1712bf72749c9e788ac00000000000000000b6a094f410100019f8d0600e8990000000000001976a914a4fdb3ce954a3cbb49fdfc9df1712bf72749c9e788ac00000000",
  "txid": "a98b000f28c9e8251925a1225832edf1c2992e103445b6b2cec3f5c0a81469e5",
  "hash": "a98b000f28c9e8251925a1225832edf1c2992e103445b6b2cec3f5c0a81469e5",
  "size": 296,
  "vsize": 296,
  "version": 1,
  "locktime": 0,
  "vin": [
    {
      "txid": "b7e225d9988796f26c2fdd672795b2d27c667d298cf1db169cdf11ab8b064844",
      "vout": 1,
      "scriptSig": {
        "asm": "304402202254f7da7c3fe2bf2a4dd2c3e255aa3ad61415550f648b564aea335f8fcd3d92022062eab5c01a5e33eb726f976ebd3b35d3991f8a45da56d64e1cd3fd5178f8c9a6[ALL] 02effb2edfcf826d43027feae226143bdac058ad2e87b7cec26f97af2d357ddefa 17753d68747470733a2f2f676f6f2e676c2f626d564575777576a9148911455a265235b2d356a1324af000d4dae0326288ac",
        "hex": "47304402202254f7da7c3fe2bf2a4dd2c3e255aa3ad61415550f648b564aea335f8fcd3d92022062eab5c01a5e33eb726f976ebd3b35d3991f8a45da56d64e1cd3fd5178f8c9a6012102effb2edfcf826d43027feae226143bdac058ad2e87b7cec26f97af2d357ddefa3217753d68747470733a2f2f676f6f2e676c2f626d564575777576a9148911455a265235b2d356a1324af000d4dae0326288ac"
      },
      "sequence": 4294967295
    }
  ],
  "vout": [
    {
      "value": 0.00000600,
      "n": 0,
      "scriptPubKey": {
        "asm": "OP_DUP OP_HASH160 a4fdb3ce954a3cbb49fdfc9df1712bf72749c9e7 OP_EQUALVERIFY OP_CHECKSIG",
        "hex": "76a914a4fdb3ce954a3cbb49fdfc9df1712bf72749c9e788ac",
        "reqSigs": 1,
        "type": "pubkeyhash",
        "addresses": [
          "mvZM34fU6wdDqF3gKd2tYA67vjWvwBHbDU"
        ]
      }
    },
    {
      "value": 0.00000000,
      "n": 1,
      "scriptPubKey": {
        "asm": "OP_RETURN 4f410100019f8d0600",
        "hex": "6a094f410100019f8d0600",
        "type": "nulldata"
      }
    },
    {
      "value": 0.00039400,
      "n": 2,
      "scriptPubKey": {
        "asm": "OP_DUP OP_HASH160 a4fdb3ce954a3cbb49fdfc9df1712bf72749c9e7 OP_EQUALVERIFY OP_CHECKSIG",
        "hex": "76a914a4fdb3ce954a3cbb49fdfc9df1712bf72749c9e788ac",
        "reqSigs": 1,
        "type": "pubkeyhash",
        "addresses": [
          "mvZM34fU6wdDqF3gKd2tYA67vjWvwBHbDU"
        ]
      }
    }
  ],
  "blockhash": "0000000000000349ade641e1d0b0615cd8535d7790690e2d8b501907ec30b6c7",
  "confirmations": 63000,
  "time": 1475927768,
  "blocktime": 1475927768
}