{
  "hex": "0100000001b43aca2d4f5b4ca395e54057a420180136adb1a9d7dfe0f22b2d68ec41bce90e000000006b48304502210099171aa53917c566c55c27543012f430b2dcac118101e83168a5da97703c3229022024958d98c54ad0390e4afcfbae233c3c2d68936c5626c27b51fe452caaca350c012103e96fd7e921b64954bbff1eec73b0331c8c9d27aa70b0520eb36b50019a978f1cffffffff0296ff7247000000001976a914d3c96dc04a62f488a3f1b588f74af136469c6fca88ac50c30000000000001976a914147b897573a9586f64320d29c7780f383d00f06d88ac00000000",
  "txid": "ab3c38f412a96eda0756330a4940fa148e9c73fdde9f068413945c3720bb1f18",
  "hash": "ab3c38f412a96eda0756330a4940fa148e9c73fdde9f068413945c3720bb1f18",
  "size": 226,
  "vsize": 226,
  "version": 1,
  "locktime": 0,
  "vin": [
    {
      "txid": "0ee9bc41ec682d2bf2e0dfd7a9b1ad36011820a45740e595a34c5b4f2dca3ab4",
      "vout": 0,
      "scriptSig": {
        "asm": "304502210099171aa53917c566c55c27543012f430b2dcac118101e83168a5da97703c3229022024958d98c54ad0390e4afcfbae233c3c2d68936c5626c27b51fe452caaca350c[ALL] 03e96fd7e921b64954bbff1eec73b0331c8c9d27aa70b0520eb36b50019a978f1c",
        "hex": "48304502210099171aa53917c566c55c27543012f430b2dcac118101e83168a5da97703c3229022024958d98c54ad0390e4afcfbae233c3c2d68936c5626c27b51fe452caaca350c012103e96fd7e921b64954bbff1eec73b0331c8c9d27aa70b0520eb36b50019a978f1c"
      },
      "sequence": 4294967295
    }
  ],
  "vout": [
    {
      "value": 11.98718870,
      "n": 0,
      "scriptPubKey": {
        "asm": "OP_DUP OP_HASH160 d3c96dc04a62f488a3f1b588f74af136469c6fca OP_EQUALVERIFY OP_CHECKSIG",
        "hex": "76a914d3c96dc04a62f488a3f1b588f74af136469c6fca88ac",
        "reqSigs": 1,
        "type": "pubkeyhash",
        "addresses": [
          "mzpnB3S31yZRDJFLmTd1ZsWJTtzymL7HsA"
        ]
      }
    },
    {
      "value": 0.00050000,
      "n": 1,
      "scriptPubKey": {
        "asm": "OP_DUP OP_HASH160 147b897573a9586f64320d29c7780f383d00f06d OP_EQUALVERIFY OP_CHECKSIG",
        "hex": "76a914147b897573a9586f64320d29c7780f383d00f06d88ac",
        "reqSigs": 1,
        "type": "pubkeyhash",
        "addresses": [
          "mhPFoPUSefNW7BMV8bhL3Pa4qkP4vtJaba"
        ]
      }
    }
  ],
  "blockhash": "000000000028ac776fdb04e9a0b5ccc7ec8192ce3779f5f1e78229290995e119",
  "confirmations": 381352,
  "time": 1453609194,
  "blocktime": 1453609194
}