{
  "hex": "0100000001a02830eee235f0cbdfe0b38b706c914a3a429a315603832eb18d1c791dc5b83a010000006b4830450221008a9daf031fc026ff558f6f94913f50df91b122a155a698dabfb6c1ccb4cfa18e022069c8451d7d42b6f938e5dc9b5c319350ac58c7070dd8799db3320c5ccaad8035012102effb2edfcf826d43027feae226143bdac058ad2e87b7cec26f97af2d357ddefaffffffff0220c74e01000000001976a9148911455a265235b2d356a1324af000d4dae0326288ac50c300000000000017a914f9d499817e88ef7b10a88673296c6d6df2f4292d8700000000",
  "txid": "b7e225d9988796f26c2fdd672795b2d27c667d298cf1db169cdf11ab8b064844",
  "hash": "b7e225d9988796f26c2fdd672795b2d27c667d298cf1db169cdf11ab8b064844",
  "size": 224,
  "vsize": 224,
  "version": 1,
  "locktime": 0,
  "vin": [
    {
      "txid": "3ab8c51d791c8db12e830356319a423a4a916c708bb3e0dfcbf035e2ee3028a0",
      "vout": 1,
      "scriptSig": {
        "asm": "30450221008a9daf031fc026ff558f6f94913f50df91b122a155a698dabfb6c1ccb4cfa18e022069c8451d7d42b6f938e5dc9b5c319350ac58c7070dd8799db3320c5ccaad8035[ALL] 02effb2edfcf826d43027feae226143bdac058ad2e87b7cec26f97af2d357ddefa",
        "hex": "4830450221008a9daf031fc026ff558f6f94913f50df91b122a155a698dabfb6c1ccb4cfa18e022069c8451d7d42b6f938e5dc9b5c319350ac58c7070dd8799db3320c5ccaad8035012102effb2edfcf826d43027feae226143bdac058ad2e87b7cec26f97af2d357ddefa"
      },
      "sequence": 4294967295
    }
  ],
  "vout": [
    {
      "value": 0.21940000,
      "n": 0,
      "scriptPubKey": {
        "asm": "OP_DUP OP_HASH160 8911455a265235b2d356a1324af000d4dae03262 OP_EQUALVERIFY OP_CHECKSIG",
        "hex": "76a9148911455a265235b2d356a1324af000d4dae0326288ac",
        "reqSigs": 1,
        "type": "pubkeyhash",
        "addresses": [
          "mt1hZLajqyc63NkWy7qvgiuum5nuTBdVZ6"
        ]
      }
    },
    {
      "value": 0.00050000,
      "n": 1,
      "scriptPubKey": {
        "asm": "OP_HASH160 f9d499817e88ef7b10a88673296c6d6df2f4292d OP_EQUAL",
        "hex": "a914f9d499817e88ef7b10a88673296c6d6df2f4292d87",
        "reqSigs": 1,
        "type": "scripthash",
        "addresses": [
          "2NG2CvjMnwRkRhBsnoX1JHvmP3fX8bWrkej"
        ]
      }
    }
  ],
  "blockhash": "0000000000000332bf8c4988f2d6a38725b2f41d04d2c88962c1026d1715598d",
  "confirmations": 63020,
  "time": 1475922316,
  "blocktime": 1475922316
}