{
  "hex": "01000000025d53e981c88c55a38e88cac043b5fb6be2ab384577db99ef9aa9092cac7383f9000000006a47304402200a20a051cd2e96be851c85bafed18157529deec625a300acc2f1c3090d9627f502206c25f6ab641f2117dc3e1e03c6db11e89741030956a68905390c237013024ff801210233df159fad83540209cd32ad761893d90119354b40dad24c481b6c1f8e39cd8bffffffff5d53e981c88c55a38e88cac043b5fb6be2ab384577db99ef9aa9092cac7383f9020000006b483045022100de33c1bc49f6aaf00dd2b9513359ab68e5b0629e9c8c2c9371845938d058f34e02204dea9902cd6dd53f4db4c16b0b71e89d1919e4fd6938b717f7ce444b4654671601210233df159fad83540209cd32ad761893d90119354b40dad24c481b6c1f8e39cd8bffffffff0400000000000000000b6a094f4101000243990b0058020000000000001976a914b7218fe503cd18555255e5b13d4f07f3fd00d0c988ac58020000000000001976a9147cbc38b45e36dbe96e991d737450f047a9899a6388ac504e0700000000001976a9147cbc38b45e36dbe96e991d737450f047a9899a6388ac00000000",
  "txid": "b8d52b6452a7e282a656e81dfa21b30d6bd8ce1150c73b89b33f11eed7cff096",
  "size": 427,
  "version": 1,
  "locktime": 0,
  "vin": [
    {
      "txid": "f98373ac2c09a99aef99db774538abe26bfbb543c0ca888ea3558cc881e9535d",
      "vout": 0,
      "scriptSig": {
        "asm": "304402200a20a051cd2e96be851c85bafed18157529deec625a300acc2f1c3090d9627f502206c25f6ab641f2117dc3e1e03c6db11e89741030956a68905390c237013024ff8[ALL] 0233df159fad83540209cd32ad761893d90119354b40dad24c481b6c1f8e39cd8b",
        "hex": "47304402200a20a051cd2e96be851c85bafed18157529deec625a300acc2f1c3090d9627f502206c25f6ab641f2117dc3e1e03c6db11e89741030956a68905390c237013024ff801210233df159fad83540209cd32ad761893d90119354b40dad24c481b6c1f8e39cd8b"
      },
      "sequence": 4294967295
    },
    {
      "txid": "f98373ac2c09a99aef99db774538abe26bfbb543c0ca888ea3558cc881e9535d",
      "vout": 2,
      "scriptSig": {
        "asm": "3045022100de33c1bc49f6aaf00dd2b9513359ab68e5b0629e9c8c2c9371845938d058f34e02204dea9902cd6dd53f4db4c16b0b71e89d1919e4fd6938b717f7ce444b46546716[ALL] 0233df159fad83540209cd32ad761893d90119354b40dad24c481b6c1f8e39cd8b",
        "hex": "483045022100de33c1bc49f6aaf00dd2b9513359ab68e5b0629e9c8c2c9371845938d058f34e02204dea9902cd6dd53f4db4c16b0b71e89d1919e4fd6938b717f7ce444b4654671601210233df159fad83540209cd32ad761893d90119354b40dad24c481b6c1f8e39cd8b"
      },
      "sequence": 4294967295
    }
  ],
  "vout": [
    {
      "value": 0.00000000,
      "n": 0,
      "scriptPubKey": {
        "asm": "OP_RETURN 4f4101000243990b00",
        "hex": "6a094f4101000243990b00",
        "type": "nulldata"
      }
    },
    {
      "value": 0.00000600,
      "n": 1,
      "scriptPubKey": {
        "asm": "OP_DUP OP_HASH160 b7218fe503cd18555255e5b13d4f07f3fd00d0c9 OP_EQUALVERIFY OP_CHECKSIG",
        "hex": "76a914b7218fe503cd18555255e5b13d4f07f3fd00d0c988ac",
        "reqSigs": 1,
        "type": "pubkeyhash",
        "addresses": [
          "1HhJs3JgbiyxC8ktfi6nU4wTqVmrMtCVkG"
        ]
      }
    },
    {
      "value": 0.00000600,
      "n": 2,
      "scriptPubKey": {
        "asm": "OP_DUP OP_HASH160 7cbc38b45e36dbe96e991d737450f047a9899a63 OP_EQUALVERIFY OP_CHECKSIG",
        "hex": "76a9147cbc38b45e36dbe96e991d737450f047a9899a6388ac",
        "reqSigs": 1,
        "type": "pubkeyhash",
        "addresses": [
          "1CNYGeUsJU6csL8ZkZATrJhzmhv7LM4vFx"
        ]
      }
    },
    {
      "value": 0.00478800,
      "n": 3,
      "scriptPubKey": {
        "asm": "OP_DUP OP_HASH160 7cbc38b45e36dbe96e991d737450f047a9899a63 OP_EQUALVERIFY OP_CHECKSIG",
        "hex": "76a9147cbc38b45e36dbe96e991d737450f047a9899a6388ac",
        "reqSigs": 1,
        "type": "pubkeyhash",
        "addresses": [
          "1CNYGeUsJU6csL8ZkZATrJhzmhv7LM4vFx"
        ]
      }
    }
  ],
  "blockhash": "0000000000000000077cf61ce2030c9fd15054f18864414ceef79d9418ca7b7d",
  "confirmations": 61682,
  "time": 1443781689,
  "blocktime": 1443781689
}