{
  "hex": "010000000175552d5eddd4494aa6b05dcec201eec8280d0e2840b3843aaf884df15ce328f4010000006b483045022100e0a219f87cea50c95a45fca4204c3fe25d0e44baa54c498afbc657ed6c20f4bf0220329892eb524487a1b8724c531b27602794cdadca365681a9f62a054fb1c4713f012103e96fd7e921b64954bbff1eec73b0331c8c9d27aa70b0520eb36b50019a978f1cffffffff02b6a07a47000000001976a914d3c96dc04a62f488a3f1b588f74af136469c6fca88aca0860100000000001976a914a938dad89bbd964cbaf5d9059e0bda1d900ce08388ac00000000",
  "txid": "c4dbf1a4963c5055577b4b5b315d3fca3c891aed223e2414dfb33aa36633961c",
  "hash": "c4dbf1a4963c5055577b4b5b315d3fca3c891aed223e2414dfb33aa36633961c",
  "size": 226,
  "vsize": 226,
  "version": 1,
  "locktime": 0,
  "vin": [
    {
      "txid": "f428e35cf14d88af3a84b340280e0d28c8ee01c2ce5db0a64a49d4dd5e2d5575",
      "vout": 1,
      "scriptSig": {
        "asm": "3045022100e0a219f87cea50c95a45fca4204c3fe25d0e44baa54c498afbc657ed6c20f4bf0220329892eb524487a1b8724c531b27602794cdadca365681a9f62a054fb1c4713f[ALL] 03e96fd7e921b64954bbff1eec73b0331c8c9d27aa70b0520eb36b50019a978f1c",
        "hex": "483045022100e0a219f87cea50c95a45fca4204c3fe25d0e44baa54c498afbc657ed6c20f4bf0220329892eb524487a1b8724c531b27602794cdadca365681a9f62a054fb1c4713f012103e96fd7e921b64954bbff1eec73b0331c8c9d27aa70b0520eb36b50019a978f1c"
      },
      "sequence": 4294967295
    }
  ],
  "vout": [
    {
      "value": 11.99218870,
      "n": 0,
      "scriptPubKey": {
        "asm": "OP_DUP OP_HASH160 d3c96dc04a62f488a3f1b588f74af136469c6fca OP_EQUALVERIFY OP_CHECKSIG",
        "hex": "76a914d3c96dc04a62f488a3f1b588f74af136469c6fca88ac",
        "reqSigs": 1,
        "type": "pubkeyhash",
        "addresses": [
          "mzpnB3S31yZRDJFLmTd1ZsWJTtzymL7HsA"
        ]
      }
    },
    {
      "value": 0.00100000,
      "n": 1,
      "scriptPubKey": {
        "asm": "OP_DUP OP_HASH160 a938dad89bbd964cbaf5d9059e0bda1d900ce083 OP_EQUALVERIFY OP_CHECKSIG",
        "hex": "76a914a938dad89bbd964cbaf5d9059e0bda1d900ce08388ac",
        "reqSigs": 1,
        "type": "pubkeyhash",
        "addresses": [
          "mvwibpSmnXw7pG3AjW5Tt9Ufe5GL2rTJd1"
        ]
      }
    }
  ],
  "blockhash": "00000000000511f59c43a46be7662179135d0a8102240b0f8d737405a6ad4a62",
  "confirmations": 386415,
  "time": 1453343236,
  "blocktime": 1453343236
}