{
  "hex": "01000000013a588e87d23c73c1d0532b8968e6116f3288b76c4bea3b20b10d2bb7dd29fb3d000000006a47304402201b7bcb080673d5d13c773c1f3c89e0522aa65b692cd89fd10c783a602b161ec7022073822451b8b8aba4e0f05cf5bde8baa54239b0846734c1e710178a5b9280b7fd0121029b4d5e41a6cdc3625b3d971bba951d809dd6156dfb7c20dde35f05035c645d8cffffffff02309bdc02000000001976a91465259d8fad44dddf5d137c6fe4f77f5281b255ae88aca0860100000000001976a91446c2fbfbecc99a63148fa076de58cf29b0bcf0b088ac00000000",
  "txid": "c66e1f5022e98b45b98f537ac42fe88d0e20aaf427731be678a319ed8f92c249",
  "hash": "c66e1f5022e98b45b98f537ac42fe88d0e20aaf427731be678a319ed8f92c249",
  "size": 225,
  "vsize": 225,
  "version": 1,
  "locktime": 0,
  "vin": [
    {
      "txid": "3dfb29ddb72b0db1203bea4b6cb788326f11e668892b53d0c1733cd2878e583a",
      "vout": 0,
      "scriptSig": {
        "asm": "304402201b7bcb080673d5d13c773c1f3c89e0522aa65b692cd89fd10c783a602b161ec7022073822451b8b8aba4e0f05cf5bde8baa54239b0846734c1e710178a5b9280b7fd[ALL] 029b4d5e41a6cdc3625b3d971bba951d809dd6156dfb7c20dde35f05035c645d8c",
        "hex": "47304402201b7bcb080673d5d13c773c1f3c89e0522aa65b692cd89fd10c783a602b161ec7022073822451b8b8aba4e0f05cf5bde8baa54239b0846734c1e710178a5b9280b7fd0121029b4d5e41a6cdc3625b3d971bba951d809dd6156dfb7c20dde35f05035c645d8c"
      },
      "sequence": 4294967295
    }
  ],
  "vout": [
    {
      "value": 0.48012080,
      "n": 0,
      "scriptPubKey": {
        "asm": "OP_DUP OP_HASH160 65259d8fad44dddf5d137c6fe4f77f5281b255ae OP_EQUALVERIFY OP_CHECKSIG",
        "hex": "76a91465259d8fad44dddf5d137c6fe4f77f5281b255ae88ac",
        "reqSigs": 1,
        "type": "pubkeyhash",
        "addresses": [
          "mpjmbzpujPG4CPPKEjuvkSMi895AKmMHQo"
        ]
      }
    },
    {
      "value": 0.00100000,
      "n": 1,
      "scriptPubKey": {
        "asm": "OP_DUP OP_HASH160 46c2fbfbecc99a63148fa076de58cf29b0bcf0b0 OP_EQUALVERIFY OP_CHECKSIG",
        "hex": "76a91446c2fbfbecc99a63148fa076de58cf29b0bcf0b088ac",
        "reqSigs": 1,
        "type": "pubkeyhash",
        "addresses": [
          "mmy7BEH1SUGAeSVUR22pt5hPaejo2645F1"
        ]
      }
    }
  ],
  "blockhash": "0000000000022f4b4a9f9910cf452799319701adfe7bcd1b5cea958b768c9a02",
  "confirmations": 134763,
  "time": 1469348182,
  "blocktime": 1469348182
}