{
  "hex": "01000000012851315cad50c97ed7818b0d650d28b871fec92018d34093f15b6f51b75eb967000000006b483045022100d338770cd4d27c58c41fd9a64c3b8870eb9a5c2e2d442dcd260333a8a6dfd81e02202b7c0d40c73211dcfb90513597ecb214455ee20a317ec4827566c213e45f9765012102174620b7c583dc471e04b604fc85f7ae19d161a070af7227ca03edfcb6c4dc4fffffffff0358020000000000001976a914de20a2d5a57ee40ce9a4ce14cf06a6c2c6ffe29788ac0000000000000000096a074f410100016400d8180f00000000001976a914de20a2d5a57ee40ce9a4ce14cf06a6c2c6ffe29788ac00000000",
  "txid": "d62637792c280bed7ac93d78e6031d07e9307afc18d53f87c26dcaddf2297fd5",
  "size": 244,
  "version": 1,
  "locktime": 0,
  "vin": [
    {
      "txid": "67b95eb7516f5bf19340d31820c9fe71b8280d650d8b81d77ec950ad5c315128",
      "vout": 0,
      "scriptSig": {
        "asm": "3045022100d338770cd4d27c58c41fd9a64c3b8870eb9a5c2e2d442dcd260333a8a6dfd81e02202b7c0d40c73211dcfb90513597ecb214455ee20a317ec4827566c213e45f9765[ALL] 02174620b7c583dc471e04b604fc85f7ae19d161a070af7227ca03edfcb6c4dc4f",
        "hex": "483045022100d338770cd4d27c58c41fd9a64c3b8870eb9a5c2e2d442dcd260333a8a6dfd81e02202b7c0d40c73211dcfb90513597ecb214455ee20a317ec4827566c213e45f9765012102174620b7c583dc471e04b604fc85f7ae19d161a070af7227ca03edfcb6c4dc4f"
      },
      "sequence": 4294967295
    }
  ],
  "vout": [
    {
      "value": 0.00000600,
      "n": 0,
      "scriptPubKey": {
        "asm": "OP_DUP OP_HASH160 de20a2d5a57ee40ce9a4ce14cf06a6c2c6ffe297 OP_EQUALVERIFY OP_CHECKSIG",
        "hex": "76a914de20a2d5a57ee40ce9a4ce14cf06a6c2c6ffe29788ac",
        "reqSigs": 1,
        "type": "pubkeyhash",
        "addresses": [
          "1MFW7BTwiNbAkmVz4SzAMQXboKYKGSzkq2"
        ]
      }
    },
    {
      "value": 0.00000000,
      "n": 1,
      "scriptPubKey": {
        "asm": "OP_RETURN 4f410100016400",
        "hex": "6a074f410100016400",
        "type": "nulldata"
      }
    },
    {
      "value": 0.00989400,
      "n": 2,
      "scriptPubKey": {
        "asm": "OP_DUP OP_HASH160 de20a2d5a57ee40ce9a4ce14cf06a6c2c6ffe297 OP_EQUALVERIFY OP_CHECKSIG",
        "hex": "76a914de20a2d5a57ee40ce9a4ce14cf06a6c2c6ffe29788ac",
        "reqSigs": 1,
        "type": "pubkeyhash",
        "addresses": [
          "1MFW7BTwiNbAkmVz4SzAMQXboKYKGSzkq2"
        ]
      }
    }
  ],
  "blockhash": "000000000000000004558772e38db5c2c4c04d00db6031271bc3e249de7d5fe2",
  "confirmations": 78652,
  "time": 1433847409,
  "blocktime": 1433847409
}
