{
  "hex": "01000000019b5b6bbee416ce9c39b15be3405f0f19cbb419ef64cbde7523436913ab90c85c010000006b483045022100d5233595a3140827c3cfe449cd83520c4004fbd2ae70ee045870d1ae6f55bb8002206bafacf5bacf569873c9e849f24320a304e3e154f9ae50a1bf6f42380337483d0121027a52cac614ba31c0352dfe937cfaaa3ed26312c50b1cbad928894bb3fc9e6655ffffffff0220a10700000000001976a914de20a2d5a57ee40ce9a4ce14cf06a6c2c6ffe29788ac38f40600000000001976a914753fbfea75311b07c17bbabed46711f039635d0588ac00000000",
  "txid": "d66fcfe60af7a2a028b079ead597659535b66bc05d7bb0e26bb3464b5ac3fc08",
  "size": 226,
  "version": 1,
  "locktime": 0,
  "vin": [
    {
      "txid": "5cc890ab1369432375decb64ef19b4cb190f5f40e35bb1399cce16e4be6b5b9b",
      "vout": 1,
      "scriptSig": {
        "asm": "3045022100d5233595a3140827c3cfe449cd83520c4004fbd2ae70ee045870d1ae6f55bb8002206bafacf5bacf569873c9e849f24320a304e3e154f9ae50a1bf6f42380337483d[ALL] 027a52cac614ba31c0352dfe937cfaaa3ed26312c50b1cbad928894bb3fc9e6655",
        "hex": "483045022100d5233595a3140827c3cfe449cd83520c4004fbd2ae70ee045870d1ae6f55bb8002206bafacf5bacf569873c9e849f24320a304e3e154f9ae50a1bf6f42380337483d0121027a52cac614ba31c0352dfe937cfaaa3ed26312c50b1cbad928894bb3fc9e6655"
      },
      "sequence": 4294967295
    }
  ],
  "vout": [
    {
      "value": 0.00500000,
      "n": 0,
      "scriptPubKey": {
        "asm": "OP_DUP OP_HASH160 de20a2d5a57ee40ce9a4ce14cf06a6c2c6ffe297 OP_EQUALVERIFY OP_CHECKSIG",
        "hex": "76a914de20a2d5a57ee40ce9a4ce14cf06a6c2c6ffe29788ac",
        "reqSigs": 1,
        "type": "pubkeyhash",
        "addresses": [
          "1MFW7BTwiNbAkmVz4SzAMQXboKYKGSzkq2"
        ]
      }
    },
    {
      "value": 0.00455736,
      "n": 1,
      "scriptPubKey": {
        "asm": "OP_DUP OP_HASH160 753fbfea75311b07c17bbabed46711f039635d05 OP_EQUALVERIFY OP_CHECKSIG",
        "hex": "76a914753fbfea75311b07c17bbabed46711f039635d0588ac",
        "reqSigs": 1,
        "type": "pubkeyhash",
        "addresses": [
          "1BgxRrEwr6KFXVMGphN8dc1GTpZpZfhDYi"
        ]
      }
    }
  ],
  "blockhash": "000000000000000000839c77ffd861a2f95af69dc0623bd8b4454d292aca2669",
  "confirmations": 78537,
  "time": 1433911776,
  "blocktime": 1433911776
}