{
  "hex": "01000000010ae08e10dad8548a6e5eef11c5ff76f77ba865f186f6247d3d9502a59c37b588020000006b483045022100fc0d5caa16f3c21939a87b7724dca14c54b1be6a27b253bd1087009ec3873000022062a9b9e40028797526668cb07f91001f3d098461f0a610bd05db7888caac378a01210292ee82d9add0512294723f2c363aee24efdeb3f258cdaf5118a4fcf5263e92c9ffffffff03580200000000000017a914c590a1c93975aec75157e33ad904a74d2934e9d58700000000000000000b6a094f41010001d0860300f8d90000000000001976a91446c2fbfbecc99a63148fa076de58cf29b0bcf0b088ac00000000",
  "txid": "d76bf0e32520c2c38321938486f387d498f523fc0f9532afd51d2ffc098ec03e",
  "hash": "d76bf0e32520c2c38321938486f387d498f523fc0f9532afd51d2ffc098ec03e",
  "size": 244,
  "vsize": 244,
  "version": 1,
  "locktime": 0,
  "vin": [
    {
      "txid": "88b5379ca502953d7d24f686f165a87bf776ffc511ef5e6e8a54d8da108ee00a",
      "vout": 2,
      "scriptSig": {
        "asm": "3045022100fc0d5caa16f3c21939a87b7724dca14c54b1be6a27b253bd1087009ec3873000022062a9b9e40028797526668cb07f91001f3d098461f0a610bd05db7888caac378a[ALL] 0292ee82d9add0512294723f2c363aee24efdeb3f258cdaf5118a4fcf5263e92c9",
        "hex": "483045022100fc0d5caa16f3c21939a87b7724dca14c54b1be6a27b253bd1087009ec3873000022062a9b9e40028797526668cb07f91001f3d098461f0a610bd05db7888caac378a01210292ee82d9add0512294723f2c363aee24efdeb3f258cdaf5118a4fcf5263e92c9"
      },
      "sequence": 4294967295
    }
  ],
  "vout": [
    {
      "value": 0.00000600,
      "n": 0,
      "scriptPubKey": {
        "asm": "OP_HASH160 c590a1c93975aec75157e33ad904a74d2934e9d5 OP_EQUAL",
        "hex": "a914c590a1c93975aec75157e33ad904a74d2934e9d587",
        "reqSigs": 1,
        "type": "scripthash",
        "addresses": [
          "2NBFrNHDikgwjHoMmgJZdsNdB92PpotmaHk"
        ]
      }
    },
    {
      "value": 0.00000000,
      "n": 1,
      "scriptPubKey": {
        "asm": "OP_RETURN 4f41010001d0860300",
        "hex": "6a094f41010001d0860300",
        "type": "nulldata"
      }
    },
    {
      "value": 0.00055800,
      "n": 2,
      "scriptPubKey": {
        "asm": "OP_DUP OP_HASH160 46c2fbfbecc99a63148fa076de58cf29b0bcf0b0 OP_EQUALVERIFY OP_CHECKSIG",
        "hex": "76a91446c2fbfbecc99a63148fa076de58cf29b0bcf0b088ac",
        "reqSigs": 1,
        "type": "pubkeyhash",
        "addresses": [
          "mmy7BEH1SUGAeSVUR22pt5hPaejo2645F1"
        ]
      }
    }
  ],
  "blockhash": "0000000000000344631261acbca74f259a7dd106fe6fe46a2324c15bf2c6c899",
  "confirmations": 63706,
  "time": 1475718079,
  "blocktime": 1475718079
}