{
  "hex": "01000000018e21aec0d7ad999c53f98de37725c0c3d3c36b24a7569051cb1c8996151a6819010000006b483045022100b4555aefc579317e9aa06f1fb1eaec01d5c4688e87ed8fc32b0ff2c3dfeba69002206556b1d8f0dd05be4435140b14cf2133f0dab662470f3a4eb6d754df4a5da4b80121035456a125cc30113748de2fff4a7bf93981876a690e1738fad91d14465be2c728ffffffff0358020000000000001976a914ce5807e32919e3e3df9806d03bd509207730e1a188ac00000000000000000a6a084f41010001e80700385d0100000000001976a914ce5807e32919e3e3df9806d03bd509207730e1a188ac00000000",
  "txid": "dd21295dd0aed5bb336e078994be1df0dc07fe79270e7ecab51136fb0b7cd59a",
  "hash": "dd21295dd0aed5bb336e078994be1df0dc07fe79270e7ecab51136fb0b7cd59a",
  "size": 245,
  "vsize": 245,
  "version": 1,
  "locktime": 0,
  "vin": [
    {
      "txid": "19681a1596891ccb519056a7246bc3d3c3c02577e38df9539c99add7c0ae218e",
      "vout": 1,
      "scriptSig": {
        "asm": "3045022100b4555aefc579317e9aa06f1fb1eaec01d5c4688e87ed8fc32b0ff2c3dfeba69002206556b1d8f0dd05be4435140b14cf2133f0dab662470f3a4eb6d754df4a5da4b8[ALL] 035456a125cc30113748de2fff4a7bf93981876a690e1738fad91d14465be2c728",
        "hex": "483045022100b4555aefc579317e9aa06f1fb1eaec01d5c4688e87ed8fc32b0ff2c3dfeba69002206556b1d8f0dd05be4435140b14cf2133f0dab662470f3a4eb6d754df4a5da4b80121035456a125cc30113748de2fff4a7bf93981876a690e1738fad91d14465be2c728"
      },
      "sequence": 4294967295
    }
  ],
  "vout": [
    {
      "value": 0.00000600,
      "n": 0,
      "scriptPubKey": {
        "asm": "OP_DUP OP_HASH160 ce5807e32919e3e3df9806d03bd509207730e1a1 OP_EQUALVERIFY OP_CHECKSIG",
        "hex": "76a914ce5807e32919e3e3df9806d03bd509207730e1a188ac",
        "reqSigs": 1,
        "type": "pubkeyhash",
        "addresses": [
          "mzKzx4NheRX3PmqprDnD8UUoXjTX7RqVeL"
        ]
      }
    },
    {
      "value": 0.00000000,
      "n": 1,
      "scriptPubKey": {
        "asm": "OP_RETURN 4f41010001e80700",
        "hex": "6a084f41010001e80700",
        "type": "nulldata"
      }
    },
    {
      "value": 0.00089400,
      "n": 2,
      "scriptPubKey": {
        "asm": "OP_DUP OP_HASH160 ce5807e32919e3e3df9806d03bd509207730e1a1 OP_EQUALVERIFY OP_CHECKSIG",
        "hex": "76a914ce5807e32919e3e3df9806d03bd509207730e1a188ac",
        "reqSigs": 1,
        "type": "pubkeyhash",
        "addresses": [
          "mzKzx4NheRX3PmqprDnD8UUoXjTX7RqVeL"
        ]
      }
    }
  ],
  "blockhash": "0000000000010a4d2f5f1cdd34e90d6248e2227e6267a942d9e719c7256fc665",
  "confirmations": 134760,
  "time": 1469351808,
  "blocktime": 1469351808
}