{
  "hex": "01000000018acea6b66f0c7d0da3a4e035724c71d798fd80cb971f0ea598482441ec93b021000000006b483045022100e39412857cf32417205eb1b647fb966244199f271996b68e592421b2b6598a6f022065d1245772886d693806b5629f7bc2ef9bb7a5a73732683acdf79f701336b958012103e5e18bb71cab9a0f3e4a8d86eddc8e28a10792ef1f1114e59c57165ed1085355ffffffff02b64d0300000000001976a91484a14fd7c4c522d59158f91f78c250278f66a89988aca0860100000000001976a914b7218fe503cd18555255e5b13d4f07f3fd00d0c988ac00000000",
  "txid": "dd58300c4e6673d64f8ae3546fde4ac3e1445e707605c2f91ac6636b84fe28d8",
  "size": 226,
  "version": 1,
  "locktime": 0,
  "vin": [
    {
      "txid": "21b093ec41244898a50e1f97cb80fd98d7714c7235e0a4a30d7d0c6fb6a6ce8a",
      "vout": 0,
      "scriptSig": {
        "asm": "3045022100e39412857cf32417205eb1b647fb966244199f271996b68e592421b2b6598a6f022065d1245772886d693806b5629f7bc2ef9bb7a5a73732683acdf79f701336b958[ALL] 03e5e18bb71cab9a0f3e4a8d86eddc8e28a10792ef1f1114e59c57165ed1085355",
        "hex": "483045022100e39412857cf32417205eb1b647fb966244199f271996b68e592421b2b6598a6f022065d1245772886d693806b5629f7bc2ef9bb7a5a73732683acdf79f701336b958012103e5e18bb71cab9a0f3e4a8d86eddc8e28a10792ef1f1114e59c57165ed1085355"
      },
      "sequence": 4294967295
    }
  ],
  "vout": [
    {
      "value": 0.00216502,
      "n": 0,
      "scriptPubKey": {
        "asm": "OP_DUP OP_HASH160 84a14fd7c4c522d59158f91f78c250278f66a899 OP_EQUALVERIFY OP_CHECKSIG",
        "hex": "76a91484a14fd7c4c522d59158f91f78c250278f66a89988ac",
        "reqSigs": 1,
        "type": "pubkeyhash",
        "addresses": [
          "1D6HSU9CcWyyaiBjFxWWPgVhDcwkMMn4jk"
        ]
      }
    },
    {
      "value": 0.00100000,
      "n": 1,
      "scriptPubKey": {
        "asm": "OP_DUP OP_HASH160 b7218fe503cd18555255e5b13d4f07f3fd00d0c9 OP_EQUALVERIFY OP_CHECKSIG",
        "hex": "76a914b7218fe503cd18555255e5b13d4f07f3fd00d0c988ac",
        "reqSigs": 1,
        "type": "pubkeyhash",
        "addresses": [
          "1HhJs3JgbiyxC8ktfi6nU4wTqVmrMtCVkG"
        ]
      }
    }
  ],
  "blockhash": "000000000000000000180fc5ecf13e313fb2086298e20ea18727cb5730e2d772",
  "confirmations": 78352,
  "time": 1434008745,
  "blocktime": 1434008745
}