{
  "hex": "01000000016475d1c8e6d8c289191fe5810801c0285c3fef9d82dbe9da01b344ac446ef308000000006a473044022078405f742167e0e79cd371cc7618006b274ee37dc61182d7a925492a2b3bf684022009646930834c0d017059c7bfcfc4b0c79ae47548c64f3dcfe8375d6a81506d23012102bf9ae6b35ee08f18e4ff7a28cefcef511142e6169086579b8d468097327780ebffffffff0458020000000000001976a9148130f96080e598cc4e210067eb54403074aa1a8d88ac00000000000000000a6a084f41010001a30400fd905c05000000001976a914626871f87bfb20804d5b2ae2cde668efd70c60d388ac1b900000000000001976a9148130f96080e598cc4e210067eb54403074aa1a8d88ac00000000",
  "txid": "e1dcdb553d40ec35aac0a5b9bc2cce0112dd10c869a887b52b3b58071bb29f3c",
  "hash": "e1dcdb553d40ec35aac0a5b9bc2cce0112dd10c869a887b52b3b58071bb29f3c",
  "size": 278,
  "vsize": 278,
  "version": 1,
  "locktime": 0,
  "vin": [
    {
      "txid": "08f36e44ac44b301dae9db829def3f5c28c0010881e51f1989c2d8e6c8d17564",
      "vout": 0,
      "scriptSig": {
        "asm": "3044022078405f742167e0e79cd371cc7618006b274ee37dc61182d7a925492a2b3bf684022009646930834c0d017059c7bfcfc4b0c79ae47548c64f3dcfe8375d6a81506d23[ALL] 02bf9ae6b35ee08f18e4ff7a28cefcef511142e6169086579b8d468097327780eb",
        "hex": "473044022078405f742167e0e79cd371cc7618006b274ee37dc61182d7a925492a2b3bf684022009646930834c0d017059c7bfcfc4b0c79ae47548c64f3dcfe8375d6a81506d23012102bf9ae6b35ee08f18e4ff7a28cefcef511142e6169086579b8d468097327780eb"
      },
      "sequence": 4294967295
    }
  ],
  "vout": [
    {
      "value": 0.00000600,
      "n": 0,
      "scriptPubKey": {
        "asm": "OP_DUP OP_HASH160 8130f96080e598cc4e210067eb54403074aa1a8d OP_EQUALVERIFY OP_CHECKSIG",
        "hex": "76a9148130f96080e598cc4e210067eb54403074aa1a8d88ac",
        "reqSigs": 1,
        "type": "pubkeyhash",
        "addresses": [
          "msJ48aj11GcKuu3SK5nc5MPGrMxvE1oR5Y"
        ]
      }
    },
    {
      "value": 0.00000000,
      "n": 1,
      "scriptPubKey": {
        "asm": "OP_RETURN 4f41010001a30400",
        "hex": "6a084f41010001a30400",
        "type": "nulldata"
      }
    },
    {
      "value": 0.89952509,
      "n": 2,
      "scriptPubKey": {
        "asm": "OP_DUP OP_HASH160 626871f87bfb20804d5b2ae2cde668efd70c60d3 OP_EQUALVERIFY OP_CHECKSIG",
        "hex": "76a914626871f87bfb20804d5b2ae2cde668efd70c60d388ac",
        "reqSigs": 1,
        "type": "pubkeyhash",
        "addresses": [
          "mpVHdqGN7XfBKNGwbJmaVYXVPPnmXpXf7Y"
        ]
      }
    },
    {
      "value": 0.00036891,
      "n": 3,
      "scriptPubKey": {
        "asm": "OP_DUP OP_HASH160 8130f96080e598cc4e210067eb54403074aa1a8d OP_EQUALVERIFY OP_CHECKSIG",
        "hex": "76a9148130f96080e598cc4e210067eb54403074aa1a8d88ac",
        "reqSigs": 1,
        "type": "pubkeyhash",
        "addresses": [
          "msJ48aj11GcKuu3SK5nc5MPGrMxvE1oR5Y"
        ]
      }
    }
  ],
  "blockhash": "0000000036e776641f8c2d35224a5a6d04cef2821f576b949e42a13be7fb4145",
  "confirmations": 638408,
  "time": 1431136755,
  "blocktime": 1431136755
}