{
  "hex": "010000000196f0cfd7ee113fb3893bc75011ced86b0db321fa1de856a682e2a752642bd5b8030000006b48304502201c4dfcd9700a7af62a0e242b15bca0d6ab0a7e58a1a5b2673d314a7fe56506ae022100be488d23438044c598111735b7f5cfb657c9e826965de6832de2c4748ad441a701210233df159fad83540209cd32ad761893d90119354b40dad24c481b6c1f8e39cd8bffffffff02a0860100000000001976a914878bd346b688c798eeeff329c6ffafddddbaa0f288ac0af00200000000001976a91461879103f4db4f02b6dc9ba641bb3a29855fa8aa88ac00000000",
  "txid": "f2ab72a7f108c5f2c2f352d1918814975f89abb0a27ca3338e99514e771dfb30",
  "size": 226,
  "version": 1,
  "locktime": 0,
  "vin": [
    {
      "txid": "b8d52b6452a7e282a656e81dfa21b30d6bd8ce1150c73b89b33f11eed7cff096",
      "vout": 3,
      "scriptSig": {
        "asm": "304502201c4dfcd9700a7af62a0e242b15bca0d6ab0a7e58a1a5b2673d314a7fe56506ae022100be488d23438044c598111735b7f5cfb657c9e826965de6832de2c4748ad441a7[ALL] 0233df159fad83540209cd32ad761893d90119354b40dad24c481b6c1f8e39cd8b",
        "hex": "48304502201c4dfcd9700a7af62a0e242b15bca0d6ab0a7e58a1a5b2673d314a7fe56506ae022100be488d23438044c598111735b7f5cfb657c9e826965de6832de2c4748ad441a701210233df159fad83540209cd32ad761893d90119354b40dad24c481b6c1f8e39cd8b"
      },
      "sequence": 4294967295
    }
  ],
  "vout": [
    {
      "value": 0.00100000,
      "n": 0,
      "scriptPubKey": {
        "asm": "OP_DUP OP_HASH160 878bd346b688c798eeeff329c6ffafddddbaa0f2 OP_EQUALVERIFY OP_CHECKSIG",
        "hex": "76a914878bd346b688c798eeeff329c6ffafddddbaa0f288ac",
        "reqSigs": 1,
        "type": "pubkeyhash",
        "addresses": [
          "1DMhj8VLajNUvhzXnZYnX8tgi7bReYeS13"
        ]
      }
    },
    {
      "value": 0.00192522,
      "n": 1,
      "scriptPubKey": {
        "asm": "OP_DUP OP_HASH160 61879103f4db4f02b6dc9ba641bb3a29855fa8aa OP_EQUALVERIFY OP_CHECKSIG",
        "hex": "76a91461879103f4db4f02b6dc9ba641bb3a29855fa8aa88ac",
        "reqSigs": 1,
        "type": "pubkeyhash",
        "addresses": [
          "19tgwvzA19XDHcDnNGSw1WrzjC1pq7waMA"
        ]
      }
    }
  ],
  "blockhash": "0000000000000000029f400851f40a74e705ce9aeb603b3779eb64e65726433e",
  "confirmations": 61231,
  "time": 1444040344,
  "blocktime": 1444040344
}