{
  "hex": "0100000004147baa40b3426ee6d55e6697fc3f2500c891f0619284713875b05d87143e8fe7000000006b483045022100bdf97b349f300b46aa0b624f7f90fa8085623805585b53739e7ab70cbe6d0a5e02203d6a116128683009b25efc09893f14b2604e8777e04cefece62766d45888c9c401210323df5c63ab7a9186ecfdbc07ee9acc5cb4129c65622d8c436dc2ed2d625cd143ffffffff1f332638e05adfcd7628d018733a6bbf70bb7ee2b6f7c15f5437b918be2270f7000000006b4830450221009a6ffa886f1f53d53123e594324f21f0af149da95db63c942e2844c3eb836a6602203ddcda271c0fa96a2457cc34736f2254cd1d996e3926ec378b6a2f88a8ccf2a201210323df5c63ab7a9186ecfdbc07ee9acc5cb4129c65622d8c436dc2ed2d625cd143ffffffffac93eb66ea41c7e1f186e2a7505adbe9c45ca924876118a3957a93ad43c32623010000006b4830450221009313374d4391ff442c44bfc3e4ff62874069d3eb5c992688607ab6f59c852c5802203a4cb9027262bbc11c576792c1e49248ae859a069a5a16d6e403f837c821c5eb01210323df5c63ab7a9186ecfdbc07ee9acc5cb4129c65622d8c436dc2ed2d625cd143ffffffff3672675c2dd1d92d0848d954d7b6b3da9d48ce61115db1bed1369d2e024e7cea010000006b483045022100adb92a6c865ba59627af9dfe7dfedd7d2620035c023b9fc8dbda843adf99881702204f6c59d78d8615c5cff7e388f43b4fbd763797fc2dc1f38fd6c70bd3634ada0801210323df5c63ab7a9186ecfdbc07ee9acc5cb4129c65622d8c436dc2ed2d625cd143ffffffff0600000000000000000e6a0c4f41010004c20332c203320058020000000000001976a91453ad0e81bd931dac736ad913915d11c3be0c0b2388ac58020000000000001976a91453ad0e81bd931dac736ad913915d11c3be0c0b2388ac58020000000000001976a9143894aaab84a2c8a2f29c085573bb8aae2a0f94e288ac58020000000000001976a91460c707f73615f6263761bf20522f0ed54e1b2e0488acb8770700000000001976a9144f756b9ed6608e5d66ee92b761cf99641940cee688ac00000000",
  "txid": "f889c52a3367f636b9b680e84b22ea42a22b1ca41f9f59cb541c44ed3798a36c",
  "hash": "f889c52a3367f636b9b680e84b22ea42a22b1ca41f9f59cb541c44ed3798a36c",
  "size": 795,
  "vsize": 795,
  "version": 1,
  "locktime": 0,
  "vin": [
    {
      "txid": "e78f3e14875db0753871849261f091c800253ffc97665ed5e66e42b340aa7b14",
      "vout": 0,
      "scriptSig": {
        "asm": "3045022100bdf97b349f300b46aa0b624f7f90fa8085623805585b53739e7ab70cbe6d0a5e02203d6a116128683009b25efc09893f14b2604e8777e04cefece62766d45888c9c4[ALL] 0323df5c63ab7a9186ecfdbc07ee9acc5cb4129c65622d8c436dc2ed2d625cd143",
        "hex": "483045022100bdf97b349f300b46aa0b624f7f90fa8085623805585b53739e7ab70cbe6d0a5e02203d6a116128683009b25efc09893f14b2604e8777e04cefece62766d45888c9c401210323df5c63ab7a9186ecfdbc07ee9acc5cb4129c65622d8c436dc2ed2d625cd143"
      },
      "sequence": 4294967295
    },
    {
      "txid": "f77022be18b937545fc1f7b6e27ebb70bf6b3a7318d02876cddf5ae03826331f",
      "vout": 0,
      "scriptSig": {
        "asm": "30450221009a6ffa886f1f53d53123e594324f21f0af149da95db63c942e2844c3eb836a6602203ddcda271c0fa96a2457cc34736f2254cd1d996e3926ec378b6a2f88a8ccf2a2[ALL] 0323df5c63ab7a9186ecfdbc07ee9acc5cb4129c65622d8c436dc2ed2d625cd143",
        "hex": "4830450221009a6ffa886f1f53d53123e594324f21f0af149da95db63c942e2844c3eb836a6602203ddcda271c0fa96a2457cc34736f2254cd1d996e3926ec378b6a2f88a8ccf2a201210323df5c63ab7a9186ecfdbc07ee9acc5cb4129c65622d8c436dc2ed2d625cd143"
      },
      "sequence": 4294967295
    },
    {
      "txid": "2326c343ad937a95a318618724a95cc4e9db5a50a7e286f1e1c741ea66eb93ac",
      "vout": 1,
      "scriptSig": {
        "asm": "30450221009313374d4391ff442c44bfc3e4ff62874069d3eb5c992688607ab6f59c852c5802203a4cb9027262bbc11c576792c1e49248ae859a069a5a16d6e403f837c821c5eb[ALL] 0323df5c63ab7a9186ecfdbc07ee9acc5cb4129c65622d8c436dc2ed2d625cd143",
        "hex": "4830450221009313374d4391ff442c44bfc3e4ff62874069d3eb5c992688607ab6f59c852c5802203a4cb9027262bbc11c576792c1e49248ae859a069a5a16d6e403f837c821c5eb01210323df5c63ab7a9186ecfdbc07ee9acc5cb4129c65622d8c436dc2ed2d625cd143"
      },
      "sequence": 4294967295
    },
    {
      "txid": "ea7c4e022e9d36d1beb15d1161ce489ddab3b6d754d948082dd9d12d5c677236",
      "vout": 1,
      "scriptSig": {
        "asm": "3045022100adb92a6c865ba59627af9dfe7dfedd7d2620035c023b9fc8dbda843adf99881702204f6c59d78d8615c5cff7e388f43b4fbd763797fc2dc1f38fd6c70bd3634ada08[ALL] 0323df5c63ab7a9186ecfdbc07ee9acc5cb4129c65622d8c436dc2ed2d625cd143",
        "hex": "483045022100adb92a6c865ba59627af9dfe7dfedd7d2620035c023b9fc8dbda843adf99881702204f6c59d78d8615c5cff7e388f43b4fbd763797fc2dc1f38fd6c70bd3634ada0801210323df5c63ab7a9186ecfdbc07ee9acc5cb4129c65622d8c436dc2ed2d625cd143"
      },
      "sequence": 4294967295
    }
  ],
  "vout": [
    {
      "value": 0.00000000,
      "n": 0,
      "scriptPubKey": {
        "asm": "OP_RETURN 4f41010004c20332c2033200",
        "hex": "6a0c4f41010004c20332c2033200",
        "type": "nulldata"
      }
    },
    {
      "value": 0.00000600,
      "n": 1,
      "scriptPubKey": {
        "asm": "OP_DUP OP_HASH160 53ad0e81bd931dac736ad913915d11c3be0c0b23 OP_EQUALVERIFY OP_CHECKSIG",
        "hex": "76a91453ad0e81bd931dac736ad913915d11c3be0c0b2388ac",
        "reqSigs": 1,
        "type": "pubkeyhash",
        "addresses": [
          "mo9PhATt7Wkh8CaPHXM9nkrdt57YF78sWg"
        ]
      }
    },
    {
      "value": 0.00000600,
      "n": 2,
      "scriptPubKey": {
        "asm": "OP_DUP OP_HASH160 53ad0e81bd931dac736ad913915d11c3be0c0b23 OP_EQUALVERIFY OP_CHECKSIG",
        "hex": "76a91453ad0e81bd931dac736ad913915d11c3be0c0b2388ac",
        "reqSigs": 1,
        "type": "pubkeyhash",
        "addresses": [
          "mo9PhATt7Wkh8CaPHXM9nkrdt57YF78sWg"
        ]
      }
    },
    {
      "value": 0.00000600,
      "n": 3,
      "scriptPubKey": {
        "asm": "OP_DUP OP_HASH160 3894aaab84a2c8a2f29c085573bb8aae2a0f94e2 OP_EQUALVERIFY OP_CHECKSIG",
        "hex": "76a9143894aaab84a2c8a2f29c085573bb8aae2a0f94e288ac",
        "reqSigs": 1,
        "type": "pubkeyhash",
        "addresses": [
          "mkg8ELb2F24VHFvXwBWkLaNSz375iNBm2n"
        ]
      }
    },
    {
      "value": 0.00000600,
      "n": 4,
      "scriptPubKey": {
        "asm": "OP_DUP OP_HASH160 60c707f73615f6263761bf20522f0ed54e1b2e04 OP_EQUALVERIFY OP_CHECKSIG",
        "hex": "76a91460c707f73615f6263761bf20522f0ed54e1b2e0488ac",
        "reqSigs": 1,
        "type": "pubkeyhash",
        "addresses": [
          "mpLfbPp3SsoY75ks1ZP7etiBopZhJp9mEu"
        ]
      }
    },
    {
      "value": 0.00489400,
      "n": 5,
      "scriptPubKey": {
        "asm": "OP_DUP OP_HASH160 4f756b9ed6608e5d66ee92b761cf99641940cee6 OP_EQUALVERIFY OP_CHECKSIG",
        "hex": "76a9144f756b9ed6608e5d66ee92b761cf99641940cee688ac",
        "reqSigs": 1,
        "type": "pubkeyhash",
        "addresses": [
          "mnm6Lik5HqjrBXZtbRgTio4VSY5FyoUfrJ"
        ]
      }
    }
  ],
  "blockhash": "00000000009f30c59abf2f8556c0949c79b54764f4cbb223ca43527394d3ee2f",
  "confirmations": 186288,
  "time": 1463385080,
  "blocktime": 1463385080
}