{
  "hex": "01000000017d0cb5a3201f4b9585a3b4bb0347b21c603a2fee95c5de56ee5b0834b49e1452000000006a473044022037bbfc19ea97d773e196d57bf13bd089041180c2a6f18768d9cba5f161a090120220707ed82a8d175b306af33db7b4e56dacb0946885fd5a4c414d1885926c5c78e801210233df159fad83540209cd32ad761893d90119354b40dad24c481b6c1f8e39cd8bffffffff0358020000000000001976a9147cbc38b45e36dbe96e991d737450f047a9899a6388ac0000000000000000206a1e4f41010001dc0b16753d687474703a2f2f676f6f2e676c2f6653346d456ab8770700000000001976a9147cbc38b45e36dbe96e991d737450f047a9899a6388ac00000000",
  "txid": "f98373ac2c09a99aef99db774538abe26bfbb543c0ca888ea3558cc881e9535d",
  "size": 266,
  "version": 1,
  "locktime": 0,
  "vin": [
    {
      "txid": "52149eb434085bee56dec595ee2f3a601cb24703bbb4a385954b1f20a3b50c7d",
      "vout": 0,
      "scriptSig": {
        "asm": "3044022037bbfc19ea97d773e196d57bf13bd089041180c2a6f18768d9cba5f161a090120220707ed82a8d175b306af33db7b4e56dacb0946885fd5a4c414d1885926c5c78e8[ALL] 0233df159fad83540209cd32ad761893d90119354b40dad24c481b6c1f8e39cd8b",
        "hex": "473044022037bbfc19ea97d773e196d57bf13bd089041180c2a6f18768d9cba5f161a090120220707ed82a8d175b306af33db7b4e56dacb0946885fd5a4c414d1885926c5c78e801210233df159fad83540209cd32ad761893d90119354b40dad24c481b6c1f8e39cd8b"
      },
      "sequence": 4294967295
    }
  ],
  "vout": [
    {
      "value": 0.00000600,
      "n": 0,
      "scriptPubKey": {
        "asm": "OP_DUP OP_HASH160 7cbc38b45e36dbe96e991d737450f047a9899a63 OP_EQUALVERIFY OP_CHECKSIG",
        "hex": "76a9147cbc38b45e36dbe96e991d737450f047a9899a6388ac",
        "reqSigs": 1,
        "type": "pubkeyhash",
        "addresses": [
          "1CNYGeUsJU6csL8ZkZATrJhzmhv7LM4vFx"
        ]
      }
    },
    {
      "value": 0.00000000,
      "n": 1,
      "scriptPubKey": {
        "asm": "OP_RETURN 4f41010001dc0b16753d687474703a2f2f676f6f2e676c2f6653346d456a",
        "hex": "6a1e4f41010001dc0b16753d687474703a2f2f676f6f2e676c2f6653346d456a",
        "type": "nulldata"
      }
    },
    {
      "value": 0.00489400,
      "n": 2,
      "scriptPubKey": {
        "asm": "OP_DUP OP_HASH160 7cbc38b45e36dbe96e991d737450f047a9899a63 OP_EQUALVERIFY OP_CHECKSIG",
        "hex": "76a9147cbc38b45e36dbe96e991d737450f047a9899a6388ac",
        "reqSigs": 1,
        "type": "pubkeyhash",
        "addresses": [
          "1CNYGeUsJU6csL8ZkZATrJhzmhv7LM4vFx"
        ]
      }
    }
  ],
  "blockhash": "00000000000000000108a67c0ebddadfdd41008a82c9ff53e9db9d141bd84a95",
  "confirmations": 61685,
  "time": 1443778763,
  "blocktime": 1443778763
}